:020000040800F2
:10000000C06E0120650400086D0400086F0400083C
:100010007104000873040008750400080000000063
:100020000000000000000000000000003503000890
:100030007904000800000000ED03000851040008E6
:100040007F0400087F0400087F0400087F04000884
:100050007F0400087F0400087F0400087F04000874
:100060007F0400087F0400087F0400087F04000864
:100070007F0400087F0400087F0400087F04000854
:100080007F0400087F0400087F0400087F04000844
:100090007F0400087F0400087F0400087F04000834
:1000A0007F0400087F0400087F0400087F04000824
:1000B0007F0400087F0400087F0400087F04000814
:1000C0007F0400087F0400087F0400087F04000804
:1000D0007F0400087F0400087F0400087F040008F4
:1000E0007F0400087F0400087F0400087F040008E4
:1000F0007F0400087F0400087F0400087F040008D4
:100100007F0400087F0400087F0400087F040008C3
:100110007F0400087F0400087F0400087F040008B3
:100120007F0400087F0400087F0400087F040008A3
:100130007F0400087F0400087F0400087F04000893
:100140007F0400087F0400087F0400087F04000883
:100150007F0400087F0400087F0400087F04000873
:100160007F0400087F0400087F0400087F04000863
:100170007F0400087F0400087F04000800000000DE
:100180007F0400087F0400087F0400087F04000843
:100190007F0400087F0400087F0400087F04000833
:1001A0001D8800087F040008911100087F040008E2
:1001B0007F0400087F0400087F0400087F04000813
:1001C0007F0400087F04000800F002F800F05CF8EB
:1001D0000AA090E8000C82448344AAF10107DA45A2
:1001E00001D100F051F8AFF2090EBAE80F0013F098
:1001F000010F18BFFB1A43F001031847E85601002E
:10020000085701000A444FF0000C10F8013B13F0AE
:10021000070408BF10F8014B1D1108BF10F8015B5F
:10022000641E05D010F8016B641E01F8016BF9D152
:1002300013F0080F1EBF10F8014BAD1C0C1B09D1A9
:100240006D1E58BF01F801CBFAD505E014F8016B1B
:1002500001F8016B6D1EF9D59142D6D370470000AD
:100260000023002400250026103A28BF78C1FBD8BF
:10027000520728BF30C148BF0B6070471FB510F050
:10028000FDFE1FBD10B510BD00F00CFB1146FFF7C1
:10029000F5FF0FB400F00CF80FBC0FF087FC00F076
:1002A0007CF903B4FFF7EEFF03BC00F0F5FA0000A1
:1002B00004B00FF0FDFC044800210FF07DFD0FF0AD
:1002C00009FD00F06AF900005400012080F309885C
:1002D0007047EFF309807047684680F30988044847
:1002E0000078C00714BF0220032080F314887047F1
:1002F000A0100108DFF818C0EFF305831B0618BF34
:100300006047EFF31483DB0708BF604700DF7047E7
:10031000EFFE0008DFF818C0EFF305831B0618BFD7
:100320006047EFF31483DB0708BF604700DF7047C7
:10033000D5000108EFF30980816911F8021CE1BBC7
:1003400090E80F1010B5E047BDE81040EFF3098CBE
:100350008CE80700214B93E80600914208BF7047E4
:1003600041B91EF0100F16D11D49086820F0010098
:10037000086010E01EF0100F06BF2CED108A01205F
:10038000002081F825002CE9F00FC1F828C00CB43A
:1003900010F04AFA0CBC1A60D2F828C0BCE8F00F82
:1003A00092F8250000280EBF6FF0020E6FF0120EBB
:1003B000BCEC108A8CF30988704710B5094A1268A2
:1003C000914209D8084C54F8214090E80F10A047FA
:1003D000EFF3098C8CE80F0010BD0000D80001205D
:1003E00034EF00E0F0080008F008000810B510F045
:1003F000DFF8BDE81040154B93E80600914208BFB6
:100400007047EFF3098C1EF0100F06BF2CED108A19
:100410000120002081F825002CE9F00FC1F828C048
:100420000CB410F001FA0CBC1A60D2F828C0BCE879
:10043000F00F92F8250000280EBF6FF0020E6FF04B
:10044000120EBCEC108A8CF309887047D80001208A
:1004500010B510F0B1FACCE710B50FF047FD10F071
:10046000ABFAC6E70948804709480047FEE7FEE7C0
:10047000FEE7FEE7FEE7FEE7FEE7FEE7FEE7FEE754
:1004800004480549054A064B70470000A98C00083E
:10049000C9010008C05E0120C06E0120C0660120B5
:1004A000C066012000487047605E012053EA020CDC
:1004B00000F069802DE9F04B4FF00006002B1FBFC4
:1004C000B3FA83F503FA05F424FA05F65E4012BF89
:1004D0001643B2FA82F502FA05F4C5F120051EBFF3
:1004E00022FA05FC44EA0C04203556EA044C4FEA93
:1004F000144418BF641C4FF000084FF000099042EC
:1005000071EB030C39D3002919BFB1FA81F701FA55
:1005100007F6B0FA80F700FA07F6C7F120071EBF0A
:1005200020FA07FC46EA0C062037B6FBF4FCA7EBE2
:100530000507103F07F01F0BCBF120060CFA0BFB51
:100540002CFA06F644BFB3460026202FA4BF5E4611
:100550004FF0000B5BEA060C08BF4FF0010B19EBE4
:100560000B09ABFB027C48EB0608C01B06FB02CC68
:100570000BFB03CC71EB0C01C1E70B460246414675
:100580004846BDE8F08B13B54FF000004FF0000176
:10059000AFF30080BDE81C40704710B50446AFF3D0
:1005A00000802046BDE81040FFF77BBE40EA010313
:1005B00010B59B070FD1042A0DD310C808C9121F0C
:1005C0009C42F8D020BA19BA884201D9012010BD46
:1005D0004FF0FF3010BD1AB1D30703D0521C07E013
:1005E000002010BD10F8013B11F8014B1B1B07D177
:1005F00010F8013B11F8014B1B1B01D1921EF1D1E8
:10060000184610BD032A40F2308010F0030C00F0B1
:10061000158011F8013BBCF1020F624498BF11F83C
:1006200001CB00F8013B38BF11F8013BA2F10402F5
:1006300098BF00F801CB38BF00F8013B11F003036D
:1006400000F06780083AC0F0088051F8043B083A8F
:1006500051F804CBA0E80810F5E7121D5CBF51F873
:10066000043B40F8043BAFF30080D20724BF11F8ED
:10067000013B11F801CB48BF11F8012B24BF00F852
:10068000013B00F801CB48BF00F8012B7047431A2B
:1006900028BF9A427FF6B6AF032A1044114440F2B5
:1006A000268010F0030F1EBF11F8013D521E00F806
:1006B000013D10F0030F7FF4F6AF11F0030300F0DB
:1006C0009F80083AC0F00B8051F8043D083A51F879
:1006D00004CD40F8043D40F804CDFFF7F3BF121DF0
:1006E0005CBF51F8043D40F8043DAFF30080D207F1
:1006F00024BF11F8013D11F801CD48BF11F8012CBC
:1007000024BF00F8013D00F801CD48BF00F8012CDE
:10071000704710B5203AC0F00B80B1E81850203A6D
:10072000A0E81850B1E81850A0E81850BFF4F5AF91
:100730005FEA027C24BFB1E81850A0E8185044BF1B
:1007400018C918C0BDE810405FEA827C24BF51F888
:10075000043B40F8043B08BF7047D20728BF31F87C
:10076000023B48BF11F8012B28BF20F8023B48BFCD
:1007700000F8012B704702F0FF0343EA032242EA2C
:10078000024200F069B84FF0000200B513469446EB
:100790009646203922BFA0E80C50A0E80C50B1F1D9
:1007A0002001BFF4F7AF090728BFA0E80C5048BFED
:1007B0000CC05DF804EB890028BF40F8042B08BF8B
:1007C000704748BF20F8022B11F0804F18BF00F887
:1007D000012B7047704770477047431A28BF9A42F1
:1007E0007FF697AF104410F0030F11441EBF11F8AD
:1007F000013D521E00F8013D10F0030F7FF4F6AFEB
:10080000103AC0F00A8010B531E91850103A20E9CA
:100810001850BFF4F9AFBDE81040530724BF31E9C9
:10082000081020E9081044BF51F8043D40F8043D89
:1008300012F0030F08BF7047D20728BF31F8023DFE
:1008400048BF11F8012C28BF20F8023D48BF00F82E
:10085000012C70474FF000020429C0F0128010F004
:10086000030C3FF492AFCCF1040CBCF1020F18BFA3
:1008700000F8012BA8BF20F8022BA1EB0C01FFF719
:1008800084BF5FEAC17C24BF00F8012B00F8012B74
:1008900048BF00F8012B704701491820ABBEFEE7A6
:1008A000260002007546FFF7FDFDAE4605006946CD
:1008B000534620F00700854618B020B5FFF7E0FD4D
:1008C000BDE820404FF000064FF000074FF0000851
:1008D0004FF0000B21F00701AC46ACE8C009ACE8D2
:1008E000C009ACE8C009ACE8C0098D467047704744
:1008F0000000000010B58AB0044600BF2E48006812
:1009000040F004002C4908600846006800F004002C
:10091000009000BF00BF00BF27481430006840F4BB
:1009200080602549143108600846006800F4806042
:10093000009000BF00BF081505900320069000201E
:10094000079005A91D4804F011FC00221146122051
:1009500005F0D6FA122005F0C6FA194820604FF4C7
:10096000403060604FF00071A160002121610121E1
:10097000A16100216162A1622163E162E160012164
:100980002162E16100216161204603F023FB10B187
:1009900001200AB010BD0820019001200290022021
:1009A00003900020049001A9204603F045FA08B105
:1009B0000120EEE70020ECE730380240001402404E
:1009C000002201405A49096821F44031594AC2F8CD
:1009D00004131146D1F8041342681143544A1160BC
:1009E0000168496821F480710268516001684A68B1
:1009F000016942EA0121026851600168496821F0F9
:100A00004071026851600168496882681143026858
:100A100051600168896821F4006102689160016891
:100A20008968C268114302689160434AC16A914271
:100A300018D00168896821F07061026891600168CE
:100A40008968C26A1143026891600168896821F06F
:100A500040510268916001688968026B1143026825
:100A600091600BE00168896821F070610268916013
:100A70000168896821F040510268916001688968C5
:100A800021F002010268916001688A68816942EA86
:100A9000410102689160416AD1B10168496841F43D
:100AA0000061026851600168496821F46041026890
:100AB000516001684A68816A491E4FF4604393FAA5
:100AC000A3F3B3FA83F399400A4301684A6005E04F
:100AD0000168496821F40061026851600168C96ACF
:100AE00021F470010268D1620168CA6A018C491E52
:100AF00042EA01510268D1620168896821F40071FB
:100B00000268916001688A68C16942EA412102680D
:100B100091600168896821F48061026891600168D0
:100B20008A68416942EA8121026891607047000049
:100B300004230140002001400100000F10B51E48B1
:100B40001E49086002201E490860072048600420F2
:100B500088600720C8600220086148618861002021
:100B6000164948600021154881600421C1601021A8
:100B7000016140214161890081610021C1614FF41F
:100B800000610162490041620021816200F068F861
:100B90000B490A4806F070FA18B10120094908709B
:100BA00002E000200749087040F2036000F00CF8F2
:100BB0000448007810BD0000400100A090130120FF
:100BC000C41301203200012038B5044600200090F3
:100BD0000120214908601020486001208860002021
:100BE000C8604FF6FF721D4806F07BFA012004F042
:100BF000AFFA022018490860102048600120886080
:100C00000020C8604FF6FF72144806F06AFA03200D
:100C10001149086010204860082088600020C860E2
:100C20004FF6FF720D4806F05CFA4FF40870009022
:100C3000042009490860102048600120886000985D
:100C4000C8604FF6FF72054806F04BFA214603488C
:100C500006F033FA38BD0000E013012090130120A4
:100C600030B587B004460D4600BF6648006840F0C6
:100C70000100644908600846006800F00100019026
:100C800000BF00BF00BF5F480838006840F4800024
:100C90005C49083908600846006800F4800001904B
:100CA00000BF00BF00BF0846006840F004000860B5
:100CB0000846006800F00400019000BF00BF00BFBC
:100CC0000846006840F0080008600846006800F028
:100CD0000800019000BF00BF00BF0846006840F058
:100CE000100008600846006800F01000019000BF86
:100CF00000BF00BF0846006840F0200008600846BA
:100D0000006800F02000019000BF00BF00BF08464F
:100D1000006840F0400008600846006800F04000AD
:100D2000019000BF00BF00BF0846006840F080008F
:100D300008600846006800F08000019000BF00BF16
:100D40000220039001200490022005900C200690C0
:100D50000820029002A92C4804F008FA4CF20B700B
:100D6000029002A9294804F001FA4FF6837002901C
:100D700002A9274804F0FAF94FF63F00029002A9B1
:100D8000244804F0F3F948F23310029002A92248F3
:100D900004F0ECF92820029002A9204804F0E6F9BA
:100DA00000201F49486080211D4881608900C16082
:100DB0004900016189004161890081610021C161AF
:100DC0004FF4003101620021416203218162002160
:100DD000C162016313481249086000BF08462063DE
:100DE000846300BF03F0C4F90D4804F073F90022D6
:100DF0000521382005F084F8382005F074F807B094
:100E000030BD00003838024000080240000C0240AB
:100E1000001002400014024000180240001C024072
:100E2000F0130120106402402DE9F04190B0054616
:100E30004FF0000800200390029001907E48006867
:100E400001697E480078884728702878002870D08B
:100E50000024E4E004A800EB440207A800EB4401EE
:100E60007548006843697548007898477448007869
:100E700001280BD107A830F814000DA921F814009F
:100E800004A830F814000AA921F814006C4800786E
:100E900000F0020038B107A830F81400C0F5805007
:100EA0000DA921F814006648007800F0040038B15C
:100EB00004A830F81400C0F580500AA921F81400E5
:100EC0005F48007800F0080058B107A830F8140017
:100ED0000AA921F8140004A830F814000DA921F87B
:100EE00014000DA830F81400564951F82410884217
:100EF00007D90DA830F81400524951F82410401AAF
:100F000006E0504850F824000DA931F81410401A9A
:100F100086B20AA830F814004B4951F824108842D0
:100F200008D90AA830F81400474951F82410401A8B
:100F300007E07CE0444850F824000AA931F8141076
:100F4000401A87B2F01905280BDD0DA830F81400FF
:100F50003C4941F824000AA830F814003A4941F805
:100F600024003648007870280DD10DA830F81410F0
:100F7000A81C20F814100AA830F8141005F10C0071
:100F800020F8141016E02F4850F824002F49098843
:100F90004843C0F30F31A81C20F814102A4850F819
:100FA00024002B4909884843C0F30F3105F10C0098
:100FB00020F8141001A802AB03AA214600901F4894
:100FC00000780EF053FC0398C1B205F116000155EC
:100FD0000298C1B205F120000155019830B10128F5
:100FE00009D002280CD0032814D10EE0012105F10C
:100FF0001B00015511E0022105F11B0001550CE019
:10100000032105F11B00015507E0002105F11B003C
:10101000015502E04FF0010800BF00BF641C2878B2
:10102000A0423FF617AF284600F014F8804640462D
:1010300010B0BDE8F0810000340001203D00012027
:101040003C00012090140120A4140120380001204C
:101050003A00012038B5044600200090002569467A
:10106000174800780EF0F4FB0098182816D005DC1D
:1010700058B110280CD014281CD10CE01C2810D01A
:10108000402811D0492815D111E00020A06213E0BA
:101090000120A06210E00220A0620DE00320A06207
:1010A0000AE00420A06207E00520A06204E0062018
:1010B000A06201E0012500BF00BF284638BD000046
:1010C0003D00012070B504460D46002610480480FE
:1010D0001048058010480168702088470E48416814
:1010E0007020884751280FD10B480C4908607020A8
:1010F0000B49087008200B49087008480068C1684F
:1011000007480078884700E00326304670BD00009D
:10111000380001203A0001200400012034000120A1
:101120003D0001203C00012010B500BF00BF00BF02
:1011300000BF00BFBFF34F8F00BF00BF00BF00BFA5
:1011400000BF00BFBFF36F8F00BF00BF00BF002014
:101150000D4908600D48006840F400300B490860F4
:1011600000BF00BF00BFBFF34F8F00BF00BF00BF75
:1011700000BF00BF00BFBFF36F8F00BF00BF00BF45
:1011800000BF07F00DFD10BD50EF00E014ED00E0D2
:10119000022002490968886070470000285B01202E
:1011A00000BFFEE730B5024600230024086801288E
:1011B00016D013686FF30E03D1E901052843CD68FB
:1011C00028430D6928434D6928438D692843CD691B
:1011D00028430D6A28434D6A28430343136019E0EE
:1011E00013686FF30E03D1E9070528434D6A2843BE
:1011F000034354686FF30E04D1E901052843CD6819
:1012000028430D6928434D6928438D6928430443C9
:1012100013605460002030BD0246506940EA41002E
:10122000506100207047F8B506460C461546002070
:1012300000900027D4E900010843A168491E40EA54
:101240004110E16840EA412000900098306104F0CC
:101250009FF807460BE0681C38B125B104F098F8F8
:10126000C01BA84201D90320F8BD0120FCE7B069EA
:1012700000F020000028EED100BFF5E770B503466E
:10128000154600220024012D1FD09A6802F07042FA
:101290000868401E4E68761E40EA06168868401EA2
:1012A00046EA0026C868401E46EA0036088A401E04
:1012B00046EA0046888A401E46EA0056087E401EDE
:1012C00046EA006002439A6022E0DA6802F0704267
:1012D0000868401E4E68761E40EA06168868401E62
:1012E00046EA0026088A401E46EA0046087E401E5E
:1012F00046EA006002439C6804F07044C868401EDF
:101300000603888A401E46EA00500443DA609C6067
:10131000002070BD10B5002001F052FC6FF07F403E
:1013200001F059FC012001F0D9FC002001F0E4FC9F
:10133000002001F0F1FC002001F05EFC0448006890
:1013400001F066FCBDE81040002001F099BC0000EF
:1013500034010120014AC2E900017047E400012084
:10136000014AC2E900017047EC000120014AC2E9CC
:1013700000017047F4000120014AC2E900017047F2
:10138000B00101202DE9F04FDFF828B191B04FF006
:10139000FF35DBF80030B3F922100691DE69B3F9AE
:1013A0002490F469A189814206D8E289824203D35C
:1013B000471AD4F8008012E0D4E9018100296FD0E7
:1013C0000A8882426CD84D88854269D3801A82B2DD
:1013D000486800EB8200B0F90070B0F90250781C48
:1013E0005ED0307EA17C10FB01FA217CCDE90701A3
:1013F000B3F92A60304606F071FEC0B20E90DBF8F9
:10140000000007FB0A81A37C826B0127CDE904124F
:10141000CDE90273C069089AC17E807ECDE90001E2
:10142000DDE90603494606F093F9681C18D046F03A
:10143000020006F053FEDBF80000A37C05FB0A81E6
:10144000826BCDE90273CDE90412C069089AC17EAE
:10145000807ECDE90001DDE90603494606F078F912
:10146000DBF800005D46C069417E007E814214D9F0
:10147000022E12D086F0040006F030FE2868C06903
:10148000027EC37E12FB0391437E857E089A0698F6
:101490004B4412FB050206F0E7FA0E9806F01EFE1A
:1014A000DBF80000627C418C1144418411B0BDE83E
:1014B000F08F00003801012004480068C069C0694D
:1014C00009B1027C0A60407C7047000038010120AD
:1014D000022008807047C06982898A4202D8C28986
:1014E0008A4210D2806880B102888A420DD843882F
:1014F0008B420AD3406800EB8100A0EB8200B0F978
:101500000000002801DB0120704700207047000028
:101510002DE9F043304C034687B020681946B0F9F6
:101520002A60C069C06900F086F8002850D0416880
:101530000088181A01EBC0053046AF7806F0CEFDE2
:10154000814620686A680123816BCDE90237CDE9C5
:101550000421C169CB7E8A7ECDE900230B7EB0F9E0
:1015600024102A78B0F9220006F0F2F82068C06949
:10157000417E027E91421FD9C07E11FB00F812FB12
:1015800000F7022E18D000F0EFFC064600F0BAFC7F
:1015900001F021FB21682A78CB69B1F92200DB7EBA
:1015A00012FB0302B1F9241001EB0803394406F0E1
:1015B0005BFA304601F00FFB484606F08FFD2068CD
:1015C0006A78C369B0F922109B7E12FB0311418433
:1015D00007B0BDE8F08300003801012030B50F4CA2
:1015E00005460B4620682946C069C06900F023F80B
:1015F000002812D04168008824682A1A0120E46972
:1016000000EBC200085CA47E10FB04F0002B04D0A9
:1016100011F8321011FB04F1196030BD38010120BE
:1016200001200880704700B5C06900F004F8002868
:1016300000D0012000BD06E002888A4202D842881C
:101640008A4202D280680028F6D1704770B5002522
:10165000124C19E020691249C5EB051600EBC600D3
:1016600070220968001DFFF754F82069002140F836
:10167000361000EBC60000F10C018161011D0A1D4E
:10168000C0E90F126D1C4164A0688542E2DB00F0E6
:1016900017FDBDE8704001F00FBE0000E001012021
:1016A0003801012070B50F490D480860084602F066
:1016B00095FB0C4C143CA068C0EB0010C5002846FC
:1016C00000F06AF82A460021206102F08FFB4FF0FB
:1016D000FF30206001F042FEBDE870400BF0A2BD7B
:1016E00091E00008F401012010B5040009D000F0D9
:1016F000E7FC204608F00EFF044601F0DDFD204621
:1017000010BD002010BD38B5054600F0D9FC2846B4
:10171000FFF7EAFF040009D000F0BEF82A460021D6
:10172000009002F063FB684600F0E6F801F0C4FDAB
:10173000204638BD024A106021F003005060704717
:101740005C5C012010B5040016D000F0B9FC0B4819
:10175000406B10F8341059B1022909D2042101EB71
:10176000C4014158486808F08DFE20460CF07AFD0F
:10177000BDE8104001F0A0BD10BD00009C5B012041
:10178000002805D0034AD16B016001B14860D063E5
:10179000704700009C5B01202DE9F04104460BF0EE
:1017A0009BFF2848E41C24F00305016C2D1DA94271
:1017B00000D90D46C46B13E054F8042CAA420ED194
:1017C00084B1216809B162684A60616809B1226820
:1017D0000A60C26BA24231D12168C1632EE0246845
:1017E000002CE9D18046816BC0680F1857F8040CB3
:1017F0003E1A306838B100200CF09EFD57F8040CFA
:101800003E1A3068D0B97068A84217DB3044441BD8
:101810003046241D0CF048FDD8F80C10491BC8F8C0
:101820000C10D8F814102944C8F814107068401B24
:1018300002D0314608F026FE44F8045C2046BDE89C
:10184000F08100009C5B012010B500240BF044FFE8
:101850000C490F2001EBC002526C1AB101EBC00021
:10186000406C08E0401EF5D508E04168A14200D96F
:101870000C46806810B180680028F6D1A4F10C00F5
:1018800010BD00009C5B012002488169491C8161F8
:10189000704700009C5B01200549CA69521CCA615F
:1018A000496B01EBC0010A78521C0A7000F03CB889
:1018B0009C5B012010B500F003FCFFF7C5FF64221C
:1018C0000849B0F5800F04D990FBF2F4086A44434C
:1018D00003E0096A4143B1FBF2F401F0EDFC20465C
:1018E00010BD00009C5B012002488169491E816196
:1018F000704700009C5B01200A4902684B6B52F85C
:10190000082C03EBC2021378022B03D3CB690BB173
:101910005B1ECB611178491E1170002101600846E1
:10192000704700009C5B0120002806D00349042278
:1019300002EBC000496B0858083070479C5B0120DF
:1019400070B514460D46064600F0BAFB204600F07E
:1019500017FB0300174804EB840109D050F821005D
:1019600041688068711A2A1A184601F079F91CE05A
:1019700000EB8104A268B24201D0012200E0002203
:10198000E368AB4201D0012300E000231A430CD0EE
:10199000236943B150F82100816840686A1A311AFE
:1019A000184601F0C9F8C4E90265BDE8704001F0CD
:1019B00083BC0000205E012010B5C2B2CBB2D21AA7
:1019C00000D5524293B25B43C0F30722C1F3072410
:1019D000121B00D55242000C92B2A0EB114002FB48
:1019E000023200B2002801DA404200B280B200FBAD
:1019F000002010BD10B50021084600F033FB43F66F
:101A0000FF725042BDE8104013460146AFF300801C
:101A10002DE9FC411C4615460E46074600F050FBDA
:101A2000042006F05BFB80461248C068C16C006D64
:101A30000F4406440D440444ADF80070ADF8045062
:101A4000ADF80260ADF80640684608F0E1F807E03E
:101A500023462A463146384606F006F808F09AF83A
:101A60000028F5D1404606F039FB01F025FCBDE821
:101A7000FC8100002C0101202DE9F0411C46164696
:101A80000D460746022B02DB0020BDE8F0811C203A
:101A9000FFF782FE0028F8D00DB105610AE0094A7F
:101AA00052F8241009B905E011460A68002AFBD152
:101AB0000969016184618682002101604160C0E999
:101AC0000217E2E75001012070B51D46FFF7D4FF71
:101AD000040009D000F00EF8E068006820B903485F
:101AE000006800EB85008465204670BD3801012048
:101AF000FFF746BE70B590B38269022A30DA1E4CF9
:101B000054F8221019B944F8220032E019464B6803
:101B1000002BFBD106E0CB68C5681B682D68AB4283
:101B200003DD09680029F6D11AE0C1B1CB68C668A7
:101B30001B683668B3420CD1838A012B05D008E0BC
:101B40001946DB681B68AB4203DB0B68002BF7D13F
:101B500029B14B6833B118604A68426004E0FFE77E
:101B6000012070BD44F822004860884200D1002165
:101B70000160002070BD00005001012010B503E09D
:101B80000468FFF7B7FF20460028F9D110BD0DF01B
:101B900073B900002DE9F0410026DFF834800D4FC5
:101BA000354600BF58F8254009E0E0680068385C19
:101BB00020B120460DF060F9266026462468002CEE
:101BC000F3D16D1C022DEDDB3046BDE8F081000045
:101BD00050010120A4110108022801DB00207047F8
:101BE000054951F8200004E0C16809680029F6D0D1
:101BF00000680028F8D17047500101202DE9F0411C
:101C0000044601F081FB06191EE000BF00F0FEF85B
:101C1000052F00DD052700F053FA11480568FFF78E
:101C200033FE2C0017D000BF01F046FB641EFBD131
:101C3000384601F059FB1DB100F042FA6D1EFBD190
:101C4000FFF752FE01F038FB01F05EFB371A002F60
:101C5000DCDCBDE8F081384601F046FBF0E700002F
:101C6000EC0101202DE9FC4706005FD000F028FAC6
:101C700000F09CF93C4C81462068B0F9228000F0CD
:101C8000C3F9216807468A8CD01B888441E000BFD5
:101C900047F6FF71304601F05FFF8246014630464D
:101CA00001F030FF2168054691F82C0000F0030098
:101CB000012841D002283BD000204A8C101A4884C9
:101CC000ADF800006A1E1044ADF80400888CADF831
:101CD0000200A9F101010844ADF806006A46514628
:101CE000304601F0DFFC2168BDF8020088845146CF
:101CF000304601F0CFF9064430780A281ED00D286E
:101D00001CD0BDF80000216828444884307818B100
:101D1000761C30780028BBD12068818C39448184BE
:101D2000818D21F00301818501F0C6FABDE8FC87B1
:101D300005EBD5704010C0E72846BEE7206890F854
:101D40002C1001F0030101290BD0022909D0018CCC
:101D5000418431780A29D9D1828C02EB090181842E
:101D6000D4E7A0F82280F4E73801012070B51446CA
:101D70000D46064600F0A4F90548006845848484B1
:101D80003046FFF76FFFBDE8704001F095BA0000E4
:101D9000380101202DE9F04107460A4815460E4654
:101DA0000068B0F92C0040F0020000F0A5FF0446E6
:101DB0002A4631463846FFF7D9FF2046BDE8F041B4
:101DC00000F09ABF380101202DE9F0411C4615466C
:101DD0000E46074600F074F90B480068C16C006DB0
:101DE0000D440444002007F013FF07E023462A4671
:101DF000314638460AF082FA07F0CCFE0028F5D1C9
:101E0000BDE8F04101F058BA3801012010B50024B6
:101E100000E0012400F004F80028FAD1204610BDAB
:101E2000094810B50068002410B1804700B10124B2
:101E300007F080F900B101240448006810B1804720
:101E400000B10124204610BD5C0101205801012091
:101E500008B50B46002805D0009281888268C088AA
:101E600000F001F808BD10B50828029C30D008DC4D
:101E700004FB01F401280AD0022813D0042804D15D
:101E80001CE0102828D020282CD0002010BD04EB06
:101E9000D30003F00701105CC1F10701C84000F056
:101EA000010010BD04EB93000621105C01EA430120
:101EB000C1F10601C84000F0030010BD04EB53005F
:101EC000D907105C02D000F00F0010BD000910BD52
:101ED00004FB0130105C10BD481004FB003032F8E8
:101EE000100010BD881004FB003052F8200010BD17
:101EF000034951F82000C1688A6A08211047000090
:101F00005001012010B500F0DBF805F0DDFD05F013
:101F10008BFE044601F0D0F9204610BD10B50446F2
:101F200000F0CEF8054800210068C06942682046EC
:101F30009047044601F0C0F9204610BD3801012049
:101F400070B50C46054600F0BBF80648214600680F
:101F5000C069426828469047044601F0ADF9204622
:101F600070BD00003801012010B500F0A9F805F09F
:101F7000B3FD05F059FE044601F09EF9204610BD60
:101F80000021022802D2024951F820100846704769
:101F9000A001012010B500F093F803480068047C0C
:101FA00001F08AF9204610BD3801012010B500F07B
:101FB00087F804480068C069447E01F07DF9204636
:101FC00010BD00003801012070B514460D460646CC
:101FD00000F076F822462946304605F0C3FD10B1E0
:101FE000002028602060BDE8704001F065B970B540
:101FF0000C46054600F064F82146284601F0C8FD6D
:10200000BDE8704001F058B910B5002400F058F850
:102010000B48006890F82C1001F00C01042904D042
:10202000082906D00C2907D103E0C069047E641E8C
:1020300002E0C069007E440801F03EF9204610BD70
:1020400038010120024951F82000006900687047FA
:1020500050010120024951F8200000694068704792
:102060005001012070B50D46044600F029F82046C5
:102070000BF0F6F8044628460BF0FAF8044301F09A
:102080001BF9204670BD000010B501F03BFA0A496B
:102090002E20087001F03EF908480BF0E5FA05F033
:1020A00034FE04460021084600F0F8FD07F086FAE9
:1020B000FFF7CCFA204610BD2C010120685C0120FE
:1020C00070B5184CE06820B101F019F961688842D8
:1020D00004D001F04FF901F012F96060E068401C93
:1020E000E06001281CD10BF09DF805462068854270
:1020F00016D0002813DBFFF74DFD01462068C0EB2A
:102100000012206900EBC2025167C5EB0511064AB7
:1021100000EBC100011D1160406FFFF72FFD25602E
:1021200070BD0000E0010120380101201CB5040051
:1021300004D10E480068046E002C16D0FFF7C0FFD3
:102140002046FFF7A9FB009044696846FFF7D4FBDF
:102150004CB12046FFF7A0FB019081688968884751
:1021600001A8FFF7C9FB01F0A7F81CBD3801012049
:1021700001490A4600F002B801F0FFFF2DE9F043E3
:1021800087B015460C465FEA000846D0FFF798FF77
:10219000002000F031FD814621480068066E40466F
:1021A000FFF77AFB00900068806900F0EDFC0746BD
:1021B00040F6FF70C44204D10098B0F90440B0F971
:1021C00006500098611E0289ADF804401144ADF834
:1021D00008104189681E0844ADF80650ADF80A00A1
:1021E00006F0F4FD6846FFF787FB01A807F010FD35
:1021F00006E02A462146404600F082FB07F0CAFC72
:102200000028F6D1384600F0BFFC304600F08AF9CD
:10221000484600F0F1FC01F04FF807B0BDE8F0834C
:10222000380101202DE9FE4F984691468A468346A3
:1022300000270C9EFFF744FF184819490068407CAE
:1022400051F82040E1680968042903D02468002C73
:10225000F8D100E01CB9FFF7BFFC04001BD0E06818
:102260000121C26A20469047050011D02469A06868
:102270008047401C02D10B4C46F001060096CDE988
:10228000015443464A465146584600F0DFF9074696
:1022900001F012F83846BDE8FE8F00003801012039
:1022A00050010120AC58010838B504001CD0FFF7DC
:1022B00007FF0E480068006EA04201D100F056FCF6
:1022C0002046FFF7E9FA0090406908B100F0DDFF11
:1022D00000980068FFF70CFC6846FFF70DFB2046EE
:1022E000FFF730FA00F0E8FF38BD000038010120A8
:1022F0002DE9FF4FDFF83891074683B0D9F8000089
:102300009A468B46447C4B4800570128204606DD00
:1023100005F052FC0546204605F05AFC05E005F0A4
:102320003AFC0546204605F03CFC04461FB302A9D2
:1023300001A8FFF75CFEB7F90000002800DA0020D2
:10234000B7F902608046002E00DA00260198411994
:10235000B7F90400491E0BF008FE05460298011962
:10236000B7F90600491E0BF000FEA5EB0802841B1E
:10237000521C641C03E04FF0000846462A46BAF19E
:10238000000F01D1C4F1000A002A4FDD002C4DDD01
:1023900010980090534631464046FFF743FF5FEAEE
:1023A000000A10D000F078F80746A04206D0D9F80D
:1023B0000000806C10B1322107F0A2FF504600F0FF
:1023C000B1F8002521E0594605988847012007B05B
:1023D000BDE8F08F611BB94202DA504600F086F882
:1023E0003DB172194146504600F0C4F85046FFF71F
:1023F0009DFE5946059888470F48016809B100209D
:1024000088475046FFF7B4FE3D44A542E2DB504604
:10241000FFF74AFF002000F085F8A74206D0D9F860
:102420000000806C10B1332107F06AFF0020CEE776
:102430003801012070010120A002012038B50500FB
:102440004FF0000411D0FFF73BFE2846FFF724FAB7
:102450000090006800698068804706F0C5F904466E
:102460006846FFF749FA00F027FF204638BD38B527
:1024700004000ED0FFF724FE2046FFF70DFA00F10E
:10248000180400906846FFF737FA00F015FF204661
:1024900038BD002038BD000038B504460025FFF7E0
:1024A0000FFE1CB908480068046E44B12046FFF7CF
:1024B000F3F90090B0F90A506846FFF71DFA00F0F2
:1024C000FBFE284638BD00003801012070B50546E6
:1024D0000024284608F05CFB641C18B1BDE870407D
:1024E00000F07AB8052CF4DB70BD000038B50C465E
:1024F000050004D10A480068056E002D0FD0FFF7D3
:10250000DFFD2846FFF7C8F90090B0F90A10A14294
:1025100000DD44816846FFF7EFF900F0CDFE38BDDD
:1025200038010120F8B50546FFF7CAFD104E3068A6
:10253000046ECDB10CB100F019FB06F03BFD28464E
:10254000FFF7AAF9009031680D660068FFF7D2FA2C
:102550006846FFF7D1F905F033FE05F089FD00BFAD
:1025600000F0AAFE2046F8BD00F000FBF8E70000EE
:10257000380101207CB515460E46040004D11548EB
:102580000068046E002C24D0FFF79AFD2046FFF768
:1025900083F92DB20090C58034B2848005F068FDC7
:1025A0000098406980B1FFF777F9009A0190B2F97D
:1025B00008108180B2F90A20C28011B10AB10480EA
:1025C000458001A8FFF798F96846FFF795F900F0F4
:1025D00073FE7CBD3801012001490A4600F002B8B3
:1025E00001F0FFFF7FB515460C4606002DD0FFF722
:1025F00067FD3046FFF750F940F6FF710190CC427D
:1026000003D1B0F90440B0F906500289611E1144AB
:10261000ADF80840ADF80C104189681E0844ADF8CB
:102620000E00ADF80A5001A8FFF766F902A807F0FE
:10263000EFFA06E02A462146304600F049F907F055
:10264000A9FA0028F6D100F037FE7FBD2DE9FF4F33
:10265000DFF8E8B083B01C46DBF80010DDE910605D
:1026600092464FF000084B7C42461299FFF704FA5D
:10267000050060D028698068804706F0B5F881467B
:102680000AFB09F1C91DCF08FFF714F9F10705D1BD
:10269000C11700EB9170801000EB4000002C09DCAA
:1026A0001FB11838B0FBF7F000E000206442A042F0
:1026B00000DC0446F00707D10090DDE90301234662
:1026C000524600F067FD8046002C03DC2846FFF7E9
:1026D0000FFA30E004FB07F01830F10702D0FFF7E3
:1026E00003F801E0FFF70FF806001CD0FFF7D4F85D
:1026F00001900560039981800499C180A0F808A029
:102700004481C0F81480C0E9037901A8FFF7F4F808
:102710001298AE602861DBF80000407CA86130466A
:1027200007B0BDE8F08F2846FFF7E2F95FEA08003E
:1027300001D0FFF707F80020F2E700003801012080
:102740002DE9F74F8EB0144689460E98FFF7A4F88E
:102750000990B0F908B0B0F90A60006800694068F3
:102760000C9009A8FFF7C8F8564D574F2868407CD1
:1027700057F82000C1688A6A0821904707901828F6
:1027800001D3202007902868407C57F8200000697A
:10279000069003C80B904D48814201D0012000E013
:1027A00000200A90002000F0F7FD00287DD1286865
:1027B00009EB0B01B0F90C20891A491E002902DD32
:1027C000ABEB010500E05D46B0F90810494505DDB9
:1027D000A1EB090189446D1A089101E000210891DB
:1027E000002D6BDDB0F90E20A119891A491E0029B0
:1027F00002DDA6EB010800E0B046B0F90A00A042F5
:1028000004DD061B3444A8EB060800E00026B8F1FE
:10281000000F53DD089801900DA95F46DDF830A048
:102820000E980091FFF723FE774300EB8701019894
:102830002B4601EB800200994846CDE900A12146D4
:1028400000F088FF0090002838D00A98E8B1DDE950
:1028500006322946009800F04FFEB0B90698009F56
:10286000DA46D0F810C0BCF1000F05D004235A4658
:1028700039463846E04708E00B993868884701C771
:10288000AAF101005FEA000AF6D100990020079A38
:10289000CDE90301059001200090CDE90102214618
:1028A0000346641C2A46484600E007E004F050FF57
:1028B000A8F10100761C5FEA0008ABD111B0BDE8B9
:1028C000F08F00003801012050010120AB7C00088E
:1028D000F8B515460E460746FEF7DEFF0090006885
:1028E0001621C068426A0020904704466846FFF7F8
:1028F00003F8002C03D02A4631463846A047F8BDDD
:10290000F8B516460F46050012D0FEF7C5FF009039
:1029100044696846FEF7F0FF2846FFF78FFD03463F
:10292000082800DD2CB13246394628460CF0C4FA9E
:10293000F8BD3246394628460CF05EFCF8BD000072
:10294000094A126802B10020074A1C3252F82030AE
:10295000002B07DBA2F1180343F820104FF0FF31E2
:1029600042F82010704700007C01012010B50028BB
:1029700021D009B30AB3B1F90040B2F900309C424A
:1029800000DA23460380B1F90240B2F902309C42DA
:1029900000DA23464380B1F90440B2F904309C4286
:1029A00000DD23468380B1F90610B2F9062091427A
:1029B00000DC1146C18010BD11460A6802604968FA
:1029C000416010BD00280BD003880B44038083882E
:1029D00019448180418811444180C1881144C180DB
:1029E0007047000070B50E4D0446D5E900018842DD
:1029F00009D10C49884201D13C3000E00C3807C8AD
:102A000084E8070006E090E80E0084E80E000AF073
:102A100045FC2860207A002800D0012070BD00000D
:102A200088020120905D01200448D0E90010814215
:102A300001D101207047002070470000880201206A
:102A4000054A10B5034911600CF044F9BDE8104087
:102A500000F072B9459200086001012070B50025B0
:102A6000FFF72EFB094CD4E9002082420AD0D2E9BC
:102A7000005610460AF01CFC20603146284606F03D
:102A80009DFE012500F018FC284670BD780201204B
:102A90002DE9FC41154DDDE908742D68B5F9086094
:102AA000864200DD3046B5F90C60964200DA3246C7
:102AB000824219DBB5F90A608E4200DD3146B5F974
:102AC0000E509D4200DA2B468B420DDB00E02C4677
:102AD000E5682D6825B1042D02D02568002DF6D1BA
:102AE000CDE9007405F0AEF9BDE8FC8138010120A4
:102AF000B0F90220B1F906309A4213DCB1F9022094
:102B0000B0F906309A420DDCB0F90020B1F904307A
:102B10009A4207DCB1F90010B0F90400814201DCEF
:102B2000012070470020704701460248702200686B
:102B3000FDF7EFBD3801012070B515460E460400C3
:102B40000AD0FFF7BDFA2A46314620460BF024FE94
:102B5000BDE8704000F0B0BB70BD000002497022BB
:102B60000968FDF7D6BD00003801012010B5FFF758
:102B7000A7FA05F033FA05F023FB06F027F9BDE8C4
:102B8000104000F099BB000070B50B4D044628685A
:102B9000467CFFF795FA022C09D22046FFF71CF875
:102BA00028B128684474FFF7E1FF0448046000F08E
:102BB00083FB304670BD000038010120080201206F
:102BC00010B50446FFF77CFA204605F027FABDE869
:102BD000104000F071BB10B50446FFF771FA2046B3
:102BE00005F054FABDE8104000F066BB014988606A
:102BF000704700002C01012010B50446FFF760FA71
:102C0000204605F06BFA044600F056FB204610BD46
:102C100070B50446FFF754FA04480068C56904B16A
:102C2000C46100F049FB284670BD00003801012056
:102C30000149C86170470000FC000120014948605B
:102C4000704700002C010120014908607047000016
:102C5000FC0001200149486070470000FC00012091
:102C600070B514460D460646FFF72AFA2246294655
:102C7000304605F04FFA044600F01EFB204670BDBA
:102C800070B50546FFF71CFA03480068847E857618
:102C900000F012FB204670BD3801012070B50C46D3
:102CA0000546FFF70DFA09482246058008480480CA
:102CB00008480068417C084850F82100C1680B6A48
:102CC00029469847BDE8704000F0F6BA7801012027
:102CD0007A010120380101205001012070B505461C
:102CE000FFF7EEF903480068047E057600F0E4FA89
:102CF000204670BD3801012070B50446FFF7E0F9A9
:102D000004480068B0F92C50848500F0D5FA2846B4
:102D100070BD00003801012070B50446FFF7D0F9FE
:102D200004480068B0F92A50448500F0C5FA2846E6
:102D300070BD00003801012002480068002800D062
:102D4000004770479402012002498A6802B98860EE
:102D5000FFF7F2BF7802012010B504000ED0FFF794
:102D6000AFF920460BF0BAFA20460CF05DF8204689
:102D7000FEF7E8FCBDE8104000F09EBA10BD38B583
:102D80000C46050011D0FFF79BF92846FEF784FD9D
:102D900000908089204201D0012400E00024684690
:102DA000FEF7AAFD00F088FA00E00124204638BDB5
:102DB00038B50546002028600648046844B120461E
:102DC000FEF76AFD0090006928606846FEF794FDF2
:102DD000204638BDBC02012038B504004FF0000089
:102DE0000D46086011D02046FEF756FD009084681D
:102DF00044B16846FEF780FD2046FEF74DFD009089
:102E0000006928606846FEF777FD204638BD00005F
:102E10002DE9F04706460C4617461D46DDF8208092
:102E2000BC4201D0454502D10120BDE8F08716B172
:102E3000012E18D10BE01B48007800F0040010B1FF
:102E400004F0BEFE01E004F0AFFE81460DE015483F
:102E5000007800F0040010B104F0A6FE01E004F0D8
:102E6000AFFE814601E00120DFE700BF6042A8EB32
:102E700005014843391B90FBF1F028440A4941F809
:102E80003600A9F10100001BA8EB05014843391BDE
:102E900090FBF1F02844044901EBC6014860002092
:102EA000C3E700007C000120880001202DE9FC47D9
:102EB000684605F05FFF9DF80400002879D043487C
:102EC000007800F0040040B1BDF9020040490860FC
:102ED000BDF900003F49086007E0BDF900003C492A
:102EE0000860BDF902003B4908603B48006838496A
:102EF00009680C1A38488068364909680D1A334841
:102F0000007800F0040030B104F05AFE074604F0E7
:102F10004BFE064605E004F047FE074604F050FE6F
:102F20000646781E44432C4840682B490968401ADD
:102F300094FBF0F4701E45432748C0682649896811
:102F4000401A95FBF0F525480078012824D1244843
:102F50000068844203DD22480068201A02E020480D
:102F60000068001B80461F480068854203DD1D483D
:102F70000068281A02E01B480068401B814608EBE5
:102F80000900022820DD2946204600F037F81448C1
:102F900004601448056017E02946204600F02EF82A
:102FA0000F4804600F48056001200C4908700BE0D1
:102FB000FFE70A480078012806D100200749087079
:102FC000411E084600F01AF8BDE8FC877C0001208D
:102FD0008000012084000120880001209800012049
:102FE0009C000120A000012010B505F0E1FE10BDFD
:102FF00001490860704700007C000120074A002852
:1030000006DB002904DB01231372C2E9000101E0A1
:1030100000201072014800F003B80000D85C0120C5
:1030200010B504460C220849FDF7C0FA002809D063
:10303000054894E80E0080E80E002046BDE81040E8
:10304000FFF7FEBC10BD0000145D012010B5044662
:10305000FFF72CFF10BD000002490968491C014A16
:1030600011607047680001202DE9F041084E0446C8
:103070000568306801682846884707463068416817
:1030800028468847284420603846BDE8F081000083
:103090003C0101202DE9F0410C4606460025064F73
:1030A00005E0386841683046884706440544641E98
:1030B000F7D22846BDE8F0813C0101202DE9F0411E
:1030C0001E46069C1746884605463A46A8687F1C59
:1030D0003346D0F804C041462846E047641EF4D188
:1030E000BDE8F08170B5B0F90040091BB0F90440AB
:1030F0008C422CDD00F11404B0F902500069521B1F
:1031000002FB0040CA1800EBE104521ED010B0EBE5
:10311000E10501F007034FF0FF0102F0070221FA79
:1031200003F0C2F1070201FA02F1CEB221780FD00A
:1031300001436D1E04F8011B002D05DDFF22294609
:103140002046FDF718FB2C4420783043207070BDDA
:1031500030400143217070BD10B5B0F90030B0F9B6
:103160000240C91A00F114030069121B02FB00306F
:1031700000EBE10001F0070302788021D9400A4307
:10318000027010BDB0F90610026951431430FDF70A
:10319000FABA00002DE9F843804602F10F00001151
:1031A000470003FB07F01C46154689461430FEF71E
:1031B000AAFA060018D0FEF783FF3046FEF76CFB34
:1031C0000090A0F80080A0F802908580C480074994
:1031D00081600121818107616846FEF78DFB00F067
:1031E0006BF83046BDE8F8830020FBE7C4580108BF
:1031F00070B5B0F90660B0F904400B6800F1140531
:1032000096421BDD0069A34202FB005000EBE30283
:1032100014DA641EE010A0EBE30512F8010B03F0D2
:103220000704A040C4B206E045B1083312F8014BD0
:1032300023F007036D1E002CF6D004E0002070BDC3
:103240006006040E5B1C2006FAD5FF2C07D018463A
:1032500002E06406240E401C6606FAD400E0D81D85
:10326000C443640705D006E012F8014BFF2C09D1D6
:1032700008306D1EF8D5C01A401C0B6070BD620688
:10328000140E401C2206FAD4F5E738B50546FEF7C1
:1032900017FF2846FEF700FB00908189491E0CB2FB
:1032A00084816846FEF728FB14B92846FEF74AFADF
:1032B00000F002F838BD00000348C168491EC16033
:1032C00001D100F061B87047E001012010B54FF462
:1032D00000110348FEF72EFA0248FFF787FC10BDE5
:1032E000000020C0DC18010810B5044620460CF090
:1032F000D3FC10BD10B501200CF0CEFC10BD10B5F4
:103300000CF07EFD10BD0000014800687047000011
:103310006800012010B5002201210C480CF082FD4C
:103320000B49086001210A4800680CF095FDFFF781
:103330005BFE0022012107480CF074FD064908607D
:103340001421054800680CF087FD10BDF01001083D
:103350006C000120F81001087000012010B503482E
:103360000CF0FAFC0249086010BD000000110108D1
:103370007400012010B54FF0FF31024800680CF0D6
:103380000FFD10BD7400012010B5024800680CF05C
:10339000FBFC10BD740001200EB508B102AA00E0CC
:1033A0000022002301A9684600F05EFB0EBD00006C
:1033B000074910B50C7818B101200870801E03E091
:1033C000002008706FF07F4004F080F9204610BDA7
:1033D0007201012010B5082A0EDC0346012A18D01C
:1033E000022A56D0042A76D010F8042B03F8012BB9
:1033F000491EF9D1012010BD102A08DC4FEA000255
:1034000030F8043B22F8023B491EF9D1F2E70020D4
:1034100010BD10F8042BD207120E491E34D010F83C
:10342000044B491E04F0010442EA84122CD010F827
:10343000044B491E04F0010442EA441224D010F85F
:10344000044B491E04F0010442EA04121CD010F897
:10345000044B491E04F0010442EAC40214D010F8DF
:10346000044B491E04F0010442EA84020CD010F817
:10347000044B491E04F0010442EA440204D010F84F
:10348000044B04F00104224303F8012B0029C0D1AE
:10349000B0E710F8042B9207120E491E15D010F851
:1034A000044B491E04F0030442EA04120DD010F844
:1034B000044B491E04F0030442EA840205D010F8CC
:1034C000044B04F003042243491E03F8012B002996
:1034D000DFD18FE7FFE710F8042B1207120E491E09
:1034E00005D010F8044B04F00F042243491E03F8E2
:1034F000012B0029EFD17DE738B50024009400F0BE
:103500001DF838BD0B4810B58169002910D1012183
:103510008161FFF7DBFEFEF7C5F804F063FE0549A5
:1035200005481C310860BDE81040084600F056BC54
:1035300010BD00002C01012051E000082DE9F041F0
:103540000D460699044601B901461F68082A09DCA0
:103550000E46012A1AD0022A5BD0042A7DD0082AFE
:1035600013D18DE0102A07DCD3F810C00E46BCF151
:10357000000F04D0022389E00020BDE8F08101CCD7
:10358000B84726F8020B6D1EF9D189E001CCB84787
:10359000C0074FEA10686D1E36D001CCB84748EA24
:1035A000801000F0FF086D1E2ED001CCB84748EA0D
:1035B000401000F0FF086D1E26D001CCB84748EA45
:1035C000001000F0FF086D1E1ED001CCB84748EA7D
:1035D000C00000F0FF086D1E16D001CCB84748EAC5
:1035E000800000F0FF086D1E0ED001CCB84748EAFD
:1035F000400000F0FF086D1E06D001CCB84740EA3D
:10360000080000F0FF086D1E06F8018B002DBDD1EB
:1036100046E001CCB84780074FEA10686D1E16D00F
:1036200001CCB84748EA001000F0FF086D1E0ED02C
:1036300001CCB84748EA800000F0FF086D1E06D0B4
:1036400001CCB84740EA080000F0FF086D1E06F8FC
:10365000018B002DDDD123E0FFE701CCB847000747
:103660004FEA10686D1E06D001CCB84740EA08004A
:1036700000F0FF086D1E06F8018B002DEDD10FE064
:10368000D3F810C0BCF1000F04D001232A46204615
:10369000E04705E001CCB84706F8010B6D1EF9D1F3
:1036A00001206AE77CB5064628480D46006868B1E7
:1036B000002006F0ADFA06E06A462946304607F0DB
:1036C000D5FC06F067FA0028F6D17CBD10680090A2
:1036D0001F4C506801902268BDF8000032F84C1F62
:1036E0000844ADF80000BDF8020091880844ADF828
:1036F0000200BDF8040011880844ADF80400BDF8CC
:10370000060091880844ADF80600684606F080FA85
:103710000EE000BF2068BDF800106A464184BDF885
:10372000021081842946304607F0A0FC06F032FAE8
:103730000028EFD1206830F8221F428D891A0180BD
:103740004188C28D891A41807CBD0000740101202E
:10375000380101202DE9FF4F8DB00020DDF86CA06D
:10376000164600901D4604460246CAF8000008AB03
:1037700003A902A800F078F918B1002011B0BDE843
:10378000F08F0898854200DD0546614F0B95614931
:103790003868407C51F82010049109690691FEF7C1
:1037A000A7FB05903868407CFEF754FC5A498146D7
:1037B000884204D05949894501D0012000E0002009
:1037C0000A9001CE1A9988478346000E079077D059
:1037D000009870BB0D9800EB04084D480068B0F9E4
:1037E0000800404503DDA0EB0807804600E0002705
:1037F0000298049900EB840000EB8700CDE90001FA
:103800000B990D98421809920E9B40461946521E7C
:10381000FFF73EF901200090059818280ADA02986F
:10382000DDE9052300EB840000EB8700E91B00F0D5
:1038300079F812E00A9880B1029800EB840000EB5E
:1038400087070998A0EB080849463868884701C7E8
:10385000A8F101005FEA0008F6D13148C06980B3E1
:10386000DDE9020700EB840007EB8402CDE90202E8
:103870002B4C361F3046E4692B460299A047FF21A6
:103880003068B1EB106F02D10298006804E0029A30
:103890001268B1EB126F01D1039A1060029806F121
:1038A0000406001D02900398001D03906D1EE7D1D1
:1038B0000397DAF8000040F00101CAF8001020E098
:1038C00021E0FFE70798FF2811D0C0F1FF0202981E
:1038D00050F82410584600F027FA039941F82400C4
:1038E000DAF8000040F00101CAF8001005E0029883
:1038F000039950F8240041F82400641C6D1E7FF4E5
:1039000060AF03983AE7039941F824B0E8E7000074
:103910003801012050010120AB7C0008A97C00087F
:10392000FC0001202DE9F05F0C1E16DD5E680146EB
:1039300000EB8405082A12DC611E012A26D0022A27
:1039400047D0042A6AD0082A07D1071917F8010DB1
:10395000B04745F8040D641EF8D1BDE8F09F102A69
:10396000FBDC5F693FB12246BC46BDE8F04F022355
:103970005DF804EB604701EB440700BF37F8020D28
:10398000B04745F8040D641EF8D1E6E700EBE1000E
:1039900001F0070710F801A98146802020FA07F8F6
:1039A000B5F104050AEA0800C7F10701C840B047AD
:1039B00045F804093FB14FEA48604FEA10687F1E9E
:1039C000641EEFD1C9E719F801A907274FF00108D4
:1039D000F6E700EBA10001F0030710F801A981460A
:1039E0007900C02020FA01F84FF0060BB5F104056C
:1039F0000AEA0800ABEB4701C840B04745F80409A4
:103A00003FB14FEA88604FEA10687F1E641EEFD115
:103A1000A3E7032719F801A9B846F7E700EB61000F
:103A2000012710F801A9A7438146B900F02020FA28
:103A300001F84FF0040B2D1F0AEA0800ABEB8701D9
:103A4000C840B04745F804093FB14FEA08704FEA53
:103A500010687F1E641EEFD17FE719F801A90127C6
:103A60004FF00F08F6E700002DE9F047224C06461C
:103A70001F46A06990468946002540B90120A061F3
:103A800004F120011D480860084600F0A7F96069AC
:103A900030B91B480068606110B904F07FF86061BC
:103AA00007B138604EB1A06830B960698000FDF799
:103AB00073FEA06000B901253060B9F1000F0AD093
:103AC000E06830B960698000FDF766FEE06000B92B
:103AD0000125C9F80000B8F1000F0AD0206930B9FB
:103AE00060698000FDF758FE206100B90125C8F823
:103AF00000002846BDE8F087FC000120F5DF000843
:103B00006801012073B5124A01A900981268904714
:103B100000240090C8B10F4900250968C9694969A6
:103B200059B10A684AB1019990477CBD6846FFF7D0
:103B30009BFA0546FEF7F2F904440198401E0190F5
:103B4000F4D5284600F032F8044420467CBD00003D
:103B5000B80201203801012073B50D4600980024F9
:103B600090B10A490968C969496959B14A684AB1B5
:103B7000294690477CBD6846FFF776FA20B10A28AF
:103B800002D0641CAC42F6DB20467CBD380101202B
:103B9000044AB2F9002002600348B0F9000008604E
:103BA00070470000780101207A01012038B5002417
:103BB00069460094FEF7C4F90099814200DD0C1AB1
:103BC000204638BDB0F90030B1F90020934200DA48
:103BD0000280B0F90230B1F90220934200DA42804B
:103BE000B0F90430B1F90420934200DD8280B0F9CD
:103BF0000620B1F906108A4200DDC180704770B519
:103C0000B1F90040B2F900309C4200DD2346038048
:103C1000B1F90250B2F90240A54200DD2C464480C1
:103C2000B1F90460B2F90450AE4200DA354685803D
:103C3000B1F90610B2F90620914200DB1146C180AD
:103C40009D4201DBA14201DA002070BD012070BD60
:103C5000014602480068407C00F002B838010120AB
:103C60002DE9F843012604468946022857DADFF891
:103C7000B480080008F1040530D0012802D00229E0
:103C80004DD116E055F8240088B92046FDF7A4FF71
:103C9000009010B3C0680D21426A68469047020048
:103CA0003DD049460098904755F824000026401C16
:103CB00033E02046FDF790FF009070B1C0680D2101
:103CC000426A68469047040029D0D8F8000000B145
:103CD000804749460098A047002620E055F8240078
:103CE000012813D12046FDF777FF009070B1C0681E
:103CF0000D21426A68469047070007D0D8F80000B7
:103D000000B1804749460098B847002655F824007E
:103D100008B1012100E00021401A45F82400304696
:103D2000BDE8F8836402012070B5FF23B3EB116F87
:103D30002CD0C3B213FB02F500F47F4400F47F03E0
:103D400054435343000E10FB02F6C2F1FF00CAB207
:103D500012FB005201F47F4505FB004401F47F058E
:103D600005FB0033090E11FB0065C2F307204FF479
:103D70007F024FF47F4102EA132201EA14214FF03F
:103D80007F43084303EA05431043184370BD2DE900
:103D9000F04F0646DDE90CB915460C46002080467A
:103DA000584519D20B9F4FF0FF0A01CE08CCAAEB61
:103DB000106202FB09F2B2FBFAF1CAB21946FFF730
:103DC000B3FF20F07F4001C57F1EEED1099804EBC0
:103DD000800408F10100E2E7BDE8F08F02494A697A
:103DE00042604861704700002C01012010B502E0DC
:103DF00000F8011B521E0AB18307F9D1930818D0AD
:103E000001EB014402F0030204EB042406E010C0BD
:103E10001B1F10C040F8084B40F8044C042BF6DA86
:103E200001E010C05B1E002BFBD102E000F8011B7B
:103E3000521E002AFAD110BD18B50246002000908B
:103E400000BF92F83C00012801D1022018BD0120DA
:103E500082F83C0000BF0868092816D91068C068BD
:103E60000B780A3B03EB43040723A34098431368F2
:103E7000D8600B780A3B03EB4303886898401368CB
:103E8000DB6818431368D86013E0106800690B788A
:103E900003EB43040723A3409843136818610B788E
:103EA00003EB43038868984013681B691843136841
:103EB00018614868072817D21068406B0B795B1EA1
:103EC00003EB83041F23A3409843136858630888B7
:103ED00080B20B795B1E03EB8303984013685B6B26
:103EE00018431368586331E048680D2817D21068EA
:103EF000006B0B79DB1F03EB83041F23A340984364
:103F000013681863088880B20B79DB1F03EB830307
:103F1000984013681B6B18431368186316E0106809
:103F2000C06A0B790D3B03EB83041F23A340984326
:103F30001368D862088880B20B790D3B03EB8303CA
:103F400098401368DB6A18431368D8621B4B1068EB
:103F5000984208D10868122805D11948006840F431
:103F60008000C3F80403154B106898421ED10868FE
:103F7000102802D00868112818D11148006840F4B0
:103F800000000F4B1860086810280FD10D4800681A
:103F90000D4BB0FBF3F000EB80004000009002E01E
:103FA0000098401E009000980028F9D100BF002022
:103FB00082F83C0000BF00BF48E70000002001403D
:103FC000042301406400012040420F0001460868BC
:103FD000C06C704710B504460CB9012010BD1049E3
:103FE000E06A884200D000BF94F83D0028B9002064
:103FF00084F83C00204600F015F8022084F83D00CB
:104000002046FCF7DFFC00202064012084F83D00FE
:1040100000BF002084F83C0000BF00BFDEE70000C6
:104020000100000F704770B504460D460026206859
:10403000806800F4806070B12068806800F480704F
:1040400048B1042084F83D0000BF002084F83C0003
:1040500000BF012070BD01F09BF9064611E0681C0D
:1040600078B125B101F094F9801BA84209D9032049
:1040700084F83D0000BF002084F83C0000BF03200E
:10408000E8E72068006800F002000228E7D194F811
:104090003D00252803D1352084F83D0002E015209D
:1040A00084F83D000020D5E708B5014600200090C7
:1040B00000BF91F83C00012801D1022008BD012079
:1040C00081F83C0000BF91F83D00222803D1322046
:1040D00081F83D0002E0122081F83D000868806808
:1040E00000F00100A0B90868806840F001000A688B
:1040F00090601B4800681B4AB0FBF2F000EB4000E8
:10410000009002E00098401E009000980028F9D12D
:1041100000BF002081F83C0000BF1348006800F099
:104120001F0058B90868806800F04050A8B90868B6
:10413000806840F080400A6890600EE00B4A086892
:1041400090420AD10868806800F0405028B9086899
:10415000806840F080400A6890600020AEE7000070
:104160006400012040420F00042301400020014070
:10417000014609B90120704791F83500022801D1A4
:104180000120F8E70868006820F001000A68106064
:1041900000200A6810600A6850600A6890600A6827
:1041A000D0600A68106121200A685061F94A0868E5
:1041B00090425CD9F84A0868904201D1F74852E031
:1041C000F44A483A0868904201D1F4484BE0F24A78
:1041D00060320868904201D1F04844E0ED4A18325C
:1041E0000868904201D1ED483DE0EB4A183208687A
:1041F000904201D1801536E0E64A303A0868904294
:1042000001D180152FE0E44A78320868904201D14C
:10421000801528E0DF4A30320868904201D18015CD
:1042200021E0DD4A30320868904202D14FF480200C
:1042300019E0D84A183A0868904202D14FF4802019
:1042400011E0D54A90320868904202D14FF48020A4
:1042500009E0D04A48320868904202D14FF48020E9
:1042600001E04FF08070CB4A4C3A10601FE1CA4A1F
:10427000A832086890425CD9C74A0868904201D1C8
:10428000C64852E0C34A483A0868904201D1C34840
:104290004BE0C14A60320868904201D1BF4844E017
:1042A000BC4A18320868904201D1BC483DE0BA4A85
:1042B00018320868904201D1801536E0B54A303A8C
:1042C0000868904201D180152FE0B34A783208681F
:1042D000904201D1801528E0AE4A30320868904201
:1042E00001D1801521E0AC4A30320868904202D1F9
:1042F0004FF4802019E0A74A183A0868904202D18A
:104300004FF4802011E0A44A90320868904202D114
:104310004FF4802009E09F4A48320868904202D159
:104320004FF4802001E04FF080709A4A503A1060BC
:10433000BDE0994A4832086890425CD9964A0868BC
:10434000904201D1954852E0924A483A086890421A
:1043500001D192484BE0904A60320868904201D106
:104360008E4844E08B4A18320868904201D18B484D
:104370003DE0894A18320868904201D1801536E044
:10438000844A303A0868904201D180152FE0824A71
:1043900078320868904201D1801528E07D4A303299
:1043A0000868904201D1801521E07B4A30320868CC
:1043B000904202D14FF4802019E0764A183A0868FA
:1043C000904202D14FF4802011E0734A9032086885
:1043D000904202D14FF4802009E06E4A48320868CA
:1043E000904202D14FF4802001E04FF080706A4A81
:1043F000103AD0605BE0684A0868904201D1674893
:1044000052E0644A483A0868904201D163484BE060
:10441000614A60320868904201D1604844E05D4AD8
:1044200018320868904201D15C483DE05A4A18327F
:104430000868904201D1801536E0564A303A086843
:10444000904201D180152FE0534A7832086890429B
:1044500001D1801528E04F4A30320868904201D1DE
:10446000801521E04C4A30320868904202D14FF466
:10447000802019E0474A183A0868904202D14FF468
:10448000802011E0444A90320868904202D14FF4F3
:10449000802009E03F4A48320868904202D14FF438
:1044A000802001E04FF080703B4A103A9060394A1A
:1044B000086890425CD9384A0868904201D12020AF
:1044C00052E0344A483A0868904201D120204BE03B
:1044D000314A60320868904201D1202044E02D4AE0
:1044E00018320868904201D120203DE02A4A183253
:1044F0000868904201D1C01436E0264A303A086874
:10450000904201D1C0142FE0234A783208689042CB
:1045100001D1C01428E01F4A30320868904201D10E
:10452000C01421E01C4A30320868904202D14FF496
:10453000001019E0174A183A0868904202D14FF467
:10454000001011E0144A90320868904202D14FF4F2
:10455000001009E00F4A48320868904202D14FF437
:10456000001001E04FF000600A4A4C3A106021E16F
:10457000094AA8320868904260D9074A0868904200
:1045800001D1202056E0034A483A0868904207D1FA
:1045900020204FE058640240106002400400800078
:1045A000F84A0868904201D1202043E0F64A0868A2
:1045B000904201D120203DE0F24A483A08689042FA
:1045C00001D1C01436E0F04A483A0868904201D15F
:1045D000C0142FE0EB4A18320868904201D1C01491
:1045E00028E0E94A18320868904201D1C01421E05D
:1045F000E44A303A0868904202D14FF4001019E0C2
:10460000E14A303A0868904202D14FF4001011E0BC
:10461000DC4A30320868904202D14FF4001009E0C1
:10462000D94A30320868904202D14FF4001001E0BC
:104630004FF00060D44A683A1060BBE0D14A183AA3
:10464000086890425BD9CF4A603A0868904201D12D
:10465000202050E0CC4A603A0868904201D12020E6
:1046600049E0C84A0868904201D1202043E0C64A88
:104670000868904201D120203DE0C24A483A0868CB
:10468000904201D1C01436E0BF4A483A08689042CF
:1046900001D1C0142FE0BB4A18320868904201D102
:1046A000C01428E0B84A18320868904201D1C014FA
:1046B00021E0B44A303A0868904202D14FF4001029
:1046C00019E0B14A303A0868904202D14FF4001024
:1046D00011E0AC4A30320868904202D14FF4001029
:1046E00009E0A94A30320868904202D14FF4001024
:1046F00001E04FF00060A34A703AD0605AE0A14A4E
:10470000603A0868904201D1202050E09E4A603A09
:104710000868904201D1202049E09A4A08689042F6
:1047200001D1202043E0984A0868904201D120201E
:104730003DE0944A483A0868904201D1C01436E0FE
:10474000914A483A0868904201D1C0142FE08D4A3E
:1047500018320868904201D1C01428E08A4A183201
:104760000868904201D1C01421E0864A303A0868B6
:10477000904202D14FF4001019E0834A303A0868A1
:10478000904202D14FF4001011E07E4A30320868A6
:10479000904202D14FF4001009E07B4A30320868A1
:1047A000904202D14FF4001001E04FF00060754AD2
:1047B000703A9060744A183A086890425BD9714A1E
:1047C000603A0868904201D1082050E06E4A603A91
:1047D0000868904201D1082049E06A4A086890427E
:1047E00001D1082043E0684A0868904201D10820BE
:1047F0003DE0644A483A0868904201D1401536E0ED
:10480000614A483A0868904201D140152FE05D4A5C
:1048100018320868904201D1401528E05A4A1832EF
:104820000868904201D1401521E0564A303A0868A4
:10483000904202D14FF4002019E0534A303A086800
:10484000904202D14FF4002011E04E4A3032086805
:10485000904202D14FF4002009E04B4A3032086800
:10486000904202D14FF4002001E04FF00070464A20
:10487000643A10601EE1434A4832086890425BD9AE
:10488000404A603A0868904201D1082050E03E4A10
:10489000603A0868904201D1082049E0394A086826
:1048A000904201D1082043E0374A0868904201D184
:1048B00008203DE0334A483A0868904201D140154B
:1048C00036E0314A483A0868904201D140152FE05D
:1048D0002C4A18320868904201D1401528E02A4A33
:1048E00018320868904201D1401521E0254A303A3B
:1048F0000868904202D14FF4002019E0224A303A71
:104900000868904202D14FF4002011E01D4A303275
:104910000868904202D14FF4002009E01A4A303270
:104920000868904202D14FF4002001E04FF000707F
:10493000154A683A1060BDE0124A183A0868904279
:104940005DD9104A603A0868904201D1082052E0CF
:104950000D4A603A0868904201D108204BE0094AAC
:104960000868904201D1082045E0074A0868904253
:1049700001D108203FE0034A483A0868904205D137
:10498000401538E07060024070640240FA4A0868DE
:10499000904201D140152EE0F84A0868904201D1BA
:1049A000401528E0F44A60320868904201D1401571
:1049B00021E0F24A483A0868904202D14FF40020C0
:1049C00019E0ED4A18320868904202D14FF40020F5
:1049D00011E0EA4A18320868904202D14FF40020F0
:1049E00009E0E54A78320868904202D14FF400208D
:1049F00001E04FF00070E14A883AD0605AE0DF4AA7
:104A0000783A0868904201D1082050E0DA4A183A12
:104A10000868904201D1082049E0D84A183A08684D
:104A2000904201D1082042E0D34A483208689042BF
:104A300001D108203BE0D14A603A0868904201D198
:104A4000401534E0CC4A0868904201D140152EE070
:104A5000CA4A0868904201D1401528E0C64A60322F
:104A60000868904201D1401521E0C44A483A0868DC
:104A7000904202D14FF4002019E0BF4A1832086872
:104A8000904202D14FF4002011E0BC4A183208686D
:104A9000904202D14FF4002009E0B74A783208680A
:104AA000904202D14FF4002001E04FF00070B34A71
:104AB000883A9060B04A3032086890425BD9AF4A79
:104AC000783A0868904201D1AD4850E0AA4A183AB5
:104AD0000868904201D1AA4849E0A84A183A0868F3
:104AE000904201D1A64842E0A34A48320868904269
:104AF00001D1A3483BE0A14A603A0868904201D145
:104B0000402034E09C4A0868904201D140202EE0C9
:104B10009A4A0868904201D1402028E0964A6032C3
:104B20000868904201D1402021E0944A483A086840
:104B3000904202D14FF4803019E08F4A1832086851
:104B4000904202D14FF4803011E08C4A183208684C
:104B5000904202D14FF4803009E0874A78320868E9
:104B6000904202D14FF4803001E04FF48000824A3D
:104B70001C3A106021E1814A3032086890425BD9CA
:104B80007E4A783A0868904201D17D4850E07A4ADE
:104B9000183A0868904201D1794849E0774A183AB2
:104BA0000868904201D1764842E0734A483208686A
:104BB000904201D172483BE0704A603A08689042E6
:104BC00001D1402034E06C4A0868904201D1402075
:104BD0002EE06A4A0868904201D1402028E0664AE7
:104BE00060320868904201D1402021E0634A483A8F
:104BF0000868904202D14FF4803019E05E4A1832C2
:104C00000868904202D14FF4803011E05B4A1832BC
:104C10000868904202D14FF4803009E0564A783259
:104C20000868904202D14FF4803001E04FF48000D8
:104C3000514A203A1060C0E0504A303A0868904229
:104C40005BD94E4A783A0868904201D14C4850E00E
:104C5000494A183A0868904201D1494849E0474A10
:104C6000183A0868904201D1454842E0424A483229
:104C70000868904201D142483BE0404A603A0868E7
:104C8000904201D1402034E03B4A0868904201D173
:104C900040202EE0394A0868904201D1402028E0A7
:104CA000354A60320868904201D1402021E0334A01
:104CB000483A0868904202D14FF4803019E02E4AF9
:104CC00018320868904202D14FF4803011E02B4A2C
:104CD00018320868904202D14FF4803009E0264A29
:104CE00078320868904202D14FF4803001E04FF4EE
:104CF0008000224A883AD0605FE0204A783A08680B
:104D0000904201D11E4855E01B4A183A086890426B
:104D100001D11B484EE0194A183A0868904201D167
:104D2000174847E0144A48320868904201D11448B5
:104D300040E0124A603A0868904201D1402039E0D0
:104D40000D4A0868904201D1402033E00B4A0868C0
:104D5000904201D140202DE0074A6032086890421D
:104D600001D1402026E0054A483A0868904209D11E
:104D70004FF480301EE0000028640240886002404A
:104D800001008000D14A0868904202D14FF480307F
:104D900010E0CF4A0868904202D14FF4803009E019
:104DA000CA4A60320868904202D14FF4803001E074
:104DB0004FF48000C64AA03A9060C44A183208688E
:104DC00090425BD9C24A903A0868904201D11020C3
:104DD00050E0BE4A303A0868904201D1102049E0C4
:104DE000BB4A303A0868904201D1102042E0B74AED
:104DF00030320868904201D110203BE0B44A783A42
:104E00000868904201D1001534E0B04A183A0868A9
:104E1000904201D100152DE0AD4A183A0868904241
:104E200001D1001526E0A94A48320868904201D114
:104E300000151FE0A64A603A0868904202D14FF47C
:104E4000801017E0A14A0868904202D14FF4801008
:104E500010E09F4A0868904202D14FF4801009E0A8
:104E60009A4A60320868904202D14FF4801001E003
:104E70004FF08060954A343A10601CE1944A183231
:104E8000086890425BD9924A903A0868904201D1F2
:104E9000102050E08D4A303A0868904201D110202D
:104EA00049E08B4A303A0868904201D1102042E034
:104EB000864A30320868904201D110203BE0844A93
:104EC000783A0868904201D1001534E07F4A183AD8
:104ED0000868904201D100152DE07D4A183A086813
:104EE000904201D1001526E0784A48320868904285
:104EF00001D100151FE0764A603A0868904202D15D
:104F00004FF4801017E0714A0868904202D14FF4C4
:104F1000801010E06E4A0868904202D14FF4801071
:104F200009E06A4A60320868904202D14FF480106A
:104F300001E04FF08060654A383A1060BBE0644A97
:104F4000483A086890425BD9614A903A08689042B2
:104F500001D1102050E05D4A303A0868904201D1FA
:104F6000102049E05A4A303A0868904201D1102096
:104F700042E0564A30320868904201D110203BE0AE
:104F8000534A783A0868904201D1001534E04F4AFC
:104F9000183A0868904201D100152DE04C4A183AA1
:104FA0000868904201D1001526E0484A4832086856
:104FB000904201D100151FE0454A603A08689042CE
:104FC00002D14FF4801017E0404A0868904202D1A5
:104FD0004FF4801010E03E4A0868904202D14FF42E
:104FE000801009E0394A60320868904202D14FF4DB
:104FF000801001E04FF08060354AA03AD0605AE05E
:10500000334A903A0868904201D1102050E02F4A6C
:10501000303A0868904201D1102049E02C4A303AD9
:105020000868904201D1102042E0284A30320868D6
:10503000904201D110203BE0254A783A086890421E
:1050400001D1001534E0214A183A0868904201D194
:1050500000152DE01E4A183A0868904201D100154B
:1050600026E01A4A48320868904201D100151FE034
:10507000174A603A0868904202D14FF4801017E056
:10508000124A0868904202D14FF4801010E0104A92
:105090000868904202D14FF4801009E00B4A603258
:1050A0000868904202D14FF4801001E04FF0806018
:1050B000074AA03A90600020C86481F8350000BF1C
:1050C00081F8340000BF00BFFFF755B840640240CC
:1050D000A06002400146002209B901207047486AD9
:1050E00000B100BF022081F8350008680268174847
:1050F0000240D1E901031843CB6818430B691843F8
:105100004B6918438B691843CB6918430B6A1843E2
:105110000243486A042803D1D1E90B031843024330
:10512000086802600868426922F00702486A024380
:10513000486A042801D1886A024308684261002055
:10514000C864012081F835000020C7E73F8010F0D7
:1051500031B5002400F01CF9044600BF00F018F936
:10516000001B00998842F9D338BD0000F8B502460B
:105170000B46002100250024002000BFE4E00126AA
:1051800006FA01F51E6806EA0504AC4271D15E68B4
:10519000022E02D05E68122E13D1CF0802F1200633
:1051A00056F827004E07F70E0F26BE40B0434F07B4
:1051B000FF0E1E69BE403043CF0802F1200646F8BC
:1051C000270010684F000326BE40B0431E7906F04A
:1051D00003064F00BE40304310605E68012E08D0C9
:1051E0005E68022E05D05E68112E02D05E68122E17
:1051F00013D190684F000326BE40B0434F00DE68D5
:10520000BE4030439060506801268E40B0431E7906
:10521000C6F300168E4030435060D0684F0003261E
:10522000BE40B0434F009E68BE403043D0605E68D1
:1052300006F08056B6F1805FA8D100BF444E3668B4
:1052400046F48046424F3E603E46366806F480464D
:10525000009600BF00BF3F4E8F0856F827008E070C
:10526000370F0F26BE40B0433B4EB24202D100265C
:105270002EE068E0394EB24201D1012628E0384ED6
:10528000B24201D1022623E0364EB24201D10326BA
:105290001EE0354EB24201D1042619E0334EB2422F
:1052A00001D1052614E0324EB24201D106260FE0AC
:1052B000304EB24201D107260AE02F4EB24201D150
:1052C000082605E02D4EB24201D1092600E00A264B
:1052D0008F073F0FBE4030431E4E8F0846F8270011
:1052E000274E3068A0435E6806F48036B6F5803FEE
:1052F00000D12043224E3060361D3068A0435E68E6
:1053000006F40036B6F5003F00D120431C4E361D92
:105310003060361D3068A0435E6806F48016B6F52E
:10532000801F00D12043164E08363060361D30688D
:10533000A0435E6806F40016B6F5001F00D12043B6
:105340000F4E0C363060491C1029FFF418AFF8BD21
:105350004438024008380140000002400004024086
:1053600000080240000C02400010024000140240FD
:1053700000180240001C02400020024000240240AD
:10538000003C01400AB1816101E00B048361704778
:105390000148006870470000E000012010B5044695
:1053A0000CB9012010BD022084F835002068006887
:1053B00020F0010021680860204600F0DFF900209D
:1053C000A06384F8350000BF84F8340000BF00BF3C
:1053D000E8E7014691F835007047000010B5044633
:1053E0000CB9012010BD94F8350028B9002084F8CC
:1053F0003400204600F0C3F9022084F8350020680C
:10540000006820F0010021680860606820F070608A
:10541000216808612068806820F400402168886065
:10542000A06868B1E068012805D1A06840F4004098
:105430002168886004E0A06840F404402168886026
:10544000E068022802D18002216848602068406834
:105450000E49084321684860D4E904010843A16962
:1054600040EA01202168C860D4E9070108432168A7
:1054700008602068006840F0010021680860002092
:10548000A063012084F835000020ABE70080000213
:105490002DE9F84F0446894692469B46DDE90B57B5
:1054A0000A9E4FF0000894F8350001287BD106B120
:1054B00015B90120BDE8F88F20688069C0F3C030BD
:1054C00008B10220F6E700BF94F83400012801D1AA
:1054D0000220EFE7012084F8340000BF622084F846
:1054E00035000020A0635B4652464946204600979F
:1054F00001F08AFE80B1A06B042806D100BF002015
:1055000084F8340000BF0120D4E700BF002084F8F5
:10551000340000BF0320CDE7FF2D0CDD4FF4105009
:105520004FF08073FF2249460090204601F0EEFEC6
:105530004FF0FF080AE04FF41050EAB24FF000734A
:1055400049460090204601F0E1FEA84600BF3B46D8
:1055500000220421204601F0F1FE08B10320A9E752
:105560002068406A06F8010BA8F10108681E85B2A0
:10557000B8F1000F22D10DB33B4600228021204616
:1055800001F0DCFE08B1032094E7FF2D0CDD0020C4
:105590004FF08073FF2249460090204601F0B6FE8E
:1055A0004FF0FF080AE029E00020EAB24FF0007354
:1055B00049460090204601F0A9FEA846002DC6DC11
:1055C0001921204601F00CFF30B1A06B042801D155
:1055D00001206FE703206DE720202168C861206863
:1055E00040680749084021684860012084F8350078
:1055F00000BF002084F8340000BF5BE7022059E7B9
:1056000000E800FE2DE9F84F0446894692469B4685
:10561000DDE90B570A9E4FF0000894F83500012889
:105620007CD106B115B90120BDE8F88F20688069EA
:10563000C0F3C03008B10220F6E700BF94F8340090
:10564000012801D10220EFE7012084F8340000BFD7
:10565000522084F835000020A0635B46524649463C
:105660002046009701F011FE80B1A06B042806D1FE
:1056700000BF002084F8340000BF0120D4E700BF41
:10568000002084F8340000BF0320CDE7FF2D0BDDA0
:1056900000204FF08073FF2249460090204601F021
:1056A00035FE4FF0FF0809E00020EAB24FF000732A
:1056B00049460090204601F029FEA84600BF394621
:1056C000204601F0B8FE30B1A06B042801D10120C2
:1056D000AAE70320A8E716F8010B21688862A8F161
:1056E0000108681E85B2B8F1000F22D10DB33B4608
:1056F00000228021204601F021FE08B1032093E71B
:10570000FF2D0CDD00204FF08073FF2249460090F2
:10571000204601F0FBFD4FF0FF080AE029E00020E1
:10572000EAB24FF0007349460090204601F0EEFDCA
:10573000A846002DC3DC1921204601F051FE30B1EE
:10574000A06B042801D101206EE703206CE7202024
:105750002168C8612068406807490840216848609E
:10576000012084F8350000BF002084F8340000BF19
:105770005AE7022058E7000000E800FE7047704733
:1057800010B50848006840F400700649086003201E
:1057900000F0F4FB0F2000F007F800F0A3FB00205E
:1057A00010BD0000003C024070B5044601F044F911
:1057B0004FF47A71B0FBF1F5284601F0AFFC0022FE
:1057C0002146501E00F09CFB002070BDF0B5044641
:1057D000154600260022002700BF94F8A0000128EB
:1057E00001D10220F0BD012084F8A00000BF0220FA
:1057F00084F8A100002237E003EB830000EBC30C28
:1058000004F1380000EB8C000069062813D10878F9
:105810004FF0100C0CFB022C40EA0C60B1F800C0F9
:105820000CF47F4C40EA0C00D1F800C00CF47F0C63
:1058300040EA0C060EE0087840EA0260B1F800C0C9
:105840000CF47F4C40EA0C00D1F800C00CF47F0C43
:1058500040EA0C060F1D3946206884304FF0800C5A
:105860000CFB03000664521CAA42C5D3012084F835
:10587000A10000BF002084F8A00000BF00BFB1E776
:1058800030B5034600BF93F8A000012801D10220E3
:1058900030BD012083F8A00000BF022083F8A100E2
:1058A00018688430802404FB0200C06800F07F4444
:1058B00018688430802505FB0200C46018688430B5
:1058C000802404FB0200C16001201C68606283F830
:1058D000A10000BF002083F8A00000BF00BFD7E7F1
:1058E00070B504460E46154600BF94F8A000012886
:1058F00001D1022070BD012084F8A00000BF022069
:1059000084F8A10005EB850101EBC50204F1380123
:1059100001EB820034223146FAF7FBFE2A4631467B
:10592000204602F083FF01202168486284F8A1002C
:1059300000BF002084F8A00000BF00BFDAE710B568
:10594000024600BF92F8A000012801D1022010BD3C
:10595000012082F8A00000BF022082F8A100106898
:105960008430CB01C05820F0020310688430CC0191
:10597000035101201368586282F8A10000BF002083
:1059800082F8A00000BF00BFE1E710B5024600BFEB
:1059900092F8A000012801D1022010BD012082F858
:1059A000A00000BF022082F8A10010688430CB0163
:1059B000C05840F0100310688430CC01035101201E
:1059C0001368586282F8A10000BF002082F8A0008E
:1059D00000BF00BFE1E710B5024600BF92F8A0008B
:1059E000012801D1022010BD012082F8A00000BFD3
:1059F000022082F8A10010688430CB01C05840F02A
:105A0000020310688430CC010351012013685862EE
:105A100082F8A10000BF002082F8A00000BF00BFF4
:105A2000E1E7704710B504462068806B00F0040081
:105A3000F0B12068806B00F00400C8B12068406BB2
:105A400020F004002168486304202168C863D4F86A
:105A5000A40040F00100C4F8A400042084F8A100D0
:105A600000BF002084F8A00000BF2046FFF7D9FF48
:105A70002068806B00F00200F0B12068806B00F0BD
:105A80000200C8B12068406B20F002002168486322
:105A900002202168C863D4F8A40040F00200C4F8D2
:105AA000A400042084F8A10000BF002084F8A00016
:105AB00000BF2046FFF7B5FF2068806B00F00100B3
:105AC000B8B12068806B00F0010090B12068406B95
:105AD00020F001002168486301202168C86384F830
