:020000040800F2
:1000000020660120650400086D0400086F040008E4
:100010007104000873040008750400080000000063
:100020000000000000000000000000003503000890
:100030007904000800000000ED03000851040008E6
:100040007F0400087F0400087F0400087F04000884
:100050007F0400087F0400087F0400087F04000874
:100060007F0400087F0400087F0400087F04000864
:100070007F0400087F0400087F0400087F04000854
:100080007F0400087F040008BD0900087F04000801
:100090007F0400087F0400087F0400087F04000834
:1000A0007F0400087F0400087F0400087F04000824
:1000B0007F0400087F0400087F0400087F04000814
:1000C0007F0400087F0400087F0400087F04000804
:1000D0007F0400087F0400087F0400087F040008F4
:1000E0007F0400087F0400087F0400087F040008E4
:1000F0007F0400087F0400087F0400087F040008D4
:100100007F0400087F0400087F0400087F040008C3
:100110007F0400087F0400087F0400087F040008B3
:10012000491200087F0400087F0400087F040008CB
:100130007F0400087F0400087F0400087F04000893
:100140007F0400087F0400087F0400087F04000883
:100150007F0400087F0400087F0400087F04000873
:100160007F0400087F0400087F0400087F04000863
:100170007F0400087F0400087F04000800000000DE
:100180007F0400087F0400087F0400087F04000843
:100190007F0400087F0400087F0400087F04000833
:1001A000A5CA00087F040008391200087F0400086F
:1001B0007F0400087F0400087F0400087F04000813
:1001C0007F0400087F04000800F002F800F05CF8EB
:1001D0000AA090E8000C82448344AAF10107DA45A2
:1001E00001D100F051F8AFF2090EBAE80F0013F098
:1001F000010F18BFFB1A43F001031847ACB601000A
:10020000CCB601000A444FF0000C10F8013B13F08B
:10021000070408BF10F8014B1D1108BF10F8015B5F
:10022000641E05D010F8016B641E01F8016BF9D152
:1002300013F0080F1EBF10F8014BAD1C0C1B09D1A9
:100240006D1E58BF01F801CBFAD505E014F8016B1B
:1002500001F8016B6D1EF9D59142D6D370470000AD
:100260000023002400250026103A28BF78C1FBD8BF
:10027000520728BF30C148BF0B6070471FB515F04B
:1002800097F91FBD10B510BD00F0E0FA1146FFF759
:10029000F5FF0FB400F00CF80FBC13F0DBFC00F01E
:1002A0007CF903B4FFF7EEFF03BC00F0C9FA0000CD
:1002B00004B013F0CBFE0448002113F06FFF13F0DD
:1002C000D7FE00F06AF900005C00012080F3098885
:1002D0007047EFF309807047684680F30988044847
:1002E0000078C00714BF0220032080F314887047F1
:1002F000DC550108DFF818C0EFF305831B0618BFB3
:100300006047EFF31483DB0708BF604700DF7047E7
:10031000D3420108DFF818C0EFF305831B0618BFAE
:100320006047EFF31483DB0708BF604700DF7047C7
:100330006D450108EFF30980816911F8021CE1BBEA
:1003400090E80F1010B5E047BDE81040EFF3098CBE
:100350008CE80700214B93E80600914208BF7047E4
:1003600041B91EF0100F16D11D49086820F0010098
:10037000086010E01EF0100F06BF2CED108A01205F
:10038000002081F825002CE9F00FC1F828C00CB43A
:1003900014F096FC0CBC1A60D2F828C0BCE8F00F30
:1003A00092F8250000280EBF6FF0020E6FF0120EBB
:1003B000BCEC108A8CF30988704710B5094A1268A2
:1003C000914209D8084C54F8214090E80F10A047FA
:1003D000EFF3098C8CE80F0010BD0000B400012081
:1003E00034EF00E0980800089808000810B514F0F1
:1003F0002BFBBDE81040154B93E80600914208BF67
:100400007047EFF3098C1EF0100F06BF2CED108A19
:100410000120002081F825002CE9F00FC1F828C048
:100420000CB414F04DFC0CBC1A60D2F828C0BCE827
:10043000F00F92F8250000280EBF6FF0020E6FF04B
:10044000120EBCEC108A8CF309887047B4000120AE
:1004500010B514F0FDFCCCE710B513F039FF14F023
:10046000F7FCC6E70948804709480047FEE7FEE772
:10047000FEE7FEE7FEE7FEE7FEE7FEE7FEE7FEE754
:1004800004480549054A064B704700008DCE000818
:10049000C90100082056012020660120205E0120AD
:1004A000205E012000487047C055012053EA020C2D
:1004B00000F069802DE9F04B4FF00006002B1FBFC4
:1004C000B3FA83F503FA05F424FA05F65E4012BF89
:1004D0001643B2FA82F502FA05F4C5F120051EBFF3
:1004E00022FA05FC44EA0C04203556EA044C4FEA93
:1004F000144418BF641C4FF000084FF000099042EC
:1005000071EB030C39D3002919BFB1FA81F701FA55
:1005100007F6B0FA80F700FA07F6C7F120071EBF0A
:1005200020FA07FC46EA0C062037B6FBF4FCA7EBE2
:100530000507103F07F01F0BCBF120060CFA0BFB51
:100540002CFA06F644BFB3460026202FA4BF5E4611
:100550004FF0000B5BEA060C08BF4FF0010B19EBE4
:100560000B09ABFB027C48EB0608C01B06FB02CC68
:100570000BFB03CC71EB0C01C1E70B460246414675
:100580004846BDE8F08B13B54FF000004FF0000176
:10059000AFF30080BDE81C40704710B50446AFF3D0
:1005A00000802046BDE81040FFF77BBE032A40F2E2
:1005B000308010F0030C00F0158011F8013BBCF105
:1005C000020F624498BF11F801CB00F8013B38BF1D
:1005D00011F8013BA2F1040298BF00F801CB38BF2B
:1005E00000F8013B11F0030300F06780083AC0F007
:1005F000088051F8043B083A51F804CBA0E80810F1
:10060000F5E7121D5CBF51F8043B40F8043BAFF323
:100610000080D20724BF11F8013B11F801CB48BF7D
:1006200011F8012B24BF00F8013B00F801CB48BFB3
:1006300000F8012B7047431A28BF9A427FF6B6AFE5
:10064000032A1044114440F2268010F0030F1EBF0D
:1006500011F8013D521E00F8013D10F0030F7FF428
:10066000F6AF11F0030300F09F80083AC0F00B8052
:1006700051F8043D083A51F804CD40F8043D40F8E3
:1006800004CDFFF7F3BF121D5CBF51F8043D40F8E5
:10069000043DAFF30080D20724BF11F8013D11F8EB
:1006A00001CD48BF11F8012C24BF00F8013D00F82E
:1006B00001CD48BF00F8012C704710B5203AC0F0BA
:1006C0000B80B1E81850203AA0E81850B1E8185053
:1006D000A0E81850BFF4F5AF5FEA027C24BFB1E890
:1006E0001850A0E8185044BF18C918C0BDE8104001
:1006F0005FEA827C24BF51F8043B40F8043B08BF0A
:100700007047D20728BF31F8023B48BF11F8012BD0
:1007100028BF20F8023B48BF00F8012B704702F0C9
:10072000FF0343EA032242EA024200F069B84FF0B5
:10073000000200B5134694469646203922BFA0E831
:100740000C50A0E80C50B1F12001BFF4F7AF09073D
:1007500028BFA0E80C5048BF0CC05DF804EB89002E
:1007600028BF40F8042B08BF704748BF20F8022B71
:1007700011F0804F18BF00F8012B70477047704789
:100780007047431A28BF9A427FF697AF104410F083
:10079000030F11441EBF11F8013D521E00F8013D28
:1007A00010F0030F7FF4F6AF103AC0F00A8010B5D6
:1007B00031E91850103A20E91850BFF4F9AFBDE8FC
:1007C0001040530724BF31E9081020E9081044BF46
:1007D00051F8043D40F8043D12F0030F08BF704784
:1007E000D20728BF31F8023D48BF11F8012C28BFBD
:1007F00020F8023D48BF00F8012C70474FF000027E
:100800000429C0F0128010F0030C3FF492AFCCF139
:10081000040CBCF1020F18BF00F8012BA8BF20F890
:10082000022BA1EB0C01FFF784BF5FEAC17C24BF60
:1008300000F8012B00F8012B48BF00F8012B70478E
:1008400001491820ABBEFEE7260002007546FFF7FF
:1008500029FEAE4605006946534620F0070085464E
:1008600018B020B5FFF70CFEBDE820404FF00006A1
:100870004FF000074FF000084FF0000B21F0070188
:10088000AC46ACE8C009ACE8C009ACE8C009ACE8CB
:10089000C0098D46704770470000000070B50546DE
:1008A000AC6B94F83D00252803D1352084F83D0039
:1008B00002E0152084F83D00204603F0EDFC70BDF9
:1008C00070B50546AC6B042084F83D00206C40F008
:1008D00002002064204603F0F0FC70BD70B50446B1
:1008E000A56B284603F0E8FC70BD000010B58AB087
:1008F000044600BF2E48006840F004002C49086000
:100900000846006800F00400009000BF00BF00BF70
:1009100027481430006840F480602549143108608D
:100920000846006800F48060009000BF00BF081512
:100930000590032006900020079005A91D4807F0A8
:1009400005FC00221146122008F0C4FF122008F016
:10095000A9FF194820604FF4403060604FF00071EB
:10096000A160002121610121A16100216162A162D8
:100970002163E162E16001212162E16100216161A5
:10098000204603F06FFD10B101200AB010BD082011
:1009900001900120029000200390049001A92046BC
:1009A00003F07AFB08B10120EFE70020EDE700003B
:1009B00030380240001402400022014010B50248C5
:1009C00003F07CFC10BD00007002012010B504464D
:1009D0005F48006820F440305E49C1F804030846CF
:1009E000D0F80403616808435949086020684068EA
:1009F00020F480702168486020684168206941EADD
:100A00000020216848602068406820F0407021681C
:100A1000486020684068A1680843216848602068F1
:100A2000806820F400602168886020688068E16840
:100A30000843216888604849E06A884218D02068E5
:100A4000806820F070602168886020688068E16AB2
:100A50000843216888602068806820F04050216841
:100A6000886020688068216B0843216888600BE0FB
:100A70002068806820F07060216888602068806845
:100A800020F04050216888602068806820F00200D3
:100A90002168886020688168A06941EA4000216877
:100AA0008860606A28B3A06A18B1A06A082800D8D4
:100AB00004E040F22151294812F056FE20684068B7
:100AC00040F40060216848602068406820F460407D
:100AD0002168486020684168A06A401E4FF4604267
:100AE00092FAA2F2B2FA82F2904001432068416089
:100AF00005E02068406820F40060216848602068B4
:100B0000C06A20F470002168C8622068C16A208C25
:100B1000401E41EA00502168C8622068806820F4C5
:100B200000702168886020688168E06941EA40209F
:100B3000216888602068806820F48060216888606F
:100B400020688168606941EA80202168886010BD62
:100B500004230140002001400100000F1CB50108E2
:100B600010B51E481E49086002201E490860072073
:100B70004860042088600720C8600220086148613E
:100B800088610020164948600021154881600421D1
:100B9000C160102101614021416189008161002112
:100BA000C1614FF40061016249004162002181622C
:100BB00000F068F80B490A480AF04CFB18B1012014
:100BC0000949087002E000200749087040F20360FC
:100BD00000F00CF80448007810BD0000400100A0AF
:100BE0007C0B0120B00B01203A00012038B50446EF
:100BF0000020009001202149086010204860012059
:100C000088600020C8604FF6FF721D480AF057FB4D
:100C1000012007F08DFA0220184908601020486072
:100C2000012088600020C8604FF6FF7214480AF067
:100C300046FB0320114908601020486008208860A6
:100C40000020C8604FF6FF720D480AF038FB4FF4E1
:100C500008700090042009490860102048600120B5
:100C600088600098C8604FF6FF7205480AF027FBBD
:100C7000214603480AF00FFB38BD0000CC0B0120D1
:100C80007C0B012030B587B004460D4600BF664896
:100C9000006840F00100644908600846006800F000
:100CA0000100019000BF00BF00BF5F480838006826
:100CB00040F480005C49083908600846006800F488
:100CC0008000019000BF00BF00BF0846006840F0F0
:100CD000040008600846006800F00400019000BFAE
:100CE00000BF00BF0846006840F0080008600846E2
:100CF000006800F00800019000BF00BF00BF084678
:100D0000006840F0100008600846006800F010001D
:100D1000019000BF00BF00BF0846006840F02000FF
:100D200008600846006800F02000019000BF00BF86
:100D300000BF0846006840F04000086008460068B0
:100D400000F04000019000BF00BF00BF08460068EF
:100D500040F0800008600846006800F080000190C4
:100D600000BF00BF022003900120049002200590E4
:100D70000C2006900820029002A92C4807F0E6F902
:100D80004CF20B70029002A9294807F0DFF94FF6E8
:100D90008370029002A9274807F0D8F94FF63F0068
:100DA000029002A9244807F0D1F948F233100290CA
:100DB00002A9224807F0CAF92820029002A9204877
:100DC00007F0C4F900201F49486080211D48816058
:100DD0008900C16049000161890041618900816128
:100DE0000021C1614FF40031016200214162032101
:100DF00081620021C162016313481249086000BF8B
:100E000008462063846300BF03F014FD0D4806F01C
:100E1000DFFF00220521382008F05CFD382008F0B3
:100E200041FD07B030BD00003838024000080240E4
:100E3000000C024000100240001402400018024062
:100E4000001C0240DC0B0120106402402DE9F0413F
:100E500090B005464FF000080020039002900190EA
:100E60007E48006801697E480078884728702878A5
:100E7000002870D00024E4E004A800EB440207A896
:100E800000EB44017548006843697548007898474D
:100E90007448007801280BD107A830F814000DA978
:100EA00021F8140004A830F814000AA921F814004D
:100EB0006C48007800F0020038B107A830F8140040
:100EC000C0F580500DA921F814006648007800F0A4
:100ED000040038B104A830F81400C0F580500AA905
:100EE00021F814005F48007800F0080058B107A806
:100EF00030F814000AA921F8140004A830F81400EE
:100F00000DA921F814000DA830F81400564951F825
:100F10002410884207D90DA830F81400524951F81E
:100F20002410401A06E0504850F824000DA931F86A
:100F30001410401A86B20AA830F814004B4951F830
:100F40002410884208D90AA830F81400474951F8FB
:100F50002410401A07E07CE0444850F824000AA915
:100F600031F81410401A87B2F01905280BDD0DA8CE
:100F700030F814003C4941F824000AA830F8140065
:100F80003A4941F824003648007870280DD10DA860
:100F900030F81410A81C20F814100AA830F8141007
:100FA00005F10C0020F8141016E02F4850F824002A
:100FB0002F4909884843C0F30F31A81C20F81410AA
:100FC0002A4850F824002B4909884843C0F30F31C0
:100FD00005F10C0020F8141001A802AB03AA214669
:100FE00000901F48007812F06FFC0398C1B205F121
:100FF000160001550298C1B205F120000155019873
:1010000030B1012809D002280CD0032814D10EE0F9
:10101000012105F11B00015511E0022105F11B0022
:1010200001550CE0032105F11B00015507E00021EB
:1010300005F11B00015502E04FF0010800BF00BFA1
:10104000641C2878A0423FF617AF284600F014F839
:101050008046404610B0BDE8F08100003C00012011
:1010600045000120440001207C0C0120900C01204F
:10107000400001204200012038B5044600200090C5
:10108000002569461748007812F010FC00981828CF
:1010900016D005DC58B110280CD014281CD10CE057
:1010A0001C2810D0402811D0492815D111E000206B
:1010B000A06213E00120A06210E00220A0620DE017
:1010C0000320A0620AE00420A06207E00520A062DD
:1010D00004E00620A06201E0012500BF00BF284611
:1010E00038BD00004500012070B504460D460026BD
:1010F0001048048010480580104801687020884717
:101100000E4841687020884751280FD10B480C4980
:10111000086070200B49087008200B4908700848C7
:101120000068C16807480078884700E00326304619
:1011300070BD000040000120420001200C00012091
:101140003C000120450001204400012010B500BFF3
:1011500000BF00BF00BF00BFBFF34F8F00BF00BF85
:1011600000BF00BF00BF00BFBFF36F8F00BF00BF55
:1011700000BF00200D4908600D48006840F40030B1
:101180000B49086000BF00BF00BFBFF34F8F00BF17
:1011900000BF00BF00BF00BF00BFBFF36F8F00BF25
:1011A00000BF00BF00BF0BF0EDFD10BD50EF00E031
:1011B00014ED00E038B504460D4600BF1C48006839
:1011C00040F480001A4908600846006800F4800076
:1011D000009000BF00BF17482060800560600021BC
:1011E000A160E16001142161811361610113A161BA
:1011F0008114E16141122162002161620121A16239
:101200000021E1622163204606F0E2FD08B10120E1
:1012100038BD00BFAC63A56300BF00221146382073
:1012200008F058FB382008F03DFB0020F0E70000F4
:101230003038024010640240022002490968886088
:10124000704700000053012010B5024804F0A4FAD2
:1012500010BD0000B402012030B50468246824F4F5
:10126000802405682C60046863608468402C04D185
:101270000468A2600468E16003E00468A160046897
:10128000E26030BD2DE9FC5F15460746DFF890802F
:1012900028440190D8F800201C460E46526E214486
:1012A000894652689047D8F80020781B4946526E0C
:1012B000824652689047711938190090D8F800207A
:1012C0008946526E52689047D8F80020711B8B46B1
:1012D000526E009852689047002C1ED0D8F800102B
:1012E000361B4546496E01984A68314690472A6840
:1012F00031465046526E5268904728683C1B49461A
:10130000406E4268204690472A6859462046526EF1
:10131000526802B0BDE8F05F1047BDE8FC9F0000D6
:101320001401012024E000200BF0ACFB642012F03B
:1013300081FE00200BF096FB642012F07BFE002063
:101340000BF0A0FB642012F075FE00200BF08AFB6E
:10135000642012F06FFE00200BF094FB642012F06A
:1013600069FE00200BF07EFB4FF4FA7012F062FE73
:10137000D9E700002DE9F04105460C46002600277C
:101380006548854200D104E04FF44071634812F093
:10139000EBF9206810B12068012800D104E040F288
:1013A00001315E4812F0E0F9606840B160680128E0
:1013B00005D06068022802D06068032800D104E0EC
:1013C00040F20231554812F0CFF9A06828B1A06868
:1013D000042802D0A068082800D104E040F20331BC
:1013E0004E4812F0C1F9E06828B1E068102802D038
:1013F000E068202800D104E04FF44171474812F022
:10140000B3F9206910B12069402800D104E040F20E
:101410000531424812F0A8F96069802807D0606958
:10142000B0F5807F03D06069B0F5C07F00D104E0E3
:1014300040F20631394812F097F9A06918B1A06955
:10144000B0F5007F00D104E040F20731334812F0DC
:101450008BF9E06938B1E069B0F5006F03D0E0695D
:10146000B0F5406F00D104E04FF442712B4812F008
:101470007BF9206A18B1206AB0F5805F00D104E0E2
:1014800040F20931254812F06FF9606A38B1606A9C
:10149000B0F5005F03D0606AB0F5804F00D104E082
:1014A00040F20A311D4812F05FF92068012816D079
:1014B0002E686FF30E06D4E901010843E168084382
:1014C0002169084361690843A1690843E169084348
:1014D000216A0843616A084306432E6019E02E68BA
:1014E0006FF30E06D4E907010843616A0843064317
:1014F0006F686FF30E07D4E901010843E168084300
:101500002169084361690843A169084307432E60C4
:101510006F600020BDE8F081400100A044B80108E0
:1015200070B504460D460C48844200D104E040F2F8
:1015300014410A4812F018F9B5F5005F00D204E032
:1015400040F21541054812F00FF9606940EA450084
:101550006061002070BD0000400100A044B8010897
:10156000F8B505460C461646002000900027354881
:10157000854200D104E040F2E731334812F0F4F83C
:10158000206888B1206801280ED0206802280BD07E
:101590002068032808D02068042805D02068052882
:1015A00002D02068062800D104E04FF47A71264862
:1015B00012F0DAF86068102805D06068082802D0B8
:1015C0006068182800D104E040F2E9311E4812F0AA
:1015D000CBF8A06818B1A068102800D804E040F249
:1015E000EA31194812F0C0F8E068B0F5005F00D2A7
:1015F00004E040F2EB31144812F0B6F8D4E90001EF
:101600000843A168491E40EA4110E16840EA4120D0
:1016100000900098286107F017F807460BE0701C4F
:1016200038B126B107F010F8C01BB04201D9032031
:10163000F8BD0120FCE7A86900F020000028EED1E9
:1016400000BFF5E7400100A044B801082DE9F041D2
:1016500005460C4617460026B0465548854200D13F
:1016600004E040F25231534812F07EF8206818B17D
:101670002068102800D804E040F253314D4812F0A1
:1016800073F8606818B16068102800D804E04FF45F
:101690005571484812F068F8A06818B1A068102881
:1016A00000D804E040F25531424812F05DF8E0689D
:1016B00018B1E068102800D804E040F256313D48E7
:1016C00012F052F8206918B12069102800D804E0FF
:1016D00040F25731374812F047F8606918B1606935
:1016E000102800D804E04FF45671324812F03CF84C
:1016F000A06918B1A069102800D804E040F259315F
:101700002C4812F031F80FB1012F00D104E040F263
:101710005A31284812F028F8012F1FD0AE6806F081
:1017200070462068401E6168491E40EA0111A068A9
:10173000401E41EA0021E068401E41EA0031208A53
:10174000401E41EA0041A08A401E41EA0051207E2D
:10175000401E41EA00600643AE6025E0EE6806F0F8
:1017600070462068401E6168491E40EA0111A06869
:10177000401E41EA0021208A401E41EA0041207EAD
:10178000401E41EA00600643D5F8088008F0704822
:10179000E068401E0103A08A401E41EA005040EA72
:1017A0000808EE60C5F808800020BDE8F081000060
:1017B000400100A044B801082DE9F0430446C56883
:1017C00087B090468946002001F0E4FC064625B12A
:1017D000287910B146F0020001E026F0020001F085
:1017E000D9FC2069012558B1D4E902128DE8260000
:1017F000039563882288046841464846A0471EE056
:10180000124F134B214638681B68427CE0689847AA
:1018100030B9E088012801D0002001E03868806BF1
:10182000A288E388A1680095CDE90410CDE90232D1
:10183000019563882288414648460AF0B1F807B00E
:101840003046BDE8F04301F0A5BC000014010120C2
:101850000C0101202DE9F0478146884640F2C32063
:1018600050434FF47A7190FBF1F502FB02F002EB6A
:10187000D27100EB610617460023414648466D1CB5
:10188000FFF700FD012413E004FB04F007FB070051
:10189000B04206DD3B46224641464846FFF7F2FC91
:1018A0007F1E3B46224641464846FFF7EBFC641C40
:1018B000AC42E9DDBDE8F0872DE9F05F06468846D9
:1018C00040F2C32002FB00F14FF47A7091FBF0F775
:1018D00002FB02F102EBD27001EB600B1446B1186F
:1018E000234A301B7F1C1268526E13680A46414619
:1018F0009847012538E000BF05FB05F004FB040113
:1019000059451CDDBC4219DD194B06EB050AA6EB57
:1019100005091B68AAF1010208EB04015B6E09F1DD
:1019200001001B689847124BAAF10102A8EB0401C1
:101930001B6809F101005B6E1B689847641E0C4B25
:101940003219301B1B68924608EB05015B6E81461D
:101950001B689847064B5246A8EB05011B68484692
:101960005B6E1B6898476D1CBD42C5DDBDE8F09FEE
:1019700014010120014AC2E900017047C0000120A2
:10198000014AC2E900017047C8000120014AC2E9CA
:1019900000017047D0000120014AC2E900017047F0
:1019A000880101202DE9F04FDFF828B191B04FF008
:1019B000FF35DBF80030B3F922100691DE69B3F988
:1019C0002490F469A189814206D8E289824203D336
:1019D000471AD4F8008012E0D4E9018100296FD0C1
:1019E0000A8882426CD84D88854269D3801A82B2B7
:1019F000486800EB8200B0F90070B0F90250781C22
:101A00005ED0307EA17C10FB01FA217CCDE907017C
:101A1000B3F92A6030460AF085FCC0B20E90DBF8BC
:101A2000000007FB0A81A37C826B0127CDE9041229
:101A3000CDE90273C069089AC17E807ECDE90001BC
:101A4000DDE90603494609F0ABFF681C18D046F0F3
:101A500002000AF067FCDBF80000A37C05FB0A81AA
:101A6000826BCDE90273CDE90412C069089AC17E88
:101A7000807ECDE90001DDE90603494609F090FFCB
:101A8000DBF800005D46C069417E007E814214D9CA
:101A9000022E12D086F004000AF044FC2868C069C7
:101AA000027EC37E12FB0391437E857E089A0698D0
:101AB0004B4412FB05020AF0FFF80E980AF032FCC4
:101AC000DBF80000627C418C1144418411B0BDE818
:101AD000F08F00001401012004480068C069C0694B
:101AE00009B1027C0A60407C7047000014010120AB
:101AF000022008807047C06982898A4202D8C28960
:101B00008A4210D2806880B102888A420DD8438808
:101B10008B420AD3406800EB8100A0EB8200B0F951
:101B20000000002801DB0120704700207047000002
:101B30002DE9F043304C034687B020681946B0F9D0
:101B40002A60C069C06900F086F8002850D041685A
:101B50000088181A01EBC0053046AF780AF0E2FBA6
:101B6000814620686A680123816BCDE90237CDE99F
:101B70000421C169CB7E8A7ECDE900230B7EB0F9BA
:101B800024102A78B0F9220009F00AFF2068C06901
:101B9000417E027E91421FD9C07E11FB00F812FBEC
:101BA00000F7022E18D000F0E1FD064600F0ACFD73
:101BB00001F0DFFA21682A78CB69B1F92200DB7ED7
:101BC00012FB0302B1F9241001EB080339440AF0B7
:101BD00073F8304601F0CDFA48460AF0A3FB2068BE
:101BE0006A78C369B0F922109B7E12FB031141840D
:101BF00007B0BDE8F08300001401012030B50F4CA0
:101C000005460B4620682946C069C06900F023F8E4
:101C1000002812D04168008824682A1A0120E4694B
:101C200000EBC200085CA47E10FB04F0002B04D083
:101C300011F8321011FB04F1196030BD14010120BC
:101C400001200880704700B5C06900F004F8002842
:101C500000D0012000BD06E002888A4202D84288F6
:101C60008A4202D280680028F6D1704770B50025FC
:101C7000124C19E020691249C5EB051600EBC600AD
:101C800070220968001DFEF718FD2069002140F848
:101C9000361000EBC60000F10C018161011D0A1D28
:101CA000C0E90F126D1C4164A0688542E2DB00F0C0
:101CB000FDFDBDE8704001F06BBC0000B8010120E3
:101CC0001401012070B50F490D480860084602F064
:101CD000B3F90C4C143CA068C0EB0010C5002846BA
:101CE00000F06AF82A460021206102F0ADF94FF0B9
:101CF000FF30206001F080FCBDE870400FF004BAB6
:101D0000F51E0108CC01012010B5040009D000F037
:101D1000CDFD20460BF05AFE044601F039FC20466A
:101D200010BD002010BD38B5054600F0BFFD2846A7
:101D3000FFF7EAFF040009D000F0B6F82A460021B8
:101D4000009002F081F9684600F0D6F801F020FC1E
:101D5000204638BD024A106021F0030050607047F1
:101D60003454012010B5040016D000F09FFD0B483C
:101D7000406B10F8341059B1022909D2042101EB4B
:101D8000C401415848680BF0D9FD204610F01CF9F9
:101D9000BDE8104001F0FCBB10BD000074530120F1
:101DA000002805D0034AD16B016001B14860D063BF
:101DB00070470000745301202DE9F04104460FF0F4
:101DC000E1FB2848E41C24F00305016C2D1DA94209
:101DD00000D90D46C46B13E054F8042CAA420ED16E
:101DE00084B1216809B162684A60616809B12268FA
:101DF0000A60C26BA24231D12168C1632EE024681F
:101E0000002CE9D18046816BC0680F1857F8040C8C
:101E10003E1A306838B1002010F012F957F8040C5F
:101E20003E1A3068D0B97068A84217DB3044441BB2
:101E30003046241D10F0EAF8D8F80C10491BC8F8F9
:101E40000C10D8F814102944C8F814107068401BFE
:101E500002D031460BF072FD44F8045C2046BDE828
:101E6000F08100007453012010B500240FF08AFBAC
:101E70000C490F2001EBC002526C1AB101EBC000FB
:101E8000406C08E0401EF5D508E04168A14200D949
:101E90000C46806810B180680028F6D1A4F10C00CF
:101EA00010BD0000745301200549CA69521CCA6163
:101EB000496B01EBC0010A78521C0A7000F034B87B
:101EC0007453012010B500F0F1FCFFF7CDFF642240
:101ED0000849B0F5800F04D990FBF2F4086A444336
:101EE00003E0096A4143B1FBF2F401F051FB2046E3
:101EF00010BD0000745301200A4902684B6B52F870
:101F0000082C03EBC2021378022B03D3CB690BB16D
:101F10005B1ECB611178491E1170002101600846DB
:101F20007047000074530120002806D003490422A2
:101F300002EBC000496B0858083070477453012009
:101F400002480068407C00F003B800001401012042
:101F500010B5044600F0AAFC044904EB840001EB30
:101F60008000447901F014FB204610BDB0540120DC
:101F700002490968497C00F003B8000014010120FF
:101F80002DE9FC5F8946044600F090FC484600F0CD
:101F9000F9FB2C4E09EB8907824656F82700019081
:101FA00029484FF00108016841B92749C0F800806D
:101FB000091D26480860084602F03EF8214A09EB50
:101FC00089015FEA0A0002EB81051BD001F0AAF843
:101FD00083464FF07F4001F0C1F800F0C1F80022C5
:101FE0001146206800F072FA206842880188504645
:101FF00001F022F946F8274085F80580584601F09F
:1020000091F817E046F8274085F80580286946468C
:1020100018B100F0BFFF0020286174B10096E86895
:10202000A1684B46421AA8686168411A206801F00D
:102030000BF82861484610F0E3FC01F0A9FA01987A
:10204000BDE8FC9FB054012048010120C91E0108D1
:10205000024A1268527C00F003B80000140101200B
:1020600070B514460D46064600F020FC204600F0F0
:1020700089FB0300174804EB840109D050F82100C4
:1020800041688068711A2A1A184601F0C5F81CE0E8
:1020900000EB8104A268B24201D0012200E00022DC
:1020A000E368AB4201D0012300E000231A430CD0C7
:1020B000236943B150F82100816840686A1A311AD7
:1020C000184600F08CFFC4E90265BDE8704001F0DD
:1020D0005FBA0000B054012002480068407C00F064
:1020E00003B800001401012010B5044600F0DEFB27
:1020F0000A4804EB840100EB810301225A7150F875
:10210000210030B1204610F07BFCBDE8104001F00A
:102110003FBA21460248FFF733FFF6E7B0540120EB
:10212000948B010810B5C2B2CBB2D21A00D552427C
:1021300093B25B43C0F30722C1F30724121B00D5FF
:102140005242000C92B2A0EB114002FB023200B2EC
:10215000002801DA404200B280B200FB002010BD2E
:1021600010B50021084600F073FB43F6FF725042A1
:10217000BDE8104013460146AFF300802DE9FC4155
:102180001C4615460E46074600F090FB04200AF058
:10219000C9F880461248C068C16C006D0F440644FF
:1021A0000D440444ADF80070ADF80450ADF8026081
:1021B000ADF8064068460BF04BFA07E023462A4686
:1021C0003146384609F078FD0BF004FA0028F5D1C5
:1021D00040460AF0A7F801F0DBF9BDE8FC810000F9
:1021E000080101202DE9F0411C4616460D46074620
:1021F000022B02DB0020BDE8F0811C20FFF7DCFD94
:102200000028F8D00DB105610AE0094A52F82410FF
:1022100009B905E011460A68002AFBD10969016184
:1022200084618682002101604160C0E90217E2E713
:102230002C01012070B51D46FFF7D4FF040009D022
:1022400000F00EF8E068006820B90348006800EB71
:1022500085008465204670BD14010120FFF7A0BDF4
:1022600070B590B38269022A30DA1E4C54F82210FD
:1022700019B944F8220032E019464B68002BFBD113
:1022800006E0CB68C5681B682D68AB4203DD0968B2
:102290000029F6D11AE0C1B1CB68C6681B68366860
:1022A000B3420CD1838A012B05D008E01946DB68C4
:1022B0001B68AB4203DB0B68002BF7D129B14B68DD
:1022C00033B118604A68426004E0FFE7012070BD46
:1022D00044F822004860884200D1002101600020BB
:1022E00070BD00002C01012010B503E00468FFF769
:1022F000B7FF20460028F9D110BD10F09DBD0000A9
:102300002DE9F0410026DFF834800D4F354600BF3F
:1023100058F8254009E0E0680068385C20B12046A4
:1023200010F08AFD266026462468002CF3D16D1C2F
:10233000022DEDDB3046BDE8F08100002C010120CC
:10234000F8560108022801DB00207047054951F8C2
:10235000200004E0C16809680029F6D00068002860
:10236000F8D170472C0101202DE9FC4706005FD011
:1023700000F09CFA00F01CFA3C4C81462068B0F951
:10238000228000F037FA216807468A8CD01B8884A7
:1023900041E000BF47F6FF71304601F019FD82466B
:1023A0000146304601F0EAFC2168054691F82C0010
:1023B00000F00300012841D002283BD000204A8CC5
:1023C000101A4884ADF800006A1E1044ADF80400ED
:1023D000888CADF80200A9F101010844ADF80600AF
:1023E0006A465146304601F099FA2168BDF802006C
:1023F00088845146304600F0B9FF064430780A28F8
:102400001ED00D281CD0BDF8000021682844488447
:10241000307818B1761C30780028BBD12068818CC8
:1024200039448184818D21F00301818501F0B0F868
:10243000BDE8FC8705EBD5704010C0E72846BEE735
:10244000206890F82C1001F0030101290BD002291B
:1024500009D0018C418431780A29D9D1828C02EBD0
:1024600009018184D4E7A0F82280F4E71401012057
:1024700070B514460D46064600F018FA0548006887
:10248000458484843046FFF76FFFBDE8704001F05B
:102490007FB80000140101202DE9F04107460A48E9
:1024A00015460E460068B0F92C0040F0020000F01E
:1024B0000FFF04462A4631463846FFF7D9FF20462B
:1024C000BDE8F04100F004BF140101207CB51446C2
:1024D0000D46064600F0EAF911480068C16C006D2F
:1024E0000D4404443188681E0844ADF80400ADF87A
:1024F00000507188601E0844ADF80600ADF8024037
:1025000068460BF0A5F806E0224629463046FFF75C
:1025100053F90BF05FF80028F6D101F039F87CBDD3
:10252000140101207CB514460D46064600F0BEF9A4
:1025300010480068C16C006D0E440544301BADF8B6
:1025400000003019ADF80400281BADF8020028196E
:10255000ADF8060068460BF07BF806E022462946F7
:102560003046FFF777F90BF035F80028F6D101F087
:102570000FF87CBD140101202DE9F0411C461546E1
:102580000E46074600F092F90B480068C16C006DDA
:102590000D44044400200BF05BF807E023462A4674
:1025A000314638460DF084FA0BF014F80028F5D1C6
:1025B000BDE8F04100F0ECBF140101202DE9FC4121
:1025C00014460D46064600F071F9114F3968C86C83
:1025D000096D054404440E44ADF80050ADF80440C4
:1025E000ADF80260ADF8066068460BF031F808E01F
:1025F000386822463146406E0368284698470AF0FC
:10260000E9FF0028F4D100F0C3FFBDE8FC81000021
:102610001401012070B516460C46054600F046F937
:102620000B480068C16C006D0D44044400200BF0A1
:102630000FF806E0324621462846FFF73DF90AF03A
:10264000C9FF0028F6D1BDE8704000F0A1BF00002E
:102650001401012008B50B46002805D0009281889E
:102660008268C08800F001F808BD10B50828029CF7
:1026700030D008DC04FB01F401280AD0022813D072
:10268000042804D11CE0102828D020282CD00020B9
:1026900010BD04EBD30003F00701105CC1F107018A
:1026A000C84000F0010010BD04EB93000621105C4F
:1026B00001EA4301C1F10601C84000F0030010BD6A
:1026C00004EB5300D907105C02D000F00F0010BDDE
:1026D000000910BD04FB0130105C10BD481004FB64
:1026E000003032F8100010BD881004FB003052F8A2
:1026F000200010BD034951F82000C1688A6A0821F2
:10270000104700002C01012010B500F0CFF809F0AF
:1027100003FB09F099FB044600F03AFF204610BD88
:1027200010B5044600F0C2F8054800210068C069F1
:10273000426820469047044600F02AFF204610BD1C
:102740001401012070B50C46054600F0AFF80648AC
:1027500021460068C069426828469047044600F058
:1027600017FF204670BD00001401012010B500F0D5
:102770009DF809F0D9FA09F067FB044600F008FF5C
:10278000204610BD0021022802D2024951F8201033
:10279000084670477801012010B500F087F803481B
:1027A0000068047C00F0F4FE204610BD14010120F6
:1027B00010B500F07BF804480068C069447E00F062
:1027C000E7FE204610BD00001401012070B514463C
:1027D0000D46064600F06AF822462946304609F0C2
:1027E000E9FA10B1002028602060BDE8704000F0D8
:1027F000CFBE000010B5002400F058F80B48006868
:1028000090F82C1001F00C01042904D0082906D0FE
:102810000C2907D103E0C069047E641E02E0C06990
:10282000007E440800F0B4FE204610BD14010120D3
:10283000024951F820000069006870472C0101200E
:10284000024951F820000069406870472C010120BE
:1028500070B50D46044600F029F820460EF072FCD3
:10286000044628460EF076FC044300F091FE204614
:1028700070BD000010B500F081FF0A492E200870DD
:1028800000F0A8FE08480EF045FE09F04EFB044695
:102890000021084600F0EEFC0AF00AFDFFF7E6F919
:1028A000204610BD080101204054012070B5184C8D
:1028B000E06820B100F089FE6168884204D000F031
:1028C000A7FE00F082FE6060E068401CE060012826
:1028D0001CD10EF019FC05462068854216D0002850
:1028E00013DBFFF70DFD01462068C0EB00122069E5
:1028F00000EBC2025167C5EB0511064A00EBC100AF
:10290000011D1160406FFFF7EFFC256070BD0000F6
:10291000B8010120140101201CB5040004D10E48A7
:102920000068046E002C16D0FFF7C0FF2046FFF7AA
:10293000BBFA009044696846FFF7DEFA4CB12046C6
:10294000FFF7B2FA019081688968884701A8FFF70C
:10295000D3FA00F01DFE1CBD1401012001490A46F6
:1029600000F002B801F0FFFF2DE9F04387B01546F3
:102970000C465FEA000846D0FFF798FF002000F001
:1029800009FC814621480068066E4046FFF78CFA34
:1029900000900068806900F0C5FB074640F6FF70B4
:1029A000C44204D10098B0F90440B0F90650009830
:1029B000611E0289ADF804401144ADF80810418948
:1029C000681E0844ADF80650ADF80A000AF022FB74
:1029D0006846FFF791FA01A80AF03AFE06E02A4697
:1029E0002146404600F018FA0AF0F4FD0028F6D11E
:1029F000384600F097FB304600F0A4F8484600F057
:102A0000C9FB00F0C5FD07B0BDE8F083140101204B
:102A100038B50024009400F001F838BD2DE9FE4FD0
:102A2000984691468A46834600270C9EFFF73EFF54
:102A3000184819490068407C51F82040E16809684D
:102A4000042903D02468002CF8D100E01CB9FFF75A
:102A500079FC04001BD0E0680121C26A204690473F
:102A6000050011D02469A0688047401C02D10B4C9E
:102A700046F001060096CDE9015443464A465146C8
:102A8000584600F087F8074600F082FD3846BDE85A
:102A9000FE8F0000140101202C010120948C0108FC
:102AA00038B504001CD0FFF701FF0E480068006E27
:102AB000A04201D100F028FB2046FFF7F5F9009075
:102AC000406908B100F04DFD00980068FFF7C6FBB3
:102AD0006846FFF711FA2046FFF744F900F058FD69
:102AE00038BD00001401012038B505004FF0000486
:102AF00011D0FFF7DBFE2846FFF7D6F900900068FB
:102B000000698068804709F093FF04466846FFF734
:102B1000F3F900F03DFD204638BD38B504000ED075
:102B2000FFF7C4FE2046FFF7BFF900F1180400903C
:102B30006846FFF7E1F900F02BFD204638BD002084
:102B400038BD0000F8B50546FFF7B0FE104E3068FE
:102B5000046ECDB10CB100F0D7FA0AF04FFB284655
:102B6000FFF7A2F9009031680D660068FFF778FB67
:102B70006846FFF7C1F909F05BFC09F09DFB00BF57
:102B800000F006FD2046F8BD00F0BEFAF8E70000B0
:102B9000140101202DE9FF4FDFF8E8B083B01C4697
:102BA000DBF80010DDE9106092464FF000084B7C26
:102BB00042461299FFF716FB050060D0286980682D
:102BC000804709F035FF81460AFB09F1C91DCF088E
:102BD000FFF778F9F10705D1C11700EB917080106C
:102BE00000EB4000002C09DC1FB11838B0FBF7F0F7
:102BF00000E000206442A04200DC0446F00707D158
:102C00000090DDE903012346524600F02FFC804688
:102C1000002C03DC2846FFF721FB30E004FB07F023
:102C20001830F10702D0FFF76FF801E0FFF77BF8EB
:102C300006001CD0FFF738F90190056003998180E8
:102C40000499C180A0F808A04481C0F81480C0E9AC
:102C5000037901A8FFF750F91298AE602861DBF8FC
:102C60000000407CA861304607B0BDE8F08F2846E0
:102C7000FFF7F4FA5FEA080001D0FFF773F80020CD
:102C8000F2E70000140101202DE9F74F8EB0144641
:102C900089460E98FFF708F90990B0F908B0B0F925
:102CA0000A600068006940680C9009A8FFF724F9E1
:102CB000564D574F2868407C57F82000C1688A6AF3
:102CC000082190470790182801D3202007902868F2
:102CD000407C57F820000069069003C80B904D48CF
:102CE000814201D0012000E000200A90002000F085
:102CF000A1FC00287DD1286809EB0B01B0F90C205C
:102D0000891A491E002902DDABEB010500E05D4692
:102D1000B0F90810494505DDA1EB090189446D1A98
:102D2000089101E000210891002D6BDDB0F90E2023
:102D3000A119891A491E002902DDA6EB010800E04D
:102D4000B046B0F90A00A04204DD061B3444A8EBEB
:102D5000060800E00026B8F1000F53DD0898019046
:102D60000DA95F46DDF830A00E980091FFF7D5FE63
:102D7000774300EB870101982B4601EB8002009915
:102D80004846CDE900A1214600F020FE0090002831
:102D900038D00A98E8B1DDE906322946009800F0FB
:102DA000E7FCB0B90698009FDA46D0F810C0BCF135
:102DB000000F05D004235A4639463846E04708E05C
:102DC0000B993868884701C7AAF101005FEA000A39
:102DD000F6D100990020079ACDE903010590012062
:102DE0000090CDE9010221460346641C2A4648466C
:102DF00000E007E008F0D4FDA8F10100761C5FEACE
:102E00000008ABD111B0BDE8F08F00001401012023
:102E10002C010120CBBE0008F8B516460F46050070
:102E200012D0FFF741F8009044696846FFF764F854
:102E30002846FFF759FE0346082800DD2CB132462C
:102E40003946284610F018F8F8BD3246394628466B
:102E500010F0B2F9F8BD0000094A126802B1002072
:102E6000074A1C3252F82030002B07DBA2F118036E
:102E700043F820104FF0FF3142F820107047000057
:102E80005401012010B5002821D009B30AB3B1F9CB
:102E90000040B2F900309C4200DA23460380B1F9C9
:102EA0000240B2F902309C4200DA23464380B1F975
:102EB0000440B2F904309C4200DD23468380B1F91E
:102EC0000610B2F90620914200DC1146C18010BD07
:102ED00011460A6802604968416010BD00280BD0A5
:102EE00003880B44038083881944818041881144FE
:102EF0004180C1881144C180704700002DE9FC4128
:102F0000154DDDE908742D68B5F90860864200DDCD
:102F10003046B5F90C60964200DA3246824219DB3F
:102F2000B5F90A608E4200DD3146B5F90E509D427A
:102F300000DA2B468B420DDB00E02C46E5682D685D
:102F400025B1042D02D02568002DF6D1CDE90074FD
:102F500009F088F8BDE8FC8114010120B0F90220D5
:102F6000B1F906309A4213DCB1F90220B0F906300B
:102F70009A420DDCB0F90020B1F904309A4207DC26
:102F8000B1F90010B0F90400814201DC0120704762
:102F90000020704738B5040020D0FFF787FC20469A
:102FA0000FF0C8FE20460FF03BFF2046FEF77CFFE7
:102FB00000900068FEF7F4FE0098C068FEF7D2FEAD
:102FC0000098C069FEF7CEFE6846FEF795FF2046E2
:102FD000FEF7C8FEBDE8384000F0DABA38BD70B57B
:102FE00015460E4604000AD0FFF760FC2A4631461B
:102FF00020460FF079FABDE8704000F0C9BA70BD04
:1030000038B504001ED0FFF751FC2046FEF74CFFF8
:103010000090007C800710D420460EF0FBFE68462E
:10302000FEF76AFF20460FF019FD2046FEF73CFF31
:103030000090018A41F0020101826846FEF75CFFC0
:1030400000F0A6FA38BD00002DE9F84304460088D8
:10305000089F91468846E8B36088D8B3E06818B105
:10306000806800283BD002E0E088202836D107F0B5
:10307000010200212348FFF7B5F805002ED0208873
:10308000860060884643FFF711FC06F12000FEF73A
:103090004AFE060025D03046AE60FEF705FF0090E0
:1030A00007824461A0F80480A0F80690238808EB0A
:1030B0000301491E018161884944491E418105601F
:1030C0006846FEF719FFE06878B1214630460BF0FC
:1030D000B5F900E002E040B100F05AFA0020BDE886
:1030E000F8832846FFF7BAF8F6E7B80705D5304663
:1030F0000EF090FE30460FF0B1FC00F049FA304679
:10310000EDE70000388C010810B5FFF7CFFB09F0A0
:1031100075F809F08DF909F07DFFBDE8104000F069
:1031200037BA000070B50B4D04462868467CFFF79F
:10313000BDFB022C09D22046FFF704F928B128680C
:103140004474FFF7E1FF0448046000F021FA3046C0
:1031500070BD000014010120E001012010B50446FB
:10316000FFF7A4FB204609F07DF8BDE8104000F011
:103170000FBA10B50446FFF799FB204609F0AAF8EC
:10318000BDE8104000F004BA0149886070470000B3
:103190000801012010B50446FFF788FB204609F01E
:1031A000C1F8044600F0F4F9204610BD70B504469D
:1031B000FFF77CFB04480068C56904B1C46100F0F6
:1031C000E7F9284670BD0000140101200149C861DB
:1031D00070470000D8000120014948607047000096
:1031E000080101200149086070470000D800012053
:1031F0000149486070470000D800012070B50C46B6
:103200000546FFF753FB2146284609F017F8044608
:1032100000F0BEF9204670BD70B514460D46064656
:10322000FFF744FB22462946304609F097F804464A
:1032300000F0AEF9204670BD70B514460D46064646
:10324000FFF734FB22462946304609F09DF8044634
:1032500000F09EF9204670BD70B50C460546FFF79C
:1032600025FB2146284609F0CFF8044600F090F9E6
:10327000204670BD70B50C460546FFF717FB0948A0
:10328000224605800848048008480068417C0848B8
:1032900050F82100C1680B6A29469847BDE8704084
:1032A00000F076B9440101204601012014010120FB
:1032B0002C01012070B50546FFF7F8FA03480068B5
:1032C000047E057600F064F9204670BD14010120EB
:1032D00070B50446FFF7EAFA04480068B0F92C50CC
:1032E000848500F055F9284670BD000014010120C6
:1032F00070B50446FFF7DAFA04480068B0F92A50BE
:10330000448500F045F9284670BD000014010120F5
:1033100002480068002800D0004770475C02012086
:1033200002498A6802B98860FFF7F2BF4C020120A7
:1033300002490968491C014A116070477000012068
:103340002DE9F041084E04460568306801682846BA
:1033500088470746306841682846884728442060E7
:103360003846BDE8F0810000180101202DE9F04148
:103370000C4606460025064F05E038684168304691
:10338000884706440544641EF7D22846BDE8F0810C
:10339000180101202DE9F0411E46069C174688467B
:1033A00005463A46A8687F1C3346D0F804C041461B
:1033B0002846E047641EF4D1BDE8F08170B5B0F94D
:1033C0000040091BB0F904408C422CDD00F11404CC
:1033D000B0F902500069521B02FB0040CA1800EB12
:1033E000E104521ED010B0EBE10501F007034FF0ED
:1033F000FF0102F0070221FA03F0C2F1070201FA0D
:1034000002F1CEB221780FD001436D1E04F8011BEA
:10341000002D05DDFF2229462046FDF780F92C44CA
:1034200020783043207070BD30400143217070BD62
:1034300010B5B0F90030B0F90240C91A00F1140318
:103440000069121B02FB003000EBE10001F00703F2
:1034500002788021D9400A43027010BDB0F90610ED
:10346000026951431430FDF762B900002DE9F843B9
:10347000804602F10F000011470003FB07F01C46D5
:10348000154689461430FEF74EFC060018D0FFF7AB
:103490000DFA3046FEF708FD0090A0F80080A0F875
:1034A00002908580C4800749816001218181076184
:1034B0006846FEF721FD00F06BF83046BDE8F88362
:1034C0000020FBE7C0B4010870B5B0F90660B0F9A0
:1034D00004400B6800F1140596421BDD0069A3420D
:1034E00002FB005000EBE30214DA641EE010A0EBD4
:1034F000E30512F8010B03F00704A040C4B206E094
:1035000045B1083312F8014B23F007036D1E002C60
:10351000F6D004E0002070BD6006040E5B1C20069F
:10352000FAD5FF2C07D0184602E06406240E401C92
:103530006606FAD400E0D81DC443640705D006E04F
:1035400012F8014BFF2C09D108306D1EF8D5C01AB6
:10355000401C0B6070BD6206140E401C2206FAD49B
:10356000F5E738B50546FFF7A1F92846FEF79CFCBC
:1035700000908189491E0CB284816846FEF7BCFC2C
:1035800014B92846FEF7EEFB00F002F838BD000043
:103590000348C168491EC16001D100F043B87047BB
:1035A000B801012010B54FF400110348FEF7D2FB1B
:1035B0000248FFF7E9FD10BD000020C0305E0108A1
:1035C00010B5012010F036FD10BD10B510F00AFE48
:1035D00010BD000010B500220121054810F014FEB6
:1035E0000449086001210348006810F027FE10BD5F
:1035F0002C5601087400012010B5034810F07AFD24
:103600000249086010BD000034560108780001200E
:1036100010B54FF0FF310248006810F08FFD10BD6B
:103620007800012010B50248006810F07BFD10BD45
:10363000780001200EB508B102AA00E000220023A4
:1036400001A9684600F04CFB0EBD000010B5082A29
:103650000EDC0346012A18D0022A56D0042A76D05E
:1036600010F8042B03F8012B491EF9D1012010BDDD
:10367000102A08DC4FEA000230F8043B22F8023B33
:10368000491EF9D1F2E7002010BD10F8042BD20733
:10369000120E491E34D010F8044B491E04F00104E8
:1036A00042EA84122CD010F8044B491E04F00104A5
:1036B00042EA441224D010F8044B491E04F00104DD
:1036C00042EA04121CD010F8044B491E04F0010415
:1036D00042EAC40214D010F8044B491E04F001045D
:1036E00042EA84020CD010F8044B491E04F0010495
:1036F00042EA440204D010F8044B04F001042243CF
:1037000003F8012B0029C0D1B0E710F8042B920771
:10371000120E491E15D010F8044B491E04F0030484
:1037200042EA04120DD010F8044B491E04F00304C1
:1037300042EA840205D010F8044B04F0030422434B
:10374000491E03F8012B0029DFD18FE7FFE710F8AE
:10375000042B1207120E491E05D010F8044B04F07A
:103760000F042243491E03F8012B0029EFD17DE706
:1037700038B50024009400F01DF838BD0B4810B592
:103780008169002910D101218161FFF70BFFFEF74C
:1037900099FA08F05FFE054905481C310860BDE84C
:1037A0001040084600F048BC10BD00000801012090
:1037B0009D1E01082DE9F0410D460699044601B908
:1037C00001461F68082A09DC0E46012A1AD0022A7F
:1037D0005BD0042A7DD0082A13D18DE0102A07DCA3
:1037E000D3F810C00E46BCF1000F04D0022389E0CC
:1037F0000020BDE8F08101CCB84726F8020B6D1E11
:10380000F9D189E001CCB847C0074FEA10686D1EB6
:1038100036D001CCB84748EA801000F0FF086D1E92
:103820002ED001CCB84748EA401000F0FF086D1ECA
:1038300026D001CCB84748EA001000F0FF086D1E02
:103840001ED001CCB84748EAC00000F0FF086D1E4A
:1038500016D001CCB84748EA800000F0FF086D1E82
:103860000ED001CCB84748EA400000F0FF086D1EBA
:1038700006D001CCB84740EA080000F0FF086D1EF2
:1038800006F8018B002DBDD146E001CCB84780077A
:103890004FEA10686D1E16D001CCB84748EA0010F8
:1038A00000F0FF086D1E0ED001CCB84748EA80003A
:1038B00000F0FF086D1E06D001CCB84740EA0800B2
:1038C00000F0FF086D1E06F8018B002DDDD123E00E
:1038D000FFE701CCB84700074FEA10686D1E06D01D
:1038E00001CCB84740EA080000F0FF086D1E06F85A
:1038F000018B002DEDD10FE0D3F810C0BCF1000F0B
:1039000004D001232A462046E04705E001CCB84711
:1039100006F8010B6D1EF9D101206AE77CB5064659
:1039200028480D46006868B1002009F091FE06E0C5
:103930006A46294630460AF047FD09F04BFE00284A
:10394000F6D17CBD106800901F4C50680190226831
:10395000BDF8000032F84C1F0844ADF80000BDF877
:10396000020091880844ADF80200BDF804001188F7
:103970000844ADF80400BDF8060091880844ADF88D
:103980000600684609F064FE0EE000BF2068BDF83E
:1039900000106A464184BDF80210818429463046F1
:1039A0000AF012FD09F016FE0028EFD1206830F869
:1039B000221F428D891A01804188C28D891A418057
:1039C0007CBD000040010120140101202DE9FF4FC2
:1039D0008DB00020DDF86CA0164600901D46044610
:1039E0000246CAF8000008AB03A902A800F078F963
:1039F00018B1002011B0BDE8F08F0898854200DDB5
:103A00000546614F0B9561493868407C51F820109C
:103A1000049109690691FEF76DFE05903868407CB7
:103A2000FEF70EFF5A498146884204D0594989451C
:103A300001D0012000E000200A9001CE1A998847A9
:103A40008346000E079077D0009870BB0D9800EB6E
:103A500004084D480068B0F90800404503DDA0EBBC
:103A60000807804600E000270298049900EB8400D4
:103A700000EB8700CDE900010B990D9842180992DF
:103A80000E9B40461946521EFFF738FA012000905F
:103A9000059818280ADA0298DDE9052300EB84006E
:103AA00000EB8700E91B00F079F812E00A9880B17A
:103AB000029800EB840000EB87070998A0EB080848
:103AC00049463868884701C7A8F101005FEA000845
:103AD000F6D13148C06980B3DDE9020700EB84000C
:103AE00007EB8402CDE902022B4C361F3046E46915
:103AF0002B460299A047FF213068B1EB106F02D12D
:103B00000298006804E0029A1268B1EB126F01D1CA
:103B1000039A1060029806F10406001D02900398B3
:103B2000001D03906D1EE7D10397DAF8000040F006
:103B30000101CAF8001020E021E0FFE70798FF2804
:103B400011D0C0F1FF02029850F82410584600F03E
:103B500019FA039941F82400DAF8000040F0010155
:103B6000CAF8001005E00298039950F8240041F8C3
:103B70002400641C6D1E7FF460AF03983AE703993C
:103B800041F824B0E8E70000140101202C010120D5
:103B9000CBBE0008C9BE0008D80001202DE9F05FA7
:103BA0000C1E16DD5E68014600EB8405082A12DC57
:103BB000611E012A26D0022A47D0042A6AD0082A88
:103BC00007D1071917F8010DB04745F8040D641E19
:103BD000F8D1BDE8F09F102AFBDC5F693FB12246B7
:103BE000BC46BDE8F04F02235DF804EB604701EBF3
:103BF000440700BF37F8020DB04745F8040D641EB6
:103C0000F8D1E6E700EBE10001F0070710F801A9A1
:103C10008146802020FA07F8B5F104050AEA080079
:103C2000C7F10701C840B04745F804093FB14FEA62
:103C300048604FEA10687F1E641EEFD1C9E719F88B
:103C400001A907274FF00108F6E700EBA10001F0FA
:103C5000030710F801A981467900C02020FA01F875
:103C60004FF0060BB5F104050AEA0800ABEB47017B
:103C7000C840B04745F804093FB14FEA88604FEAB1
:103C800010687F1E641EEFD1A3E7032719F801A96E
:103C9000B846F7E700EB6100012710F801A9A74338
:103CA0008146B900F02020FA01F84FF0040B2D1FD7
:103CB0000AEA0800ABEB8701C840B04745F80409A1
:103CC0003FB14FEA08704FEA10687F1E641EEFD1C3
:103CD0007FE719F801A901274FF00F08F6E7000068
:103CE0002DE9F047224C06461F46A06990468946BA
:103CF000002540B90120A06104F120011D480860A1
:103D0000084600F099F9606930B91B4800686061A5
:103D100010B908F068F8606107B138604EB1A0686A
:103D200030B960698000FEF747F8A06000B901254E
:103D30003060B9F1000F0AD0E06830B960698000E6
:103D4000FEF73AF8E06000B90125C9F80000B8F1C3
:103D5000000F0AD0206930B960698000FEF72CF8A6
:103D6000206100B90125C8F800002846BDE8F087A9
:103D7000D8000120411E01083801012073B5124A04
:103D800001A900981268904700240090C8B10F491B
:103D900000250968C969496959B10A684AB1019998
:103DA00090477CBD6846FFF7CBFA0546FEF7B8FCA6
:103DB00004440198401E0190F4D5284600F024F8F0
:103DC000044420467CBD00006C0201201401012047
:103DD00073B50D460098002490B10A490968C96975
:103DE000496959B14A684AB1294690477CBD68463D
:103DF000FFF7A6FA20B10A2802D0641CAC42F6DB19
:103E000020467CBD1401012038B500246946009489
:103E1000FEF798FC0099814200DD0C1A204638BD5F
:103E2000B0F90030B1F90020934200DA0280B0F915
:103E30000230B1F90220934200DA4280B0F9043036
:103E4000B1F90420934200DD8280B0F90620B1F977
:103E500006108A4200DDC180704770B5B1F900409C
:103E6000B2F900309C4200DD23460380B1F90250D4
:103E7000B2F90240A54200DD2C464480B1F904604D
:103E8000B2F90450AE4200DA35468580B1F9061029
:103E9000B2F90620914200DB1146C1809D4201DB50
:103EA000A14201DA002070BD012070BD0146024828
:103EB0000068407C00F002B8140101202DE9F843AD
:103EC000012604468946022857DADFF8B480080044
:103ED00008F1040530D0012802D002294DD116E0A6
:103EE00055F8240088B92046FEF72CFA009010B34C
:103EF000C0680D21426A6846904702003DD049469D
:103F00000098904755F824000026401C33E02046D6
:103F1000FEF718FA009070B1C0680D21426A684639
:103F20009047040029D0D8F8000000B180474946E6
:103F30000098A047002620E055F82400012813D15E
:103F40002046FEF7FFF9009070B1C0680D21426A6B
:103F500068469047070007D0D8F8000000B18047B6
:103F600049460098B847002655F8240008B10121B9
:103F700000E00021401A45F824003046BDE8F883EF
:103F80003802012070B5FF23B3EB116F2CD0C3B200
:103F900013FB02F500F47F4400F47F0354435343C2
:103FA000000E10FB02F6C2F1FF00CAB212FB005273
:103FB00001F47F4505FB004401F47F0505FB003358
:103FC000090E11FB0065C2F307204FF47F024FF486
:103FD0007F4102EA132201EA14214FF07F43084394
:103FE00003EA05431043184370BD2DE9F04F064620
:103FF000DDE90CB915460C4600208046584519D21B
:104000000B9F4FF0FF0A01CE08CCAAEB106202FB17
:1040100009F2B2FBFAF1CAB21946FFF7B3FF20F07A
:104020007F4001C57F1EEED1099804EB800408F1A2
:104030000100E2E7BDE8F08F02494A694260486149
:10404000704700000801012010B502E000F8011BD4
:10405000521E0AB18307F9D1930818D001EB01442D
:1040600002F0030204EB042406E010C01B1F10C082
:1040700040F8084B40F8044C042BF6DA01E010C07D
:104080005B1E002BFBD102E000F8011B521E002A30
:10409000FAD110BD7047000038B505460C46002027
:1040A00000902068122802D92068102800D104E06E
:1040B00040F21D4173480FF057FB606818B160680B
:1040C000102800D804E040F21E416E480FF04CFB6F
:1040D000A068A0B1A068012811D0A06802280ED065
:1040E000A06803280BD0A068042808D0A068052881
:1040F00005D0A068062802D0A068072800D104E0F7
:1041000040F21F415F480FF02FFB00BF95F83C00C5
:10411000012801D1022038BD012085F83C0000BFF4
:104120002068092816D92868C06821780A3901EB67
:1041300041020721914088432968C86021780A39E3
:1041400001EB4101A06888402968C96808432968D3
:10415000C86013E028680069217801EB410207215B
:104160009140884329680861217801EB4101A068EA
:104170008840296809690843296808616068072838
:1041800017D22868406B2179491E01EB81021F215B
:104190009140884329684863208880B22179491E6C
:1041A00001EB810188402968496B0843296848630D
:1041B00031E060680D2817D22868006B2179C91F8B
:1041C00001EB81021F219140884329680863208800
:1041D00080B22179C91F01EB810188402968096BF0
:1041E00008432968086316E02868C06A21790D39F8
:1041F00001EB81021F21914088432968C862208811
:1042000080B221790D3901EB810188402968C96AA2
:1042100008432968C8621C492868884208D1206878
:10422000122805D11948006840F48000C1F8040341
:104230001549286888421ED12068102802D02068BD
:10424000112818D11148006840F400000F49086097
:10425000206810280FD10E4800680E49B0FBF1F01D
:1042600000EB80004000009002E00098401E0090AB
:1042700000980028F9D100BF002085F83C0000BF5D
:1042800000BF48E71CB5010800200140042301409D
:104290006C00012040420F0010B50446044800F0B5
:1042A0007DFA4FF2F001034800680FF05FFF10BD88
:1042B00070020120000001207047704770B504466D
:1042C00000250026A06910B1A069012800D104E0F2
:1042D0004FF4377162480FF047FA206A18B1206A2C
:1042E000102800D804E040F2DD215D480FF03CFAD0
:1042F0006069012804D0606910B16069022800D1AA
:1043000004E040F2DE2156480FF02EFA20680068E3
:10431000C0F3400520684068C0F34016002D3DD032
:10432000E6B394F83D00252803D1352084F83D00FC
:1043300002E0152084F83D00A06940BB2068806839
:1043400000F0405018BB606960B92068406820F0F8
:104350002000216848602068406820F08060216863
:10436000486014E0606B08B9206A6063606B401EAF
:104370006063606B58B92068406820F020002168B5
:1043800048602068406820F08060216848602046CE
:10439000FFF782FF6FF00200216808602068006864
:1043A000C0F3800520684068C0F3C01655B34EB313
:1043B00094F83D00152803D1352084F83D0002E033
:1043C000252084F83D0020684068012121EA9025DD
:1043D0002068806800F4401008B9012000E0002047
:1043E0000646A06900B135B12EB12068406820F0C2
:1043F0008000216848602046FFF74CFE6FF0040003
:10440000216808602068006800F0010520684068A5
:10441000C0F3801655B14EB1062084F83D006FF010
:10442000010021680860204600F02EF9206800682D
:10443000C0F3401520684068C0F3806675B16EB166
:10444000042084F83D00206C40F0010020646FF0EF
:104450002000216808602046FFF72FFF70BD000094
:104460001CB5010810B504460CB9012010BD8149E6
:104470002068884207D080492068884203D07F495D
:104480002068884200D104E04FF486717C480FF028
:104490006BF9606858B16068B0F5803F07D060681C
:1044A000B0F5003F03D06068B0F5403F00D104E0B4
:1044B00040F20D1172480FF057F9A06858B1A0688A
:1044C000B0F1807F07D0A068B0F1007F03D0A06872
:1044D000B0F1407F00D104E04FF4877168480FF0DD
:1044E00043F9206910B12069012800D104E040F2AD
:1044F0000F1163480FF038F9A06910B1A0690128C5
:1045000000D104E04FF488715D480FF02DF9E06AA6
:10451000D8B3E06AB0F1807F37D0E06AB0F1007FB5
:1045200033D0E06AB0F1407F2FD0E06AB0F1806F05
:104530002BD0E06AB0F1A06F27D0E06AB0F1C06F75
:1045400023D0E06AB0F1E06F1FD0E06AB0F1006FF5
:104550001BD0E06AB0F1106F17D0E06AB0F1206FA5
:1045600013D0E06AB0F1306F0FD0E06AB0F1406F65
:104570000BD0E06AB0F1506F07D0E06AB0F1706F15
:1045800003D04049E06A884200D104E040F21111B2
:104590003B480FF0E9F8E06818B1E068B0F5006F4B
:1045A00000D104E04FF4897135480FF0DDF8206A3E
:1045B00018B1206A102800D804E040F213113048E6
:1045C0000FF0D2F8E06910B1E069012800D104E0F1
:1045D0004FF48A712A480FF0C7F86069012804D0A7
:1045E000606910B16069022800D104E040F2151141
:1045F00023480FF0B9F8606A10B1606A012800D151
:1046000004E04FF48B711E480FF0AEF81D49E06ACC
:10461000884213D0206B58B1206BB0F1805F07D077
:10462000206BB0F1005F03D0206BB0F1405F00D190
:1046300004E04FF48D7112480FF096F894F83D00A5
:1046400028B9002084F83C00204600F01EF8022023
:1046500084F83D002046FCF7B9F9002020640120D1
:1046600084F83D0000BF002084F83C0000BF00BF7C
:10467000FCE6000000200140002101400022014032
:104680001CB501080100000F70477047F8B50446DB
:104690000D46164600200090A06910B1A0690128BF
:1046A00000D104E040F2673136480FF05DF8206B2E
:1046B00058B1206BB0F1805F07D0206BB0F1005F84
:1046C00003D0206BB0F1405F00D104E04FF45A7189
:1046D0002C480FF049F800BF94F83C00012801D1A4
:1046E0000220F8BD012084F83C0000BF206840682B
:1046F00040F08060216848602068806840F48070E5
:10470000216888602048A16BC8632048A16B0864B9
:104710001F48A16B8864226802F14C0133462A4687
:10472000A06B03F0B1FC122084F83D0000BF002014
:1047300084F83C0000BF2068806800F00100A0B948
:104740002068806840F00100216888601148006896
:104750001149B0FBF1F000EB4000009002E000983E
:10476000401E009000980028F9D12068806800F071
:10477000405028B92068806840F0804021688860F7
:104780000020AEE71CB501089D080008DD08000800
:10479000C10800086C00012040420F0010B504461B
:1047A0002068806820F001002168886020684068E7
:1047B00020F08060216848602068806820F4807064
:1047C00021688860A06B00F005F8012084F83D00A6
:1047D000002010BD70B5044600252068006820F058
:1047E00001002168086003F02FFF054612E003F086
:1047F0002BFF401BB0F57A7F0CD9E06C40F0200015
:10480000E06400BF002084F8340000BF032084F877
:10481000350070BD2068006800F001000028E6D176
:1048200000BF84F8340000BF012084F83500002068
:10483000EFE70000014609B90120704791F8350003
:10484000022801D10120F8E70868006820F0010083
:104850000A68106000200A6810600A6850600A68E0
:1048600090600A68D0600A68106121200A6850616F
:10487000F94A086890425CD9F84A0868904201D128
:10488000F74852E0F44A483A0868904201D1F448A7
:104890004BE0F24A60320868904201D1F04844E0AF
:1048A000ED4A18320868904201D1ED483DE0EB4AEC
:1048B00018320868904201D1801536E0E64A303A55
:1048C0000868904201D180152FE0E44A78320868E8
:1048D000904201D1801528E0DF4A303208689042CA
:1048E00001D1801521E0DD4A30320868904202D1C2
:1048F0004FF4802019E0D84A183A0868904202D153
:104900004FF4802011E0D54A90320868904202D1DD
:104910004FF4802009E0D04A48320868904202D122
:104920004FF4802001E04FF08070CB4A4C3A106089
:104930001FE1CA4AA832086890425CD9C74A086891
:10494000904201D1C64852E0C34A483A08689042B2
:1049500001D1C3484BE0C14A60320868904201D19E
:10496000BF4844E0BC4A18320868904201D1BC48B4
:104970003DE0BA4A18320868904201D1801536E00D
:10498000B54A303A0868904201D180152FE0B34A09
:1049900078320868904201D1801528E0AE4A303262
:1049A0000868904201D1801521E0AC4A3032086895
:1049B000904202D14FF4802019E0A74A183A0868C3
:1049C000904202D14FF4802011E0A44A903208684E
:1049D000904202D14FF4802009E09F4A4832086893
:1049E000904202D14FF4802001E04FF080709A4A4B
:1049F000503A1060BDE0994A4832086890425CD94C
:104A0000964A0868904201D1954852E0924A483A45
:104A10000868904201D192484BE0904A60320868A1
:104A2000904201D18E4844E08B4A18320868904287
:104A300001D18B483DE0894A18320868904201D183
:104A4000801536E0844A303A0868904201D18015DA
:104A50002FE0824A78320868904201D1801528E020
:104A60007D4A30320868904201D1801521E07B4AAE
:104A700030320868904202D14FF4802019E0764A23
:104A8000183A0868904202D14FF4802011E0734A2E
:104A900090320868904202D14FF4802009E06E4ABB
:104AA00048320868904202D14FF4802001E04FF074
:104AB00080706A4A103AD0605BE0684A08689042A9
:104AC00001D1674852E0644A483A0868904201D1EF
:104AD00063484BE0614A60320868904201D1604807
:104AE00044E05D4A18320868904201D15C483DE0DC
:104AF0005A4A18320868904201D1801536E0564A69
:104B0000303A0868904201D180152FE0534A78323C
:104B10000868904201D1801528E04F4A3032086879
:104B2000904201D1801521E04C4A30320868904211
:104B300002D14FF4802019E0474A183A08689042A1
:104B400002D14FF4802011E0444A9032086890422C
:104B500002D14FF4802009E03F4A48320868904271
:104B600002D14FF4802001E04FF080703B4A103AB0
:104B70009060394A086890425CD9384A0868904287
:104B800001D1202052E0344A483A0868904201D1CD
:104B900020204BE0314A60320868904201D1202049
:104BA00044E02D4A18320868904201D120203DE0AF
:104BB0002A4A18320868904201D1C01436E0264AC9
:104BC000303A0868904201D1C0142FE0234A78326D
:104BD0000868904201D1C01428E01F4A30320868AA
:104BE000904201D1C01421E01C4A30320868904242
:104BF00002D14FF4001019E0174A183A08689042A1
:104C000002D14FF4001011E0144A9032086890422B
:104C100002D14FF4001009E00F4A48320868904270
:104C200002D14FF4001001E04FF000600A4A4C3A04
:104C3000106021E1094AA8320868904260D9074A09
:104C40000868904201D1202056E0034A483A08689B
:104C5000904207D120204FE058640240106002408B
:104C600004008000F84A0868904201D1202043E007
:104C7000F64A0868904201D120203DE0F24A483AC5
:104C80000868904201D1C01436E0F04A483A0868FA
:104C9000904201D1C0142FE0EB4A183208689042CC
:104CA00001D1C01428E0E94A18320868904201D1C5
:104CB000C01421E0E44A303A0868904202D14FF42F
:104CC000001019E0E14A303A0868904202D14FF4EE
:104CD000001011E0DC4A30320868904202D14FF4F3
:104CE000001009E0D94A30320868904202D14FF4EE
:104CF000001001E04FF00060D44A683A1060BBE059
:104D0000D14A183A086890425BD9CF4A603A08689D
:104D1000904201D1202050E0CC4A603A086890428D
:104D200001D1202049E0C84A0868904201D12020E2
:104D300043E0C64A0868904201D120203DE0C24AC3
:104D4000483A0868904201D1C01436E0BF4A483A58
:104D50000868904201D1C0142FE0BB4A183208689D
:104D6000904201D1C01428E0B84A18320868904235
:104D700001D1C01421E0B44A303A0868904202D10F
:104D80004FF4001019E0B14A303A0868904202D15D
:104D90004FF4001011E0AC4A30320868904202D162
:104DA0004FF4001009E0A94A30320868904202D15D
:104DB0004FF4001001E04FF00060A34A703AD06059
:104DC0005AE0A14A603A0868904201D1202050E0A0
:104DD0009E4A603A0868904201D1202049E09A4AF0
:104DE0000868904201D1202043E0984A0868904228
:104DF00001D120203DE0944A483A0868904201D110
:104E0000C01436E0914A483A0868904201D1C01473
:104E10002FE08D4A18320868904201D1C01428E072
:104E20008A4A18320868904201D1C01421E0864AAB
:104E3000303A0868904202D14FF4001019E0834ADA
:104E4000303A0868904202D14FF4001011E07E4AD7
:104E500030320868904202D14FF4001009E07B4ADA
:104E600030320868904202D14FF4001001E04FF058
:104E70000060754A703A9060744A183A0868904227
:104E80005BD9714A603A0868904201D1082050E02D
:104E90006E4A603A0868904201D1082049E06A4AA7
:104EA0000868904201D1082043E0684A08689042AF
:104EB00001D108203DE0644A483A0868904201D197
:104EC000401536E0614A483A0868904201D14015E1
:104ED0002FE05D4A18320868904201D1401528E061
:104EE0005A4A18320868904201D1401521E0564ACA
:104EF000303A0868904202D14FF4002019E0534A3A
:104F0000303A0868904202D14FF4002011E04E4A36
:104F100030320868904202D14FF4002009E04B4A39
:104F200030320868904202D14FF4002001E04FF087
:104F30000070464A643A10601EE1434A48320868ED
:104F400090425BD9404A603A0868904201D10820FB
:104F500050E03E4A603A0868904201D1082049E09A
:104F6000394A0868904201D1082043E0374A08686E
:104F7000904201D108203DE0334A483A0868904207
:104F800001D1401536E0314A483A0868904201D1D3
:104F900040152FE02C4A18320868904201D1401584
:104FA00028E02A4A18320868904201D1401521E0D1
:104FB000254A303A0868904202D14FF4002019E0A7
:104FC000224A303A0868904202D14FF4002011E0A2
:104FD0001D4A30320868904202D14FF4002009E0A7
:104FE0001A4A30320868904202D14FF4002001E0A2
:104FF0004FF00070154A683A1060BDE0124A183A46
:10500000086890425DD9104A603A0868904201D120
:10501000082052E00D4A603A0868904201D1082009
:105020004BE0094A0868904201D1082045E0074A50
:105030000868904201D108203FE0034A483A0868D6
:10504000904205D1401538E0706002407064024023
:10505000FA4A0868904201D140152EE0F84A0868E3
:10506000904201D1401528E0F44A6032086890422D
:1050700001D1401521E0F24A483A0868904202D135
:105080004FF4002019E0ED4A18320868904202D12E
:105090004FF4002011E0EA4A18320868904202D129
:1050A0004FF4002009E0E54A78320868904202D1C6
:1050B0004FF4002001E04FF00070E14A883AD060E0
:1050C0005AE0DF4A783A0868904201D1082050E05F
:1050D000DA4A183A0868904201D1082049E0D84AD3
:1050E000183A0868904201D1082042E0D34A483279
:1050F0000868904201D108203BE0D14A603A086834
:10510000904201D1401534E0CC4A0868904201D168
:1051100040152EE0CA4A0868904201D1401528E0A7
:10512000C64A60320868904201D1401521E0C44A65
:10513000483A0868904202D14FF4002019E0BF4A73
:1051400018320868904202D14FF4002011E0BC4AA6
:1051500018320868904202D14FF4002009E0B74AA3
:1051600078320868904202D14FF4002001E04FF0FD
:105170000070B34A883A9060B04A30320868904272
:105180005BD9AF4A783A0868904201D1AD4850E007
:10519000AA4A183A0868904201D1AA4849E0A84AA8
:1051A000183A0868904201D1A64842E0A34A483222
:1051B0000868904201D1A3483BE0A14A603A0868E0
:1051C000904201D1402034E09C4A0868904201D1CD
:1051D00040202EE09A4A0868904201D1402028E001
:1051E000964A60320868904201D1402021E0944AFA
:1051F000483A0868904202D14FF4803019E08F4A53
:1052000018320868904202D14FF4803011E08C4A85
:1052100018320868904202D14FF4803009E0874A82
:1052200078320868904202D14FF4803001E04FF4A8
:105230008000824A1C3A106021E1814A30320868BD
:1052400090425BD97E4A783A0868904201D17D4805
:1052500050E07A4A183A0868904201D1794849E00A
:10526000774A183A0868904201D1764842E0734A7A
:1052700048320868904201D172483BE0704A603A77
:105280000868904201D1402034E06C4A086890429E
:1052900001D140202EE06A4A0868904201D14020A6
:1052A00028E0664A60320868904201D1402021E03F
:1052B000634A483A0868904202D14FF4803019E0BE
:1052C0005E4A18320868904202D14FF4803011E0F3
:1052D0005B4A18320868904202D14FF4803009E0EE
:1052E000564A78320868904202D14FF4803001E08B
:1052F0004FF48000514A203A1060C0E0504A303AE2
:10530000086890425BD94E4A783A0868904201D1C9
:105310004C4850E0494A183A0868904201D149483F
:1053200049E0474A183A0868904201D1454842E0AE
:10533000424A48320868904201D142483BE0404A24
:10534000603A0868904201D1402034E03B4A086846
:10535000904201D140202EE0394A0868904201D1A4
:10536000402028E0354A60320868904201D1402050
:1053700021E0334A483A0868904202D14FF4803025
:1053800019E02E4A18320868904202D14FF480305A
:1053900011E02B4A18320868904202D14FF4803055
:1053A00009E0264A78320868904202D14FF48030F2
:1053B00001E04FF48000224A883AD0605FE0204A42
:1053C000783A0868904201D11E4855E01B4A183AC5
:1053D0000868904201D11B484EE0194A183A086803
:1053E000904201D1174847E0144A48320868904279
:1053F00001D1144840E0124A603A0868904201D155
:10540000402039E00D4A0868904201D1402033E045
:105410000B4A0868904201D140202DE0074A6032D3
:105420000868904201D1402026E0054A483A0868C1
:10543000904209D14FF480301EE000002864024001
:105440008860024001008000D14A0868904202D181
:105450004FF4803010E0CF4A0868904202D14FF4F8
:10546000803009E0CA4A60320868904202D14FF4A5
:10547000803001E04FF48000C64AA03A9060C44AF0
:105480001832086890425BD9C24A903A0868904244
:1054900001D1102050E0BE4A303A0868904201D154
:1054A000102049E0BB4A303A0868904201D11020F0
:1054B00042E0B74A30320868904201D110203BE008
:1054C000B44A783A0868904201D1001534E0B04AF5
:1054D000183A0868904201D100152DE0AD4A183AFB
:1054E0000868904201D1001526E0A94A48320868B0
:1054F000904201D100151FE0A64A603A0868904228
:1055000002D14FF4801017E0A14A0868904202D1FE
:105510004FF4801010E09F4A0868904202D14FF487
:10552000801009E09A4A60320868904202D14FF434
:10553000801001E04FF08060954A343A10601CE121
:10554000944A1832086890425BD9924A903A0868A7
:10555000904201D1102050E08D4A303A08689042C4
:1055600001D1102049E08B4A303A0868904201D1BD
:10557000102042E0864A30320868904201D1102063
:105580003BE0844A783A0868904201D1001534E043
:105590007F4A183A0868904201D100152DE07D4AF3
:1055A000183A0868904201D1001526E0784A48323E
:1055B0000868904201D100151FE0764A603A0868F9
:1055C000904202D14FF4801017E0714A086890426F
:1055D00002D14FF4801010E06E4A0868904202D168
:1055E0004FF4801009E06A4A60320868904202D1A4
:1055F0004FF4801001E04FF08060654A383A106047
:10560000BBE0644A483A086890425BD9614A903AE4
:105610000868904201D1102050E05D4A303A086895
:10562000904201D1102049E05A4A303A086890422D
:1056300001D1102042E0564A30320868904201D130
:1056400010203BE0534A783A0868904201D1001597
:1056500034E04F4A183A0868904201D100152DE015
:105660004C4A183A0868904201D1001526E0484A91
:1056700048320868904201D100151FE0454A603A5F
:105680000868904202D14FF4801017E0404A086841
:10569000904202D14FF4801010E03E4A08689042D8
:1056A00002D14FF4801009E0394A60320868904214
:1056B00002D14FF4801001E04FF08060354AA03AEB
:1056C000D0605AE0334A903A0868904201D11020E5
:1056D00050E02F4A303A0868904201D1102049E04A
:1056E0002C4A303A0868904201D1102042E0284A02
:1056F00030320868904201D110203BE0254A783AC8
:105700000868904201D1001534E0214A183A08682F
:10571000904201D100152DE01E4A183A08689042C7
:1057200001D1001526E01A4A48320868904201D19A
:1057300000151FE0174A603A0868904202D14FF402
:10574000801017E0124A0868904202D14FF480108E
:1057500010E0104A0868904202D14FF4801009E02E
:105760000B4A60320868904202D14FF4801001E089
:105770004FF08060074AA03A90600020C86481F82A
:10578000350000BF81F8340000BF00BFFFF755B8F7
:1057900040640240A060024010B50446F949206808
:1057A00088425DD9F74854380068F74A2168914229
:1057B00001D1082152E0F34A483A2168914201D1CF
:1057C00008214BE0F04A60322168914201D1082162
:1057D00044E0EC4A18322168914201D108213DE0B1
:1057E000E94A18322168914201D1491536E0E54A6B
:1057F000303A2168914201D149152FE0E24A7832CE
:105800002168914201D1491528E0DE4A30322168F1
:10581000914201D1491521E0DB4A303221689142A1
:1058200002D14FF4002119E0D64A183A216891427A
:1058300002D14FF4002111E0D34A90322168914205
:1058400002D14FF4002109E0CE4A4832216891424A
:1058500002D14FF4002101E04FF00071084022E135
:10586000C949A831206888425DD9C64858380068BF
:10587000C54A2168914201D1082152E0C14A483A03
:105880002168914201D108214BE0BF4A6032216872
:10589000914201D1082144E0BA4A1832216891426C
:1058A00001D108213DE0B84A18322168914201D166
:1058B000491536E0B34A303A2168914201D1491581
:1058C0002FE0B14A78322168914201D1491528E090
:1058D000AC4A30322168914201D1491521E0AA4AEF
:1058E00030322168914202D14FF4002119E0A54ADB
:1058F000183A2168914202D14FF4002111E0A24AE6
:1059000090322168914202D14FF4002109E09D4A72
:1059100048322168914202D14FF4002101E04FF05A
:1059200000710840BFE098494831206888425DD93D
:10593000954810384068944A2168914201D1082165
:1059400052E0904A483A2168914201D108214BE047
:105950008D4A60322168914201D1082144E0894A90
:1059600018322168914201D108213DE0864A18325F
:105970002168914201D1491536E0824A303A2168C6
:10598000914201D149152FE07F4A78322168914236
:1059900001D1491528E07B4A30322168914201D17A
:1059A000491521E0784A30322168914202D14FF402
:1059B000002119E0734A183A2168914202D14FF44C
:1059C000002111E0704A90322168914202D14FF4D7
:1059D000002109E06B4A48322168914202D14FF41C
:1059E000002101E04FF0007108405CE0664810388B
:1059F0000068654A2168914201D1082152E0614A5C
:105A0000483A2168914201D108214BE05E4A603258
:105A10002168914201D1082144E05A4A1832216894
:105A2000914201D108213DE0574A18322168914244
:105A300001D1491536E0534A303A2168914201D1EB
:105A400049152FE0504A78322168914201D1491519
:105A500028E04C4A30322168914201D1491521E0B9
:105A6000494A30322168914202D14FF4002119E0B5
:105A7000444A183A2168914202D14FF4002111E0C2
:105A8000414A90322168914202D14FF4002109E04D
:105A90003C4A48322168914202D14FF4002101E092
:105AA0004FF000710840002870D02068006800F0B6
:105AB00004000028F8D02068006820F00400216865
:105AC000086030492068884261D92F49206888429F
:105AD00001D1082052E02B4948392068884201D181
