:020000040800F2
:10000000108B0120650400086D0400086F040008CF
:100010007104000873040008750400080000000063
:100020000000000000000000000000003503000890
:100030007904000800000000ED03000851040008E6
:100040007F0400087F0400087F0400087F04000884
:100050007F0400087F0400087F0400087F04000874
:100060007F0400087F0400087F0400087F04000864
:100070007F0400087F0400087F0400087F04000854
:100080007F0400087F0400081D0A00087F040008A0
:100090007F0400087F0400087F0400087F04000834
:1000A0007F0400087F0400087F0400087F04000824
:1000B0007F0400087F0400087F0400087F04000814
:1000C0007F0400087F0400087F0400087F04000804
:1000D0007F0400087F0400087F0400087F040008F4
:1000E0007F0400087F0400087F0400087F040008E4
:1000F0007F0400087F0400087F0400087F040008D4
:100100007F0400087F0400087F0400087F040008C3
:100110007F0400087F0400087F0400087F040008B3
:10012000251200087F0400087F0400087F040008EF
:100130007F0400087F0400087F0400087F04000893
:100140007F0400087F0400087F0400087F04000883
:100150007F0400087F0400087F0400087F04000873
:100160007F0400087F0400087F0400087F04000863
:100170007F0400087F0400087F04000800000000DE
:100180007F0400087F0400087F0400087F04000843
:100190007F0400087F0400087F0400087F04000833
:1001A000A5C900087F040008151200087F04000894
:1001B0007F0400087F0400087F0400087F04000813
:1001C0007F0400087F04000800F002F800F05CF8EB
:1001D0000AA090E8000C82448344AAF10107DA45A2
:1001E00001D100F051F8AFF2090EBAE80F0013F098
:1001F000010F18BFFB1A43F001031847989C010038
:10020000B89C01000A444FF0000C10F8013B13F0B9
:10021000070408BF10F8014B1D1108BF10F8015B5F
:10022000641E05D010F8016B641E01F8016BF9D152
:1002300013F0080F1EBF10F8014BAD1C0C1B09D1A9
:100240006D1E58BF01F801CBFAD505E014F8016B1B
:1002500001F8016B6D1EF9D59142D6D370470000AD
:100260000023002400250026103A28BF78C1FBD8BF
:10027000520728BF30C148BF0B6070471FB515F04B
:1002800003F81FBD10B510BD00F00CFB1146FFF7C1
:10029000F5FF0FB400F00CF80FBC13F0E7FC00F012
:1002A0007CF903B4FFF7EEFF03BC00F0F5FA0000A1
:1002B00004B013F02BFD0448002113F0CFFD13F020
:1002C00037FD00F06AF900005400012080F309882E
:1002D0007047EFF309807047684680F30988044847
:1002E0000078C00714BF0220032080F314887047F1
:1002F000C4520108DFF818C0EFF305831B0618BFCE
:100300006047EFF31483DB0708BF604700DF7047E7
:10031000AB3F0108DFF818C0EFF305831B0618BFD9
:100320006047EFF31483DB0708BF604700DF7047C7
:1003300045420108EFF30980816911F8021CE1BB15
:1003400090E80F1010B5E047BDE81040EFF3098CBE
:100350008CE80700214B93E80600914208BF7047E4
:1003600041B91EF0100F16D11D49086820F0010098
:10037000086010E01EF0100F06BF2CED108A01205F
:10038000002081F825002CE9F00FC1F828C00CB43A
:1003900014F002FB0CBC1A60D2F828C0BCE8F00FC5
:1003A00092F8250000280EBF6FF0020E6FF0120EBB
:1003B000BCEC108A8CF30988704710B5094A1268A2
:1003C000914209D8084C54F8214090E80F10A047FA
:1003D000EFF3098C8CE80F0010BD0000D80001205D
:1003E00034EF00E0F0080008F008000810B514F041
:1003F00097F9BDE81040154B93E80600914208BFFD
:100400007047EFF3098C1EF0100F06BF2CED108A19
:100410000120002081F825002CE9F00FC1F828C048
:100420000CB414F0B9FA0CBC1A60D2F828C0BCE8BD
:10043000F00F92F8250000280EBF6FF0020E6FF04B
:10044000120EBCEC108A8CF309887047D80001208A
:1004500010B514F069FBCCE710B513F0A5FD14F04E
:1004600063FBC6E70948804709480047FEE7FEE707
:10047000FEE7FEE7FEE7FEE7FEE7FEE7FEE7FEE754
:1004800004480549054A064B704700008DCD000819
:10049000C9010008107B0120108B0120108301206E
:1004A0001083012000487047B07A012053EA020C03
:1004B00000F069802DE9F04B4FF00006002B1FBFC4
:1004C000B3FA83F503FA05F424FA05F65E4012BF89
:1004D0001643B2FA82F502FA05F4C5F120051EBFF3
:1004E00022FA05FC44EA0C04203556EA044C4FEA93
:1004F000144418BF641C4FF000084FF000099042EC
:1005000071EB030C39D3002919BFB1FA81F701FA55
:1005100007F6B0FA80F700FA07F6C7F120071EBF0A
:1005200020FA07FC46EA0C062037B6FBF4FCA7EBE2
:100530000507103F07F01F0BCBF120060CFA0BFB51
:100540002CFA06F644BFB3460026202FA4BF5E4611
:100550004FF0000B5BEA060C08BF4FF0010B19EBE4
:100560000B09ABFB027C48EB0608C01B06FB02CC68
:100570000BFB03CC71EB0C01C1E70B460246414675
:100580004846BDE8F08B13B54FF000004FF0000176
:10059000AFF30080BDE81C40704710B50446AFF3D0
:1005A00000802046BDE81040FFF77BBE40EA010313
:1005B00010B59B070FD1042A0DD310C808C9121F0C
:1005C0009C42F8D020BA19BA884201D9012010BD46
:1005D0004FF0FF3010BD1AB1D30703D0521C07E013
:1005E000002010BD10F8013B11F8014B1B1B07D177
:1005F00010F8013B11F8014B1B1B01D1921EF1D1E8
:10060000184610BD032A40F2308010F0030C00F0B1
:10061000158011F8013BBCF1020F624498BF11F83C
:1006200001CB00F8013B38BF11F8013BA2F10402F5
:1006300098BF00F801CB38BF00F8013B11F003036D
:1006400000F06780083AC0F0088051F8043B083A8F
:1006500051F804CBA0E80810F5E7121D5CBF51F873
:10066000043B40F8043BAFF30080D20724BF11F8ED
:10067000013B11F801CB48BF11F8012B24BF00F852
:10068000013B00F801CB48BF00F8012B7047431A2B
:1006900028BF9A427FF6B6AF032A1044114440F2B5
:1006A000268010F0030F1EBF11F8013D521E00F806
:1006B000013D10F0030F7FF4F6AF11F0030300F0DB
:1006C0009F80083AC0F00B8051F8043D083A51F879
:1006D00004CD40F8043D40F804CDFFF7F3BF121DF0
:1006E0005CBF51F8043D40F8043DAFF30080D207F1
:1006F00024BF11F8013D11F801CD48BF11F8012CBC
:1007000024BF00F8013D00F801CD48BF00F8012CDE
:10071000704710B5203AC0F00B80B1E81850203A6D
:10072000A0E81850B1E81850A0E81850BFF4F5AF91
:100730005FEA027C24BFB1E81850A0E8185044BF1B
:1007400018C918C0BDE810405FEA827C24BF51F888
:10075000043B40F8043B08BF7047D20728BF31F87C
:10076000023B48BF11F8012B28BF20F8023B48BFCD
:1007700000F8012B704702F0FF0343EA032242EA2C
:10078000024200F069B84FF0000200B513469446EB
:100790009646203922BFA0E80C50A0E80C50B1F1D9
:1007A0002001BFF4F7AF090728BFA0E80C5048BFED
:1007B0000CC05DF804EB890028BF40F8042B08BF8B
:1007C000704748BF20F8022B11F0804F18BF00F887
:1007D000012B7047704770477047431A28BF9A42F1
:1007E0007FF697AF104410F0030F11441EBF11F8AD
:1007F000013D521E00F8013D10F0030F7FF4F6AFEB
:10080000103AC0F00A8010B531E91850103A20E9CA
:100810001850BFF4F9AFBDE81040530724BF31E9C9
:10082000081020E9081044BF51F8043D40F8043D89
:1008300012F0030F08BF7047D20728BF31F8023DFE
:1008400048BF11F8012C28BF20F8023D48BF00F82E
:10085000012C70474FF000020429C0F0128010F004
:10086000030C3FF492AFCCF1040CBCF1020F18BFA3
:1008700000F8012BA8BF20F8022BA1EB0C01FFF719
:1008800084BF5FEAC17C24BF00F8012B00F8012B74
:1008900048BF00F8012B704701491820ABBEFEE7A6
:1008A000260002007546FFF7FDFDAE4605006946CD
:1008B000534620F00700854618B020B5FFF7E0FD4D
:1008C000BDE820404FF000064FF000074FF0000851
:1008D0004FF0000B21F00701AC46ACE8C009ACE8D2
:1008E000C009ACE8C009ACE8C0098D467047704744
:1008F0000000000070B50546AC6B94F83D0025285B
:1009000003D1352084F83D0002E0152084F83D0035
:10091000204603F04DFC70BD70B50546AC6B04205D
:1009200084F83D00206C40F002002064204603F073
:100930004CFC70BD70B50446A56B284603F044FC22
:1009400070BD000010B58AB0044600BF2F48006893
:1009500040F004002D4908600846006800F00400DB
:10096000009000BF00BF00BF28481430006840F46A
:1009700080602649143108600846006800F48060F1
:10098000009000BF00BF08150590032006900020CE
:10099000079005A91E4807F015FB002211461220FA
:1009A00008F0D4FE122008F0B9FE1A4820604FF477
:1009B000403060604FF00071A16000212161012191
:1009C000A16100216162A16221631349E1620021FA
:1009D000E16001212162E16100216161204603F0B3
:1009E000C9FC10B101200AB010BD082001900120FF
:1009F000029003900020049001A9204603F0D8FA49
:100A000008B10120EFE70020EDE700003038024098
:100A100000140240002201400100000F10B50248FE
:100A200003F0D4FB10BD0000CC02012010B5044639
:100A30005F48006820F440305E49C1F8040308466E
:100A4000D0F8040361680843594908602068406889
:100A500020F480702168486020684168206941EA7C
:100A60000020216848602068406820F040702168BC
:100A7000486020684068A168084321684860206891
:100A8000806820F400602168886020688068E168E0
:100A90000843216888604849E06A884218D0206885
:100AA000806820F070602168886020688068E16A52
:100AB0000843216888602068806820F040502168E1
:100AC000886020688068216B0843216888600BE09B
:100AD0002068806820F070602168886020688068E5
:100AE00020F04050216888602068806820F0020073
:100AF0002168886020688168A06941EA4000216817
:100B00008860606A28B3A06A18B1A06A082800D873
:100B100004E040F22151294812F032FE206840687A
:100B200040F40060216848602068406820F460401C
:100B30002168486020684168A06A401E4FF4604206
:100B400092FAA2F2B2FA82F2904001432068416028
:100B500005E02068406820F4006021684860206853
:100B6000C06A20F470002168C8622068C16A208CC5
:100B7000401E41EA00502168C8622068806820F465
:100B800000702168886020688168E06941EA40203F
:100B9000216888602068806820F48060216888600F
:100BA00020688168606941EA80202168886010BD02
:100BB00004230140002001400100000F089B0108B0
:100BC00010B51E481E49086002201E490860072013
:100BD0004860042088600720C860022008614861DE
:100BE0008861002016494860002115488160042171
:100BF000C1601021016140214161890081610021B2
:100C0000C1614FF4006101624900416200218162CB
:100C100000F068F80B490A480AF058FA18B10120A8
:100C20000949087002E000200749087040F203609B
:100C300000F00CF80448007810BD0000400100A04E
:100C4000D81301200C1401203200012038B50446CD
:100C500000200090012021490860102048600120F8
:100C600088600020C8604FF6FF721D480AF063FAE2
:100C7000012007F099F90220184908601020486007
:100C8000012088600020C8604FF6FF7214480AF007
:100C900052FA03201149086010204860082088603B
:100CA0000020C8604FF6FF720D480AF044FA4FF476
:100CB0000870009004200949086010204860012055
:100CC00088600098C8604FF6FF7205480AF033FA52
:100CD000214603480AF01BFA38BD00002814012001
:100CE000D813012030B587B004460D4600BF6648D2
:100CF000006840F00100644908600846006800F0A0
:100D00000100019000BF00BF00BF5F4808380068C5
:100D100040F480005C49083908600846006800F427
:100D20008000019000BF00BF00BF0846006840F08F
:100D3000040008600846006800F00400019000BF4D
:100D400000BF00BF0846006840F008000860084681
:100D5000006800F00800019000BF00BF00BF084617
:100D6000006840F0100008600846006800F01000BD
:100D7000019000BF00BF00BF0846006840F020009F
:100D800008600846006800F02000019000BF00BF26
:100D900000BF0846006840F0400008600846006850
:100DA00000F04000019000BF00BF00BF084600688F
:100DB00040F0800008600846006800F08000019064
:100DC00000BF00BF02200390012004900220059084
:100DD0000C2006900820029002A92C4807F0F2F897
:100DE0004CF20B70029002A9294807F0EBF84FF67D
:100DF0008370029002A9274807F0E4F84FF63F00FD
:100E0000029002A9244807F0DDF848F2331002905E
:100E100002A9224807F0D6F82820029002A920480B
:100E200007F0D0F800201F49486080211D488160EC
:100E30008900C160490001618900416189008161C7
:100E40000021C1614FF400310162002141620321A0
:100E500081620021C162016313481249086000BF2A
:100E600008462063846300BF03F020FC0D4806F0B1
:100E7000EBFE00220521382008F068FC382008F03D
:100E80004DFC07B030BD0000383802400008024079
:100E9000000C024000100240001402400018024002
:100EA000001C024038140120106402402DE9F0417A
:100EB00090B005464FF0000800200390029001908A
:100EC0007E48006801697E48007888472870287845
:100ED000002870D00024E4E004A800EB440207A836
:100EE00000EB4401754800684369754800789847ED
:100EF0007448007801280BD107A830F814000DA918
:100F000021F8140004A830F814000AA921F81400EC
:100F10006C48007800F0020038B107A830F81400DF
:100F2000C0F580500DA921F814006648007800F043
:100F3000040038B104A830F81400C0F580500AA9A4
:100F400021F814005F48007800F0080058B107A8A5
:100F500030F814000AA921F8140004A830F814008D
:100F60000DA921F814000DA830F81400564951F8C5
:100F70002410884207D90DA830F81400524951F8BE
:100F80002410401A06E0504850F824000DA931F80A
:100F90001410401A86B20AA830F814004B4951F8D0
:100FA0002410884208D90AA830F81400474951F89B
:100FB0002410401A07E07CE0444850F824000AA9B5
:100FC00031F81410401A87B2F01905280BDD0DA86E
:100FD00030F814003C4941F824000AA830F8140005
:100FE0003A4941F824003648007870280DD10DA800
:100FF00030F81410A81C20F814100AA830F81410A7
:1010000005F10C0020F8141016E02F4850F82400C9
:101010002F4909884843C0F30F31A81C20F8141049
:101020002A4850F824002B4909884843C0F30F315F
:1010300005F10C0020F8141001A802AB03AA214608
:1010400000901F48007812F04BFC0398C1B205F1E4
:10105000160001550298C1B205F120000155019812
:1010600030B1012809D002280CD0032814D10EE099
:10107000012105F11B00015511E0022105F11B00C2
:1010800001550CE0032105F11B00015507E000218B
:1010900005F11B00015502E04FF0010800BF00BF41
:1010A000641C2878A0423FF617AF284600F014F8D9
:1010B0008046404610B0BDE8F081000034000120B9
:1010C0003D0001203C000120D8140120EC14012037
:1010D000380001203A00012038B504460020009075
:1010E000002569461748007812F0ECFB0098182894
:1010F00016D005DC58B110280CD014281CD10CE0F7
:101100001C2810D0402811D0492815D111E000200A
:10111000A06213E00120A06210E00220A0620DE0B6
:101120000320A0620AE00420A06207E00520A0627C
:1011300004E00620A06201E0012500BF00BF2846B0
:1011400038BD00003D00012070B504460D46002664
:1011500010480480104805801048016870208847B6
:101160000E4841687020884751280FD10B480C4920
:10117000086070200B49087008200B490870084867
:101180000068C16807480078884700E003263046B9
:1011900070BD0000380001203A0001200400012049
:1011A000340001203D0001203C00012010B500BFAB
:1011B00000BF00BF00BF00BFBFF34F8F00BF00BF25
:1011C00000BF00BF00BF00BFBFF36F8F00BF00BFF5
:1011D00000BF00200D4908600D48006840F4003051
:1011E0000B49086000BF00BF00BFBFF34F8F00BFB7
:1011F00000BF00BF00BF00BF00BFBFF36F8F00BFC5
:1012000000BF00BF00BF0BF03DFD10BD50EF00E080
:1012100014ED00E002200249096888607047000070
:101220007877012010B5024804F0F2F910BD0000F3
:101230001003012038B504460D4600BF1C48006865
:1012400040F480001A4908600846006800F48000F5
:10125000009000BF00BF174820608005606000213B
:10126000A160E16001142161811361610113A16139
:101270008114E16141122162002161620121A162B8
:101280000021E1622163204606F0DEFC08B1012066
:1012900038BD00BF0848A863856300BF002211461F
:1012A000382008F053FA382008F038FA0020EFE729
:1012B00030380240106402401003012030B5046849
:1012C000246824F4802405682C60046863608468C2
:1012D000402C04D10468A2600468E16003E0046863
:1012E000A1600468E26030BD24E000200BF04AFBFE
:1012F000642012F0FFFC00200BF034FB642012F09D
:10130000F9FC00200BF03EFB642012F0F3FC0020FF
:101310000BF028FB642012F0EDFC00200BF032FBF8
:10132000642012F0E7FC00200BF01CFB4FF4FA7075
:1013300012F0E0FCD9E700002DE9F04105460C462B
:10134000002600276548854200D104E04FF4407133
:10135000634812F015FA206810B12068012800D106
:1013600004E040F201315E4812F00AFA606840B1D0
:101370006068012805D06068022802D060680328F0
:1013800000D104E040F20231554812F0F9F9A068AA
:1013900028B1A068042802D0A068082800D104E081
:1013A00040F203314E4812F0EBF9E06828B1E068F2
:1013B000102802D0E068202800D104E04FF44171E9
:1013C000474812F0DDF9206910B12069402800D1AA
:1013D00004E040F20531424812F0D2F960698028F9
:1013E00007D06069B0F5807F03D06069B0F5C07F39
:1013F00000D104E040F20631394812F0C1F9A06989
:1014000018B1A069B0F5007F00D104E040F20731C7
:10141000334812F0B5F9E06938B1E069B0F5006F12
:1014200003D0E069B0F5406F00D104E04FF44271A1
:101430002B4812F0A5F9206A18B1206AB0F5805F38
:1014400000D104E040F20931254812F099F9606AB0
:1014500038B1606AB0F5005F03D0606AB0F5804FC4
:1014600000D104E040F20A311D4812F089F92068E9
:10147000012816D02E686FF30E06D4E90101084347
:10148000E16808432169084361690843A169084389
:10149000E1690843216A0843616A084306432E60F4
:1014A00019E02E686FF30E06D4E907010843616A5C
:1014B000084306436F686FF30E07D4E90101084340
:1014C000E16808432169084361690843A169084349
:1014D00007432E606F600020BDE8F081400100A04E
:1014E000309E010870B504460D460C48844200D178
:1014F00004E040F214410A4812F042F9B5F5005FE9
:1015000000D204E040F21541054812F039F9606953
:1015100040EA45006061002070BD0000400100A06D
:10152000309E0108F8B505460C461646002000908E
:1015300000273548854200D104E040F2E7313348C6
:1015400012F01EF9206888B1206801280ED02068AA
:1015500002280BD02068032808D02068042805D072
:101560002068052802D02068062800D104E04FF446
:101570007A71264812F004F96068102805D0606876
:10158000082802D06068182800D104E040F2E93150
:101590001E4812F0F5F8A06818B1A068102800D80D
:1015A00004E040F2EA31194812F0EAF8E068B0F5D8
:1015B000005F00D204E040F2EB31144812F0E0F892
:1015C000D4E900010843A168491E40EA4110E168DE
:1015D00040EA412000900098286106F071FF07461C
:1015E0000BE0701C38B126B106F06AFFC01BB04298
:1015F00001D90320F8BD0120FCE7A86900F0200014
:101600000028EED100BFF5E7400100A0309E0108A0
:101610002DE9F04105460C4617460026B0465548D0
:10162000854200D104E040F25231534812F0A8F84C
:10163000206818B12068102800D804E040F2533127
:101640004D4812F09DF8606818B16068102800D805
:1016500004E04FF45571484812F092F8A06818B1B0
:10166000A068102800D804E040F25531424812F03A
:1016700087F8E06818B1E068102800D804E040F26C
:1016800056313D4812F07CF8206918B120691028C5
:1016900000D804E040F25731374812F071F8606921
:1016A00018B16069102800D804E04FF45671324830
:1016B00012F066F8A06918B1A069102800D804E0FB
:1016C00040F259312C4812F05BF80FB1012F00D1D4
:1016D00004E040F25A31284812F052F8012F1FD08E
:1016E000AE6806F070462068401E6168491E40EAF8
:1016F0000111A068401E41EA0021E068401E41EA55
:101700000031208A401E41EA0041A08A401E41EA81
:101710000051207E401E41EA00600643AE6025E095
:10172000EE6806F070462068401E6168491E40EA77
:101730000111A068401E41EA0021208A401E41EAB2
:101740000041207E401E41EA00600643D5F8088033
:1017500008F07048E068401E0103A08A401E41EA7C
:10176000005040EA0808EE60C5F808800020BDE897
:10177000F0810000400100A0309E010810B500205B
:1017800001F0ACFB6FF07F4001F0B3FB012001F0F2
:1017900033FC002001F03EFC002001F04BFC002057
:1017A00001F0B8FB0448006801F0C0FBBDE8104040
:1017B000002001F0F3BB000034010120014AC2E91E
:1017C00000017047E4000120014AC2E900017047AE
:1017D000EC000120014AC2E900017047F400012039
:1017E000014AC2E900017047AC0101202DE9F04F28
:1017F000DFF828B191B04FF0FF35DBF80030B3F9D6
:1018000022100691DE69B3F92490F469A18981421E
:1018100006D8E289824203D3471AD4F8008012E046
:10182000D4E9018100296FD00A8882426CD84D88A2
:10183000854269D3801A82B2486800EB8200B0F911
:101840000070B0F90250781C5ED0307EA17C10FB95
:1018500001FA217CCDE90701B3F92A6030460AF08C
:10186000BDFCC0B20E90DBF8000007FB0A81A37C30
:10187000826B0127CDE90412CDE90273C069089A91
:10188000C17E807ECDE90001DDE90603494609F00D
:10189000DFFF681C18D046F002000AF09FFCDBF85E
:1018A0000000A37C05FB0A81826BCDE90273CDE9C0
:1018B0000412C069089AC17E807ECDE90001DDE98D
:1018C0000603494609F0C4FFDBF800005D46C06925
:1018D000417E007E814214D9022E12D086F004008F
:1018E0000AF07CFC2868C069027EC37E12FB03916B
:1018F000437E857E089A06984B4412FB05020AF047
:1019000033F90E980AF06AFCDBF80000627C418C27
:101910001144418411B0BDE8F08F0000380101206E
:1019200004480068C069C06909B1027C0A60407C53
:101930007047000038010120022008807047C0690C
:1019400082898A4202D8C2898A4210D2806880B1D4
:1019500002888A420DD843888B420AD3406800EB44
:101960008100A0EB8200B0F90000002801DB01201B
:1019700070470020704700002DE9F043304C0346CB
:1019800087B020681946B0F92A60C069C06900F0C4
:1019900086F8002850D041680088181A01EBC0056D
:1019A0003046AF780AF01AFC814620686A68012345
:1019B000816BCDE90237CDE90421C169CB7E8A7EF6
:1019C000CDE900230B7EB0F924102A78B0F922006B
:1019D00009F03EFF2068C069417E027E91421FD916
:1019E000C07E11FB00F812FB00F7022E18D000F0A9
:1019F00075FC064600F066FC01F07BFA21682A7847
:101A0000CB69B1F92200DB7E12FB0302B1F924108D
:101A100001EB080339440AF0A7F8304601F069FAEF
:101A200048460AF0DBFB20686A78C369B0F92210E7
:101A30009B7E12FB0311418407B0BDE8F0830000D8
:101A40003801012030B50F4C05460B462068294669
:101A5000C069C06900F023F8002812D041680088EE
:101A600024682A1A0120E46900EBC200085CA47E05
:101A700010FB04F0002B04D011F8321011FB04F11C
:101A8000196030BD3801012001200880704700B581
:101A9000C06900F004F8002800D0012000BD06E075
:101AA00002888A4202D842888A4202D2806800288C
:101AB000F6D1704770B50025124C19E02069124923
:101AC000C5EB051600EBC60070220968001DFEF785
:101AD00020FE2069002140F8361000EBC60000F11E
:101AE0000C018161011D0A1DC0E90F126D1C4164CA
:101AF000A0688542E2DB00F071FCBDE8704001F0B7
:101B00003FBD0000DC0101203801012070B50F4904
:101B10000D480860084602F01BFA0C4C143CA06803
:101B2000C0EB0010C500284600F0C8F82A46002186
:101B3000206102F015FA4FF0FF30206001F072FDD5
:101B4000BDE870400FF0A6BB01210108F0010120A3
:101B5000ADF5747D00BF002400F024FC274801F09F
:101B6000E5F9002001F0BAF9142001F045FAFF2050
:101B700001F0BFF9002001F05DFA3DE0282000F0FF
:101B8000CFFA41F288314FF2F00012F05BF901AB6D
:101B900007C31B480068406820F020001849096806
:101BA0004860002408E0174830F8240000B204A977
:101BB00021F81400601C84B2B4F5F07FF3DB00F070
:101BC000ABF900231A464FF4F07104A800F0DCFAD8
:101BD0000B480068406840F02000094909684860E7
:101BE0004FF2F0010848006812F014F901F0ECFA25
:101BF00000F0ECFA01F0E2FCC0E7000030790108E7
:101C0000CC020120600301200000012010B5040077
:101C100009D000F0E3FB20460CF0EEFC044601F096
:101C2000AFFC204610BD002010BD38B5054600F0C1
:101C3000D5FB2846FFF7EAFF040009D000F0BEF804
:101C40002A460021009002F08BF9684600F0E6F881
:101C500001F096FC204638BD024A106021F00300D6
:101C600050607047AC78012010B5040016D000F029
:101C7000B5FB0B48406B10F8341059B1022909D25A
:101C8000042101EBC401415848680CF06DFC20466A
:101C900010F020FBBDE8104001F072BC10BD000048
:101CA000EC770120002805D0034AD16B016001B117
:101CB0004860D06370470000EC7701202DE9F041C7
:101CC00004460FF041FD2848E41C24F00305016C94
:101CD0002D1DA94200D90D46C46B13E054F8042C05
:101CE000AA420ED184B1216809B162684A60616874
:101CF00009B122680A60C26BA24231D12168C16376
:101D00002EE02468002CE9D18046816BC0680F1852
:101D100057F8040C3E1A306838B1002010F044FB2C
:101D200057F8040C3E1A3068D0B97068A84217DB27
:101D30003044441B3046241D10F0EEFAD8F80C1045
:101D4000491BC8F80C10D8F814102944C8F814100E
:101D50007068401B02D031460CF006FC44F8045C6D
:101D60002046BDE8F0810000EC77012010B500248A
:101D70000FF0EAFC0C490F2001EBC002526C1AB1C3
:101D800001EBC000406C08E0401EF5D508E041685A
:101D9000A14200D90C46806810B180680028F6D1B5
:101DA000A4F10C0010BD0000EC770120024881690D
:101DB000491C816170470000EC7701200549CA6920
:101DC000521CCA61496B01EBC0010A78521C0A70AF
:101DD00000F03CB8EC77012010B500F0FFFAFFF7F7
:101DE000C5FF64220849B0F5800F04D990FBF2F4D6
:101DF000086A444303E0096A4143B1FBF2F401F08D
:101E0000BFFB204610BD0000EC770120024881692D
:101E1000491E816170470000EC7701200A49026881
:101E20004B6B52F8082C03EBC2021378022B03D33E
:101E3000CB690BB15B1ECB611178491E117000217B
:101E40000160084670470000EC770120002806D0AA
:101E50000349042202EBC000496B08580830704760
:101E6000EC77012070B514460D46064600F0B6FA30
:101E7000204600F03FFA0300174804EB840109D024
:101E800050F8210041688068711A2A1A184601F03A
:101E900075F81CE000EB8104A268B24201D0012277
:101EA00000E00022E368AB4201D0012300E0002300
:101EB0001A430CD0236943B150F82100816840686F
:101EC0006A1A311A184600F0C5FFC4E90265BDE878
:101ED000704001F055BB0000707A012010B5C2B20D
:101EE000CBB2D21A00D5524293B25B43C0F3072261
:101EF000C1F30724121B00D55242000C92B2A0EB92
:101F0000114002FB023200B2002801DA404200B266
:101F100080B200FB002010BD10B50021084600F083
:101F20002FFA43F6FF725042BDE8104013460146B7
:101F3000AFF300802DE9FC411C4615460E460746CE
:101F400000F04CFA04200AF049F980461248C068B3
:101F5000C16C006D0F4406440D440444ADF800709C
:101F6000ADF80450ADF80260ADF8064068460BF0DD
:101F7000C1FE07E023462A463146384609F0F4FD03
:101F80000BF07AFE0028F5D140460AF027F901F05F
:101F9000F7FABDE8FC8100002C0101202DE9F04199
:101FA0001C4616460D460746022B02DB0020BDE804
:101FB000F0811C20FFF782FE0028F8D00DB10561EA
:101FC0000AE0094A52F8241009B905E011460A68E6
:101FD000002AFBD1096901618461868200210160C8
:101FE0004160C0E90217E2E75001012070B51D46CB
:101FF000FFF7D4FF040009D000F00EF8E068006895
:1020000020B90348006800EB85008465204670BD58
:1020100038010120FFF746BE70B590B38269022AED
:1020200030DA1E4C54F8221019B944F8220032E07C
:1020300019464B68002BFBD106E0CB68C5681B68CE
:102040002D68AB4203DD09680029F6D11AE0C1B161
:10205000CB68C6681B683668B3420CD1838A012BF3
:1020600005D008E01946DB681B68AB4203DB0B6850
:10207000002BF7D129B14B6833B118604A68426030
:1020800004E0FFE7012070BD44F822004860884268
:1020900000D100210160002070BD0000500101202E
:1020A00010B503E00468FFF7B7FF20460028F9D118
:1020B00010BD10F019BF00002DE9F0410026DFF837
:1020C00034800D4F354600BF58F8254009E0E068E0
:1020D0000068385C20B1204610F006FF26602646D6
:1020E0002468002CF3D16D1C022DEDDB3046BDE8D9
:1020F000F081000050010120C8530108022801DBD3
:1021000000207047054951F8200004E0C1680968C3
:102110000029F6D000680028F8D17047500101204E
:102120002DE9F041044601F053FA06191EE000BF04
:1021300000F04CF8052F00DD052700F04FF911489D
:102140000568FFF733FE2C0017D000BF01F018FA26
:10215000641EFBD1384601F02BFA1DB100F03EF9A8
:102160006D1EFBD1FFF752FE01F00AFA01F030FAC2
:10217000371A002FDCDCBDE8F081384601F018FA90
:10218000F0E70000E80101202DE9F0411C4615466A
:102190000E46074600F022F90B480068C16C006D3E
:1021A0000D44044400200BF0A5FD07E023462A4619
:1021B000314638460EF0DAF80BF05EFD0028F5D116
:1021C000BDE8F04101F0DCB93801012010B5002470
:1021D00000E0012400F004F80028FAD1204610BDE8
:1021E000094810B50068002410B1804700B10124EF
:1021F0000BF012F800B101240448006810B18047C8
:1022000000B10124204610BD5C01012058010120CD
:1022100008B50B46002805D0009281888268C088E6
:1022200000F001F808BD10B50828029C30D008DC89
:1022300004FB01F401280AD0022813D0042804D199
:102240001CE0102828D020282CD0002010BD04EB42
:10225000D30003F00701105CC1F10701C84000F092
:10226000010010BD04EB93000621105C01EA43015C
:10227000C1F10601C84000F0030010BD04EB53009B
:10228000D907105C02D000F00F0010BD000910BD8E
:1022900004FB0130105C10BD481004FB003032F824
:1022A000100010BD881004FB003052F8200010BD53
:1022B000034951F82000C1688A6A082110470000CC
:1022C0005001012010B500F089F809F07DFC09F0FB
:1022D0002BFD044601F054F9204610BD10B500F066
:1022E0007DF809F079FC09F01FFD044601F048F97A
:1022F000204610BD0021022802D2024951F82010C8
:10230000084670479C01012010B500F067F80348AB
:102310000068047C01F034F9204610BD380101202A
:1023200070B514460D46064600F058F82246294678
:10233000304609F097FC10B1002028602060BDE80D
:10234000704001F01DB970B50C46054600F046F826
:102350002146284601F0E2FCBDE8704001F010B9CA
:10236000024951F8200000690068704750010120BF
:10237000024951F82000006940687047500101206F
:1023800070B50D46044600F029F820460EF0A0FF77
:10239000044628460EF0A4FF044301F0F1F820465D
:1023A00070BD000010B501F011FA0A492E20087026
:1023B00001F014F908480FF08FF909F026FD0446E2
:1023C0000021084600F0F8FD0BF06AF9FFF772FBF8
:1023D000204610BD2C010120B878012070B5184CA2
:1023E000E06820B101F0EFF86168884204D001F0A4
:1023F00025F901F0E8F86060E068401CE060012821
:102400001CD10EF047FF05462068854216D00028F3
:1024100013DBFFF751FE01462068C0EB0012206974
:1024200000EBC2025167C5EB0511064A00EBC10083
:10243000011D1160406FFFF733FE256070BD000085
:10244000DC010120380101201CB5040004D10E4834
:102450000068046E002C16D0FFF7C0FF2046FFF77F
:10246000ADFC009044696846FFF7D8FC4CB12046AB
:10247000FFF7A4FC019081688968884701A8FFF7ED
:10248000CDFC01F07DF81CBD3801012001490A4650
:1024900000F002B801F0FFFF2DE9F04387B01546C8
:1024A0000C465FEA000846D0FFF798FF002000F0D6
:1024B00031FD814621480068066E4046FFF77EFCEC
:1024C00000900068806900F0EDFC074640F6FF7060
:1024D000C44204D10098B0F90440B0F90650009805
:1024E000611E0289ADF804401144ADF8081041891D
:1024F000681E0844ADF80650ADF80A000AF0D8FC92
:102500006846FFF78BFC01A80BF0F4FB06E02A46B7
:102510002146404600F082FB0BF0AEFB0028F6D1CE
:10252000384600F0BFFC304600F08AF9484600F01B
:10253000F1FC01F025F807B0BDE8F0833801012077
:102540002DE9FE4F984691468A46834600270C9E09
:10255000FFF744FF184819490068407C51F82040B3
:10256000E1680968042903D02468002CF8D100E050
:102570001CB9FFF7C3FD04001BD0E0680121C26A4B
:1025800020469047050011D02469A0688047401C70
:1025900002D10B4C46F001060096CDE901544346AA
:1025A0004A465146584600F0DFF9074600F0E8FF7A
:1025B0003846BDE8FE8F000038010120500101209F
:1025C000D09A010838B504001CD0FFF707FF0E4869
:1025D0000068006EA04201D100F056FC2046FFF7D3
:1025E000EDFB0090406908B100F0B3FF009800686F
:1025F000FFF710FD6846FFF711FC2046FFF734FB9C
:1026000000F0BEFF38BD0000380101202DE9FF4F6A
:10261000DFF83891074683B0D9F800009A468B4618
:10262000447C4B4800570128204606DD09F044FB56
:102630000546204609F04CFB05E009F02CFB054659
:10264000204609F02EFB04461FB302A901A8FFF79C
:102650007AFEB7F90000002800DA0020B7F902601E
:102660008046002E00DA002601984119B7F90400CF
:10267000491E0FF0B1FC054602980119B7F9060092
:10268000491E0FF0A9FCA5EB0802841B521C641C18
:1026900003E04FF0000846462A46BAF1000F01D188
:1026A000C4F1000A002A4FDD002C4DDD1098009087
:1026B000534631464046FFF743FF5FEA000A10D019
:1026C00000F078F80746A04206D0D9F80000806CE8
:1026D00010B132210BF086FE504600F0B1F8002513
:1026E00021E0594605988847012007B0BDE8F08FE2
:1026F000611BB94202DA504600F086F83DB172190A
:102700004146504600F0C4F85046FFF79DFE59463A
:10271000059888470F48016809B10020884750464E
:10272000FFF7B4FE3D44A542E2DB5046FFF74AFF07
:10273000002000F085F8A74206D0D9F80000806C90
:1027400010B133210BF04EFE0020CEE738010120FE
:102750006C0101209C02012038B505004FF00004F7
:1027600011D0FFF73BFE2846FFF728FB00900068DA
:102770000069806880470AF0B7F804466846FFF7AA
:102780004DFB00F0FDFE204638BD38B504000ED0EC
:10279000FFF724FE2046FFF711FB00F1180400901C
:1027A0006846FFF73BFB00F0EBFE204638BD0020FB
:1027B00038BD000038B504460025FFF70FFE1CB9F0
:1027C00008480068046E44B12046FFF7F7FA00900D
:1027D000B0F90A506846FFF721FB00F0D1FE284609
:1027E00038BD00003801012070B505460024284698
:1027F0000CF040FA641C18B1BDE8704000F07AB8E3
:10280000052CF4DB70BD000038B50C46050004D182
:102810000A480068056E002D0FD0FFF7DFFD28463F
:10282000FFF7CCFA0090B0F90A10A14200DD448114
:102830006846FFF7F3FA00F0A3FE38BD3801012027
:10284000F8B50546FFF7CAFD104E3068046ECDB1ED
:102850000CB100F019FB0AF01FFC2846FFF7AEFA96
:10286000009031680D660068FFF7D6FB6846FFF7F9
:10287000D5FA09F025FD09F07BFC00BF00F080FED1
:102880002046F8BD00F000FBF8E700003801012009
:102890007CB515460E46040004D115480068046E48
:1028A000002C24D0FFF79AFD2046FFF787FA2DB2BF
:1028B0000090C58034B2848009F05AFC00984069C9
:1028C00080B1FFF77BFA009A0190B2F9081081807D
:1028D000B2F90A20C28011B10AB10480458001A872
:1028E000FFF79CFA6846FFF799FA00F049FE7CBDB5
:1028F0003801012001490A4600F002B801F0FFFF4B
:102900007FB515460C4606002DD0FFF767FD304613
:10291000FFF754FA40F6FF710190CC4203D1B0F9B1
:102920000440B0F906500289611E1144ADF8084018
:10293000ADF80C104189681E0844ADF80E00ADF8E2
:102940000A5001A8FFF76AFA02A80BF0D3F906E0D3
:102950002A462146304600F049F90BF08DF900284F
:10296000F6D100F00DFE7FBD2DE9FF4FDFF8E8B096
:1029700083B01C46DBF80010DDE9106092464FF092
:1029800000084B7C42461299FFF708FB050060D017
:1029900028698068804709F0A7FF81460AFB09F192
:1029A000C91DCF08FFF718FAF10705D1C11700EBD1
:1029B0009170801000EB4000002C09DC1FB118382A
:1029C000B0FBF7F000E000206442A04200DC0446C7
:1029D000F00707D10090DDE903012346524600F0DD
:1029E0003DFD8046002C03DC2846FFF713FB30E05A
:1029F00004FB07F01830F10702D0FFF707F901E0F8
:102A0000FFF713F906001CD0FFF7D8F90190056015
:102A1000039981800499C180A0F808A04481C0F87E
:102A20001480C0E9037901A8FFF7F8F91298AE60A5
:102A30002861DBF80000407CA861304607B0BDE8A3
:102A4000F08F2846FFF7E6FA5FEA080001D0FFF7AB
:102A50000BF90020F2E70000380101202DE9F74FC3
:102A60008EB0144689460E98FFF7A8F90990B0F980
:102A700008B0B0F90A600068006940680C9009A8C5
:102A8000FFF7CCF9564D574F2868407C57F8200087
:102A9000C1688A6A082190470790182801D320202E
:102AA00007902868407C57F820000069069003C80A
:102AB0000B904D48814201D0012000E000200A9097
:102AC000002000F0CDFD00287DD1286809EB0B0126
:102AD000B0F90C20891A491E002902DDABEB010573
:102AE00000E05D46B0F90810494505DDA1EB09019C
:102AF00089446D1A089101E000210891002D6BDDD9
:102B0000B0F90E20A119891A491E002902DDA6EB91
:102B1000010800E0B046B0F90A00A04204DD061B3F
:102B20003444A8EB060800E00026B8F1000F53DD9E
:102B3000089801900DA95F46DDF830A00E9800912D
:102B4000FFF723FE774300EB870101982B4601EB4B
:102B5000800200994846CDE900A1214600F006FF19
:102B60000090002838D00A98E8B1DDE906322946FD
:102B7000009800F025FEB0B90698009FDA46D0F81C
:102B800010C0BCF1000F05D004235A463946384620
:102B9000E04708E00B993868884701C7AAF10100AF
:102BA0005FEA000AF6D100990020079ACDE90301F7
:102BB000059001200090CDE9010221460346641CE6
:102BC0002A46484600E007E008F042FEA8F101006E
:102BD000761C5FEA0008ABD111B0BDE8F08F0000B1
:102BE0003801012050010120ABBD0008F8B51546A1
:102BF0000E460746FFF7E2F8009000681621C0680D
:102C0000426A0020904704466846FFF707F9002C07
:102C100003D02A4631463846A047F8BDF8B51646D7
:102C20000F46050012D0FFF7C9F8009044696846C6
:102C3000FFF7F4F82846FFF78FFD0346082800DD6C
:102C40002CB132463946284610F06EF9F8BD3246AE
:102C50003946284610F008FBF8BD0000094A126802
:102C600002B10020074A1C3252F82030002B07DB4B
:102C7000A2F1180343F820104FF0FF3142F8201062
:102C8000704700007801012010B5002821D009B359
:102C90000AB3B1F90040B2F900309C4200DA234691
:102CA0000380B1F90240B2F902309C4200DA2346B7
:102CB0004380B1F90440B2F904309C4200DD234660
:102CC0008380B1F90610B2F90620914200DC11466A
:102CD000C18010BD11460A6802604968416010BD9C
:102CE00000280BD003880B4403808388194481801B
:102CF000418811444180C1881144C180704700005F
:102D000070B50E4D0446D5E90001884209D10C4941
:102D1000884201D13C3000E00C3807C884E8070045
:102D200006E090E80E0084E80E000EF0EFFA28604E
:102D3000207A002800D0012070BD0000840201200C
:102D4000E07901200448D0E90010814201D101203E
:102D5000704700207047000084020120054A10B52A
:102D6000034911600FF0EEFFBDE8104000F072B9AA
:102D700029D300086001012070B50025FFF72EFB64
:102D8000094CD4E9002082420AD0D2E9005610460C
:102D90000EF0C6FA2060314628460AF081FD012572
:102DA00000F0EEFB284670BD740201202DE9FC41C5
:102DB000154DDDE908742D68B5F90860864200DD1F
:102DC0003046B5F90C60964200DA3246824219DB91
:102DD000B5F90A608E4200DD3146B5F90E509D42CC
:102DE00000DA2B468B420DDB00E02C46E5682D68AF
:102DF00025B1042D02D02568002DF6D1CDE900744F
:102E000009F0A0F8BDE8FC8138010120B0F90220EA
:102E1000B1F906309A4213DCB1F90220B0F906305C
:102E20009A420DDCB0F90020B1F904309A4207DC77
:102E3000B1F90010B0F90400814201DC01207047B3
:102E4000002070470146024870220068FDF761BC0F
:102E50003801012070B515460E4604000AD0FFF770
:102E6000BDFA2A46314620460FF0CEFCBDE8704040
:102E700000F086BB70BD0000024970220968FDF7B2
:102E800048BC00003801012010B5FFF7A7FA09F08F
:102E900025F909F015FA0AF00BF8BDE8104000F02A
:102EA0006FBB000070B50B4D04462868467CFFF7E9
:102EB00095FA022C09D22046FFF720F928B128689C
:102EC0004474FFF7E1FF0448046000F059FB30460A
:102ED00070BD0000380101200402012010B5044635
:102EE000FFF77CFA204609F019F9BDE8104000F020
:102EF00047BB10B50446FFF771FA204609F046F9C2
:102F0000BDE8104000F03CBB0149886070470000FC
:102F10002C01012010B50446FFF760FA204609F0A5
:102F20005DF9044600F02CFB204610BD70B5044648
:102F3000FFF754FA04480068C56904B1C46100F0A1
:102F40001FFB284670BD0000380101200149C861FF
:102F500070470000FC0001200149486070470000F4
:102F60002C0101200149086070470000FC0001208D
:102F70000149486070470000FC00012070B514460C
:102F80000D460646FFF72AFA22462946304609F042
:102F900041F9044600F0F4FA204670BD70B50546CC
:102FA000FFF71CFA03480068847E857600F0E8FA93
:102FB000204670BD3801012070B50C460546FFF76C
:102FC0000DFA094822460580084804800848006830
:102FD000417C084850F82100C1680B6A294698478F
:102FE000BDE8704000F0CCBA7401012076010120E8
:102FF000380101205001012070B50546FFF7EEF9B8
:1030000003480068047E057600F0BAFA204670BDD9
:103010003801012070B50446FFF7E0F90448006864
:10302000B0F92C50848500F0ABFA284670BD000042
:103030003801012070B50446FFF7D0F90448006854
:10304000B0F92A50448500F09BFA284670BD000074
:103050003801012002480068002800D0004770476E
:103060009002012002498A6802B98860FFF7F2BF26
:103070007402012010B504000ED0FFF7AFF920460E
:103080000FF064F920460FF007FF2046FEF7ECFD35
:10309000BDE8104000F074BA10BD38B50C4605000C
:1030A00011D0FFF79BF92846FEF788FE0090808933
:1030B000204201D0012400E000246846FEF7AEFE65
:1030C00000F05EFA00E00124204638BD38B5054620
:1030D000002028600648046844B12046FEF76EFED2
:1030E0000090006928606846FEF798FE204638BDCB
:1030F000B402012038B504004FF000000D4608600E
:1031000011D02046FEF75AFE0090846844B168460C
:10311000FEF784FE2046FEF751FE0090006928600D
:103120006846FEF77BFE204638BD00002DE9F047DB
:1031300006460C4617461D46DDF82080BC4201D0ED
:10314000454502D10120BDE8F08716B1012E18D106
:103150000BE01B48007800F0040010B108F0B0FD4F
:1031600001E008F0A1FD81460DE01548007800F06F
:10317000040010B108F098FD01E008F0A1FD8146BF
:1031800001E00120DFE700BF6042A8EB05014843F2
:10319000391B90FBF1F028440A4941F83600A9F1A7
:1031A0000100001BA8EB05014843391B90FBF1F01F
:1031B0002844044901EBC60148600020C3E7000031
:1031C0007C000120880001202DE9FC47684609F0B9
:1031D00043FE9DF80400002879D04348007800F0B1
:1031E000040040B1BDF9020040490860BDF900008B
:1031F0003F49086007E0BDF900003C490860BDF99F
:1032000002003B4908603B480068384909680C1ACD
:1032100038488068364909680D1A3348007800F04C
:10322000040030B108F04CFD074608F03DFD0646AD
:1032300005E008F039FD074608F042FD0646781E15
:1032400044432C4840682B490968401A94FBF0F429
:10325000701E45432748C06826498968401A95FB77
:10326000F0F525480078012824D1244800688442DC
:1032700003DD22480068201A02E020480068001B95
:1032800080461F480068854203DD1D480068281AF3
:1032900002E01B480068401B814608EB0900022839
:1032A00020DD2946204600F037F814480460144811
:1032B000056017E02946204600F02EF80F4804600C
:1032C0000F48056001200C4908700BE0FFE70A4831
:1032D0000078012806D1002007490870411E0846E1
:1032E00000F01AF8BDE8FC877C0001208000012076
:1032F0008400012088000120980001209C0001200A
:10330000A000012010B509F0C5FD10BD01490860FD
:10331000704700007C000120074A002806DB0029D6
:1033200004DB01231372C2E9000101E000201072E6
:10333000014800F003B800002879012010B50446C8
:103340000C220849FDF732F9002809D0054894E815
:103350000E0080E80E002046BDE81040FFF7FEBCDE
:1033600010BD00006479012010B50446FFF72CFF62
:1033700010BD000002490968491C014A11607047EC
:10338000680001202DE9F0411E46069C174688463C
:1033900005463A46A8687F1C3346D0F804C041462B
:1033A0002846E047641EF4D1BDE8F08170B5B0F95D
:1033B0000040091BB0F904408C422CDD00F11404DC
:1033C000B0F902500069521B02FB0040CA1800EB22
:1033D000E104521ED010B0EBE10501F007034FF0FD
:1033E000FF0102F0070221FA03F0C2F1070201FA1D
:1033F00002F1CEB221780FD001436D1E04F8011BFB
:10340000002D05DDFF2229462046FDF7B4F92C44A6
:1034100020783043207070BD30400143217070BD72
:1034200010B5B0F90030B0F90240C91A00F1140328
:103430000069121B02FB003000EBE10001F0070302
:1034400002788021D9400A43027010BDB0F90610FD
:10345000026951431430FDF796B900002DE9F84395
:10346000804602F10F000011470003FB07F01C46E5
:10347000154689461430FEF7D8FB060018D0FEF733
:10348000ADFF3046FEF79AFC0090A0F80080A0F84F
:1034900002908580C4800749816001218181076194
:1034A0006846FEF7BBFC00F06BF83046BDE8F883D9
:1034B0000020FBE7E89A010870B5B0F90660B0F9A2
:1034C00004400B6800F1140596421BDD0069A3421D
:1034D00002FB005000EBE30214DA641EE010A0EBE4
:1034E000E30512F8010B03F00704A040C4B206E0A4
:1034F00045B1083312F8014B23F007036D1E002C71
:10350000F6D004E0002070BD6006040E5B1C2006AF
:10351000FAD5FF2C07D0184602E06406240E401CA2
:103520006606FAD400E0D81DC443640705D006E05F
:1035300012F8014BFF2C09D108306D1EF8D5C01AC6
:10354000401C0B6070BD6206140E401C2206FAD4AB
:10355000F5E738B50546FEF741FF2846FEF72EFC95
:1035600000908189491E0CB284816846FEF756FCA2
:1035700014B92846FEF778FB00F002F838BD0000C9
:103580000348C168491EC16001D100F061B87047AD
:10359000DC01012010B54FF400110348FEF75CFB7D
:1035A0000248FFF7B1FC10BD000020C0005B01081D
:1035B00010B50446204610F09DFB10BD10B501204B
:1035C00010F098FB10BD10B510F06CFC10BD0000A1
:1035D00001480068704700006800012010B5002213
:1035E00001210C4810F07CFC0B49086001210A48BD
:1035F000006810F08FFCFFF785FE002201210748CC
:1036000010F06EFC0649086014210548006810F0AF
:1036100081FC10BD145301086C0001201C530108EB
:103620007000012010B5034810F0C4FB0249086087
:1036300010BD0000245301087400012010B54FF0A4
:10364000FF310248006810F0D9FB10BD7400012062
:1036500010B50248006810F0C5FB10BD74000120D1
:103660000EB508B102AA00E00022002301A96846B5
:1036700000F006FB0EBD0000074910B50C7818B12C
:1036800001200870801E03E0002008706FF07F406A
:1036900008F09CF8204610BD6E01012010B5082AE4
:1036A0000EDC0346012A18D0022A56D0042A76D00E
:1036B00010F8042B03F8012B491EF9D1012010BD8D
:1036C000102A08DC4FEA000230F8043B22F8023BE3
:1036D000491EF9D1F2E7002010BD10F8042BD207E3
:1036E000120E491E34D010F8044B491E04F0010498
:1036F00042EA84122CD010F8044B491E04F0010455
:1037000042EA441224D010F8044B491E04F001048C
:1037100042EA04121CD010F8044B491E04F00104C4
:1037200042EAC40214D010F8044B491E04F001040C
:1037300042EA84020CD010F8044B491E04F0010444
:1037400042EA440204D010F8044B04F0010422437E
:1037500003F8012B0029C0D1B0E710F8042B920721
:10376000120E491E15D010F8044B491E04F0030434
:1037700042EA04120DD010F8044B491E04F0030471
:1037800042EA840205D010F8044B04F003042243FB
:10379000491E03F8012B0029DFD18FE7FFE710F85E
:1037A000042B1207120E491E05D010F8044B04F02A
:1037B0000F042243491E03F8012B0029EFD17DE7B6
:1037C00038B50024009400F01DF838BD0B4810B542
:1037D0008169002910D101218161FFF7DBFEFEF72D
:1037E00095F908F07FFD054905481C310860BDE8E2
:1037F0001040084600F0ACBB10BD00002C010120B9
:10380000C12001082DE9F0410D460699044601B991
:1038100001461F68082A09DC0E46012A1AD0022A2E
:103820005BD0042A7DD0082A13D18DE0102A07DC52
:10383000D3F810C00E46BCF1000F04D0022389E07B
:103840000020BDE8F08101CCB84726F8020B6D1EC0
:10385000F9D189E001CCB847C0074FEA10686D1E66
:1038600036D001CCB84748EA801000F0FF086D1E42
:103870002ED001CCB84748EA401000F0FF086D1E7A
:1038800026D001CCB84748EA001000F0FF086D1EB2
:103890001ED001CCB84748EAC00000F0FF086D1EFA
:1038A00016D001CCB84748EA800000F0FF086D1E32
:1038B0000ED001CCB84748EA400000F0FF086D1E6A
:1038C00006D001CCB84740EA080000F0FF086D1EA2
:1038D00006F8018B002DBDD146E001CCB84780072A
:1038E0004FEA10686D1E16D001CCB84748EA0010A8
:1038F00000F0FF086D1E0ED001CCB84748EA8000EA
:1039000000F0FF086D1E06D001CCB84740EA080061
:1039100000F0FF086D1E06F8018B002DDDD123E0BD
:10392000FFE701CCB84700074FEA10686D1E06D0CC
:1039300001CCB84740EA080000F0FF086D1E06F809
:10394000018B002DEDD10FE0D3F810C0BCF1000FBA
:1039500004D001232A462046E04705E001CCB847C1
:1039600006F8010B6D1EF9D101206AE72DE9FF4F22
:103970008DB00020DDF86CA0164600901D46044670
:103980000246CAF8000008AB03A902A800F078F9C3
:1039900018B1002011B0BDE8F08F0898854200DD15
:1039A0000546614F0B9561493868407C51F82010FD
:1039B000049109690691FEF77BFC05903868407C0C
:1039C000FEF7D6FC5A498146884204D059498945B8
:1039D00001D0012000E000200A9001CE1A9988470A
:1039E0008346000E079077D0009870BB0D9800EBCF
:1039F00004084D480068B0F90800404503DDA0EB1D
:103A00000807804600E000270298049900EB840034
:103A100000EB8700CDE900010B990D98421809923F
:103A20000E9B40461946521EFFF7C0F90120009038
:103A3000059818280ADA0298DDE9052300EB8400CE
:103A400000EB8700E91B00F079F812E00A9880B1DA
:103A5000029800EB840000EB87070998A0EB0808A8
:103A600049463868884701C7A8F101005FEA0008A5
:103A7000F6D13148C06980B3DDE9020700EB84006C
:103A800007EB8402CDE902022B4C361F3046E46975
:103A90002B460299A047FF213068B1EB106F02D18D
:103AA0000298006804E0029A1268B1EB126F01D12B
:103AB000039A1060029806F10406001D0290039814
:103AC000001D03906D1EE7D10397DAF8000040F067
:103AD0000101CAF8001020E021E0FFE70798FF2865
:103AE00011D0C0F1FF02029850F82410584600F09F
:103AF000D5F9039941F82400DAF8000040F00101FB
:103B0000CAF8001005E00298039950F8240041F823
:103B10002400641C6D1E7FF460AF03983AE703999C
:103B200041F824B0E8E700003801012050010120ED
:103B3000ABBD0008A9BD0008FC0001202DE9F05F25
:103B40000C1E16DD5E68014600EB8405082A12DCB7
:103B5000611E012A26D0022A47D0042A6AD0082AE8
:103B600007D1071917F8010DB04745F8040D641E79
:103B7000F8D1BDE8F09F102AFBDC5F693FB1224617
:103B8000BC46BDE8F04F02235DF804EB604701EB53
:103B9000440700BF37F8020DB04745F8040D641E16
:103BA000F8D1E6E700EBE10001F0070710F801A902
:103BB0008146802020FA07F8B5F104050AEA0800DA
:103BC000C7F10701C840B04745F804093FB14FEAC3
:103BD00048604FEA10687F1E641EEFD1C9E719F8EC
:103BE00001A907274FF00108F6E700EBA10001F05B
:103BF000030710F801A981467900C02020FA01F8D6
:103C00004FF0060BB5F104050AEA0800ABEB4701DB
:103C1000C840B04745F804093FB14FEA88604FEA11
:103C200010687F1E641EEFD1A3E7032719F801A9CE
:103C3000B846F7E700EB6100012710F801A9A74398
:103C40008146B900F02020FA01F84FF0040B2D1F37
:103C50000AEA0800ABEB8701C840B04745F8040901
:103C60003FB14FEA08704FEA10687F1E641EEFD123
:103C70007FE719F801A901274FF00F08F6E70000C8
:103C80002DE9F047224C06461F46A069904689461A
:103C9000002540B90120A06104F120011D48086001
:103CA000084600F055F9606930B91B48006860614A
:103CB00010B907F0F3FF606107B138604EB1A0683A
:103CC00030B960698000FDF7F9FFA06000B90125F7
:103CD0003060B9F1000F0AD0E06830B96069800047
:103CE000FDF7ECFFE06000B90125C9F80000B8F16C
:103CF000000F0AD0206930B960698000FDF7DEFF4F
:103D0000206100B90125C8F800002846BDE8F08709
:103D1000FC0001206520010864010120044AB2F979
:103D2000002002600348B0F90000086070470000FE
:103D30007401012076010120B0F90030B1F90020B2
:103D4000934200DA0280B0F90230B1F902209342C6
:103D500000DA4280B0F90430B1F90420934200DD6A
:103D60008280B0F90620B1F906108A4200DDC180D8
:103D7000704770B5B1F90040B2F900309C4200DDE7
:103D800023460380B1F90250B2F90240A54200DD9A
:103D90002C464480B1F90460B2F90450AE4200DA16
:103DA00035468580B1F90610B2F90620914200DB54
:103DB0001146C1809D4201DBA14201DA002070BDA5
:103DC000012070BD014602480068407C00F002B846
:103DD000380101202DE9F8430126044689460228CE
:103DE00057DADFF8B480080008F1040530D0012864
:103DF00002D002294DD116E055F8240088B920469A
:103E0000FEF77CF9009010B3C0680D21426A684645
:103E1000904702003DD049460098904755F824004D
:103E20000026401C33E02046FEF768F9009070B190
:103E3000C0680D21426A68469047040029D0D8F82E
:103E4000000000B1804749460098A047002620E0C6
:103E500055F82400012813D12046FEF74FF90090B1
:103E600070B1C0680D21426A68469047070007D0CC
:103E7000D8F8000000B1804749460098B8470026AE
:103E800055F8240008B1012100E00021401A45F84E
:103E900024003046BDE8F8836002012070B5FF239E
:103EA000B3EB116F2CD0C3B213FB02F500F47F44C7
:103EB00000F47F0354435343000E10FB02F6C2F19B
:103EC000FF00CAB212FB005201F47F4505FB00441B
:103ED00001F47F0505FB0033090E11FB0065C2F3F9
:103EE00007204FF47F024FF47F4102EA132201EAD8
:103EF00014214FF07F43084303EA0543104318435E
:103F000070BD2DE9F04F0646DDE90CB915460C46AB
:103F100000208046584519D20B9F4FF0FF0A01CE72
:103F200008CCAAEB106202FB09F2B2FBFAF1CAB2AA
:103F30001946FFF7B3FF20F07F4001C57F1EEED189
:103F4000099804EB800408F10100E2E7BDE8F08F76
:103F500002494A6942604861704700002C01012013
:103F600010B502E000F8011B521E0AB18307F9D117
:103F7000930818D001EB014402F0030204EB04247F
:103F800006E010C01B1F10C040F8084B40F8044C5E
:103F9000042BF6DA01E010C05B1E002BFBD102E01F
:103FA00000F8011B521E002AFAD110BD7047000014
:103FB00038B505460C46002000902068122802D92A
:103FC0002068102800D104E040F21D4173480FF032
:103FD000D7FB606818B16068102800D804E040F290
:103FE0001E416E480FF0CCFBA068A0B1A06801286C
:103FF00011D0A06802280ED0A06803280BD0A068BA
:10400000042808D0A068052805D0A068062802D09A
:10401000A068072800D104E040F21F415F480FF07C
:10402000AFFB00BF95F83C00012801D1022038BD4C
:10403000012085F83C0000BF2068092816D92868AF
:10404000C06821780A3901EB410207219140884379
:104050002968C86021780A3901EB4101A0688840CD
:104060002968C96808432968C86013E0286800699E
:10407000217801EB410207219140884329680861BA
:10408000217801EB4101A06888402968096908434B
:10409000296808616068072817D22868406B217971
:1040A000491E01EB81021F21914088432968486322
:1040B000208880B22179491E01EB8101884029685E
:1040C000496B08432968486331E060680D2817D2BE
:1040D0002868006B2179C91F01EB81021F219140E3
:1040E000884329680863208880B22179C91F01EBC1
:1040F000810188402968096B08432968086316E034
:104100002868C06A21790D3901EB81021F21914095
:1041100088432968C862208880B221790D3901EB73
:10412000810188402968C96A08432968C8621C4916
:104130002868884208D12068122805D119480068EB
:1041400040F48000C1F804031549286888421ED154
:104150002068102802D02068112818D11148006862
:1041600040F400000F490860206810280FD10E4865
:1041700000680E49B0FBF1F000EB800040000090B9
:1041800002E00098401E009000980028F9D100BF7E
:10419000002085F83C0000BF00BF48E7089B0108ED
:1041A00000200140042301406400012040420F0030
:1041B00010B504464FF2F001024800680FF036FED9
:1041C00010BD0000000001207047704770B5044624
:1041D00000250026A06910B1A069012800D104E0E3
:1041E0004FF4377162480FF0CBFA206A18B1206A99
:1041F000102800D804E040F2DD215D480FF0C0FA3D
:104200006069012804D0606910B16069022800D19A
:1042100004E040F2DE2156480FF0B2FA2068006850
:10422000C0F3400520684068C0F34016002D3DD023
:10423000E6B394F83D00252803D1352084F83D00ED
:1042400002E0152084F83D00A06940BB206880682A
:1042500000F0405018BB606960B92068406820F0E9
:104260002000216848602068406820F08060216854
:10427000486014E0606B08B9206A6063606B401EA0
:104280006063606B58B92068406820F020002168A6
:1042900048602068406820F08060216848602046BF
:1042A000FFF786FF6FF00200216808602068006851
:1042B000C0F3800520684068C0F3C01655B34EB304
:1042C00094F83D00152803D1352084F83D0002E024
:1042D000252084F83D0020684068012121EA9025CE
:1042E0002068806800F4401008B9012000E0002038
:1042F0000646A06900B135B12EB12068406820F0B3
:104300008000216848602046FFF750FE6FF00400EF
:10431000216808602068006800F001052068406896
:10432000C0F3801655B14EB1062084F83D006FF001
:10433000010021680860204600F02EF9206800681E
:10434000C0F3401520684068C0F3806675B16EB157
:10435000042084F83D00206C40F0010020646FF0E0
:104360002000216808602046FFF72FFF70BD000085
:10437000089B010810B504460CB9012010BD814905
:104380002068884207D080492068884203D07F494E
:104390002068884200D104E04FF486717C480FF019
:1043A000EFF9606858B16068B0F5803F07D0606889
:1043B000B0F5003F03D06068B0F5403F00D104E0A5
:1043C00040F20D1172480FF0DBF9A06858B1A068F7
:1043D000B0F1807F07D0A068B0F1007F03D0A06863
:1043E000B0F1407F00D104E04FF4877168480FF0CE
:1043F000C7F9206910B12069012800D104E040F21A
:104400000F1163480FF0BCF9A06910B1A069012831
:1044100000D104E04FF488715D480FF0B1F9E06A13
:10442000D8B3E06AB0F1807F37D0E06AB0F1007FA6
:1044300033D0E06AB0F1407F2FD0E06AB0F1806FF6
:104440002BD0E06AB0F1A06F27D0E06AB0F1C06F66
:1044500023D0E06AB0F1E06F1FD0E06AB0F1006FE6
:104460001BD0E06AB0F1106F17D0E06AB0F1206F96
:1044700013D0E06AB0F1306F0FD0E06AB0F1406F56
:104480000BD0E06AB0F1506F07D0E06AB0F1706F06
:1044900003D04049E06A884200D104E040F21111A3
:1044A0003B480FF06DF9E06818B1E068B0F5006FB7
:1044B00000D104E04FF4897135480FF061F9206AAA
:1044C00018B1206A102800D804E040F213113048D7
:1044D0000FF056F9E06910B1E069012800D104E05D
:1044E0004FF48A712A480FF04BF96069012804D013
:1044F000606910B16069022800D104E040F2151132
:1045000023480FF03DF9606A10B1606A012800D1BC
:1045100004E04FF48B711E480FF032F91D49E06A38
:10452000884213D0206B58B1206BB0F1805F07D068
:10453000206BB0F1005F03D0206BB0F1405F00D181
:1045400004E04FF48D7112480FF01AF994F83D0011
:1045500028B9002084F83C00204600F01EF8022014
:1045600084F83D002046FCF761FA00202064012019
:1045700084F83D0000BF002084F83C0000BF00BF6D
:10458000FCE6000000200140002101400022014023
:10459000089B01080100000F70477047F8B50446FA
:1045A0000D46164600200090A06910B1A0690128B0
:1045B00000D104E040F2673136480FF0E1F8206B9B
:1045C00058B1206BB0F1805F07D0206BB0F1005F75
:1045D00003D0206BB0F1405F00D104E04FF45A717A
:1045E0002C480FF0CDF800BF94F83C00012801D111
:1045F0000220F8BD012084F83C0000BF206840681C
:1046000040F08060216848602068806840F48070D5
:10461000216888602048A16BC8632048A16B0864AA
:104620001F48A16B8864226802F14C0133462A4678
:10463000A06B03F065FC122084F83D0000BF002051
:1046400084F83C0000BF2068806800F00100A0B939
:104650002068806840F00100216888601148006887
:104660001149B0FBF1F000EB4000009002E000982F
:10467000401E009000980028F9D12068806800F062
:10468000405028B92068806840F0804021688860E8
:104690000020AEE7089B0108F5080008350900086E
:1046A000190900086400012040420F00014609B9C1
:1046B0000120704791F83500022801D10120F8E768
:1046C0000868006820F001000A68106000200A688D
:1046D00010600A6850600A6890600A68D0600A68D2
:1046E000106121200A685061F94A086890425CD93B
:1046F000F84A0868904201D1F74852E0F44A483A33
:104700000868904201D1F4484BE0F24A60320868F0
:10471000904201D1F04844E0ED4A183208689042D6
:1047200001D1ED483DE0EB4A18320868904201D1D2
:10473000801536E0E64A303A0868904201D180158B
:104740002FE0E44A78320868904201D1801528E0D1
:10475000DF4A30320868904201D1801521E0DD4AFD
:1047600030320868904202D14FF4802019E0D84AD4
:10477000183A0868904202D14FF4802011E0D54ADF
:1047800090320868904202D14FF4802009E0D04A6C
:1047900048320868904202D14FF4802001E04FF087
:1047A0008070CB4A4C3A10601FE1CA4AA8320868B0
:1047B00090425CD9C74A0868904201D1C64852E08D
:1047C000C34A483A0868904201D1C3484BE0C14A05
:1047D00060320868904201D1BF4844E0BC4A1832B8
:1047E0000868904201D1BC483DE0BA4A18320868D6
:1047F000904201D1801536E0B54A303A08689042BF
:1048000001D180152FE0B34A78320868904201D177
:10481000801528E0AE4A30320868904201D18015F8
:1048200021E0AC4A30320868904202D14FF4802037
:1048300019E0A74A183A0868904202D14FF4802044
:1048400011E0A44A90320868904202D14FF48020CF
:1048500009E09F4A48320868904202D14FF4802014
:1048600001E04FF080709A4A503A1060BDE0994ADA
:104870004832086890425CD9964A0868904201D153
:10488000954852E0924A483A0868904201D19248CD
:104890004BE0904A60320868904201D18E4844E073
:1048A0008B4A18320868904201D18B483DE0894A12
:1048B00018320868904201D1801536E0844A303AB7
:1048C0000868904201D180152FE0824A783208684A
:1048D000904201D1801528E07D4A3032086890422C
:1048E00001D1801521E07B4A30320868904202D124
:1048F0004FF4802019E0764A183A0868904202D1B5
:104900004FF4802011E0734A90320868904202D13F
:104910004FF4802009E06E4A48320868904202D184
:104920004FF4802001E04FF080706A4A103AD06066
:104930005BE0684A0868904201D1674852E0644AE7
:10494000483A0868904201D163484BE0614A6032BE
:104950000868904201D1604844E05D4A1832086816
:10496000904201D15C483DE05A4A183208689042B2
:1049700001D1801536E0564A303A0868904201D19C
:1049800080152FE0534A78320868904201D1801593
:1049900028E04F4A30320868904201D1801521E06A
:1049A0004C4A30320868904202D14FF4802019E01E
:1049B000474A183A0868904202D14FF4802011E02B
:1049C000444A90320868904202D14FF4802009E0B6
:1049D0003F4A48320868904202D14FF4802001E0FB
:1049E0004FF080703B4A103A9060394A0868904214
:1049F0005CD9384A0868904201D1202052E0344AFC
:104A0000483A0868904201D120204BE0314A603298
:104A10000868904201D1202044E02D4A18320868ED
:104A2000904201D120203DE02A4A18320868904285
:104A300001D1C01436E0264A303A0868904201D1CC
:104A4000C0142FE0234A78320868904201D1C01484
:104A500028E01F4A30320868904201D1C01421E09A
:104A60001C4A30320868904202D14FF4001019E01D
:104A7000174A183A0868904202D14FF4001011E02A
:104A8000144A90320868904202D14FF4001009E0B5
:104A90000F4A48320868904202D14FF4001001E0FA
:104AA0004FF000600A4A4C3A106021E1094AA832EE
:104AB0000868904260D9074A0868904201D12020D6
:104AC00056E0034A483A0868904207D120204FE058
:104AD000586402401060024004008000F84A0868F0
:104AE000904201D1202043E0F64A0868904201D16B
:104AF00020203DE0F24A483A0868904201D1C014B3
:104B000036E0F04A483A0868904201D1C0142FE0DC
:104B1000EB4A18320868904201D1C01428E0E94AF3
:104B200018320868904201D1C01421E0E44A303ABA
:104B30000868904202D14FF4001019E0E14A303A7F
:104B40000868904202D14FF4001011E0DC4A303284
:104B50000868904202D14FF4001009E0D94A30327F
:104B60000868904202D14FF4001001E04FF000605D
:104B7000D44A683A1060BBE0D14A183A08689042BB
:104B80005BD9CF4A603A0868904201D1202050E0BA
:104B9000CC4A603A0868904201D1202049E0C84AD6
:104BA0000868904201D1202043E0C64A086890423C
:104BB00001D120203DE0C24A483A0868904201D124
:104BC000C01436E0BF4A483A0868904201D1C01488
:104BD0002FE0BB4A18320868904201D1C01428E087
:104BE000B84A18320868904201D1C01421E0B44A92
:104BF000303A0868904202D14FF4001019E0B14AEF
:104C0000303A0868904202D14FF4001011E0AC4AEB
:104C100030320868904202D14FF4001009E0A94AEE
:104C200030320868904202D14FF4001001E04FF09A
:104C30000060A34A703AD0605AE0A14A603A08681E
:104C4000904201D1202050E09E4A603A086890428C
:104C500001D1202049E09A4A0868904201D12020E1
:104C600043E0984A0868904201D120203DE0944AF0
:104C7000483A0868904201D1C01436E0914A483A57
:104C80000868904201D1C0142FE08D4A183208689C
:104C9000904201D1C01428E08A4A18320868904234
:104CA00001D1C01421E0864A303A0868904202D10E
:104CB0004FF4001019E0834A303A0868904202D15C
:104CC0004FF4001011E07E4A30320868904202D161
:104CD0004FF4001009E07B4A30320868904202D15C
:104CE0004FF4001001E04FF00060754A703A906098
:104CF000744A183A086890425BD9714A603A086869
:104D0000904201D1082050E06E4A603A0868904213
:104D100001D1082049E06A4A0868904201D1082080
:104D200043E0684A0868904201D108203DE0644AA7
:104D3000483A0868904201D1401536E0614A483A45
:104D40000868904201D140152FE05D4A183208688A
:104D5000904201D1401528E05A4A18320868904222
:104D600001D1401521E0564A303A0868904202D1FC
:104D70004FF4002019E0534A303A0868904202D1BB
:104D80004FF4002011E04E4A30320868904202D1C0
:104D90004FF4002009E04B4A30320868904202D1BB
:104DA0004FF4002001E04FF00070464A643A106072
:104DB0001EE1434A4832086890425BD9404A603A53
:104DC0000868904201D1082050E03E4A603A0868E5
:104DD000904201D1082049E0394A0868904201D147
:104DE000082043E0374A0868904201D108203DE09E
:104DF000334A483A0868904201D1401536E0314ABA
:104E0000483A0868904201D140152FE02C4A1832E8
:104E10000868904201D1401528E02A4A18320868F3
:104E2000904201D1401521E0254A303A086890426D
:104E300002D14FF4002019E0224A303A086890422B
:104E400002D14FF4002011E01D4A30320868904230
:104E500002D14FF4002009E01A4A3032086890422B
:104E600002D14FF4002001E04FF00070154A683A7B
:104E70001060BDE0124A183A086890425DD9104AA5
:104E8000603A0868904201D1082052E00D4A603A29
:104E90000868904201D108204BE0094A0868904216
:104EA00001D1082045E0074A0868904201D1082056
:104EB0003FE0034A483A0868904205D1401538E07F
:104EC0007060024070640240FA4A0868904201D162
:104ED00040152EE0F84A0868904201D1401528E0BC
:104EE000F44A60320868904201D1401521E0F24A4C
:104EF000483A0868904202D14FF4002019E0ED4A88
:104F000018320868904202D14FF4002011E0EA4ABA
:104F100018320868904202D14FF4002009E0E54AB7
:104F200078320868904202D14FF4002001E04FF03F
:104F30000070E14A883AD0605AE0DF4A783A08685F
:104F4000904201D1082050E0DA4A183A08689042AD
:104F500001D1082049E0D84A183A0868904201D1A6
:104F6000082042E0D34A48320868904201D1082024
:104F70003BE0D14A603A0868904201D1401534E0E4
:104F8000CC4A0868904201D140152EE0CA4A086810
:104F9000904201D1401528E0C64A6032086890422C
:104FA00001D1401521E0C44A483A0868904202D134
:104FB0004FF4002019E0BF4A18320868904202D12D
:104FC0004FF4002011E0BC4A18320868904202D128
:104FD0004FF4002009E0B74A78320868904202D1C5
:104FE0004FF4002001E04FF00070B34A883A90601F
:104FF000B04A3032086890425BD9AF4A783A0868C4
:10500000904201D1AD4850E0AA4A183A086890424F
:1050100001D1AA4849E0A84A183A0868904201D14B
:10502000A64842E0A34A48320868904201D1A3480A
:105030003BE0A14A603A0868904201D1402034E048
:105040009C4A0868904201D140202EE09A4A0868A4
:10505000904201D1402028E0964A60320868904290
:1050600001D1402021E0944A483A0868904202D198
:105070004FF4803019E08F4A18320868904202D10C
:105080004FF4803011E08C4A18320868904202D107
:105090004FF4803009E0874A78320868904202D1A4
:1050A0004FF4803001E04FF48000824A1C3A1060D7
:1050B00021E1814A3032086890425BD97E4A783AD1
:1050C0000868904201D17D4850E07A4A183A086851
:1050D000904201D1794849E0774A183A08689042ED
:1050E00001D1764842E0734A48320868904201D1C3
:1050F00072483BE0704A603A0868904201D1402013
:1051000034E06C4A0868904201D140202EE06A4A9F
:105110000868904201D1402028E0664A6032086861
:10512000904201D1402021E0634A483A0868904209
:1051300002D14FF4803019E05E4A1832086890427C
:1051400002D14FF4803011E05B4A18320868904277
:1051500002D14FF4803009E0564A78320868904214
:1051600002D14FF4803001E04FF48000514A203AE0
:105170001060C0E0504A303A086890425BD94E4A0D
:10518000783A0868904201D14C4850E0494A183AB0
:105190000868904201D1494849E0474A183A0868EE
:1051A000904201D1454842E0424A48320868904264
:1051B00001D142483BE0404A603A0868904201D140
:1051C000402034E03B4A0868904201D140202EE064
:1051D000394A0868904201D1402028E0354A6032BF
:1051E0000868904201D1402021E0334A483A0868DB
:1051F000904202D14FF4803019E02E4A18320868EC
:10520000904202D14FF4803011E02B4A18320868E6
:10521000904202D14FF4803009E0264A7832086883
:10522000904202D14FF4803001E04FF48000224AD6
:10523000883AD0605FE0204A783A0868904201D10D
:105240001E4855E01B4A183A0868904201D11B4895
:105250004EE0194A183A0868904201D1174847E0D1
:10526000144A48320868904201D1144840E0124A7A
:10527000603A0868904201D1402039E00D4A086840
:10528000904201D1402033E00B4A0868904201D19E
:1052900040202DE0074A60320868904201D140204A
:1052A00026E0054A483A0868904209D14FF4803018
:1052B0001EE0000028640240886002400100800077
:1052C000D14A0868904202D14FF4803010E0CF4AB2
:1052D0000868904202D14FF4803009E0CA4A603237
:1052E0000868904202D14FF4803001E04FF4800012
:1052F000C64AA03A9060C44A1832086890425BD906
:10530000C24A903A0868904201D1102050E0BE4A4B
:10531000303A0868904201D1102049E0BB4A303A47
:105320000868904201D1102042E0B74A3032086844
:10533000904201D110203BE0B44A783A086890428C
:1053400001D1001534E0B04A183A0868904201D102
:1053500000152DE0AD4A183A0868904201D10015B9
:1053600026E0A94A48320868904201D100151FE0A2
:10537000A64A603A0868904202D14FF4801017E0C4
:10538000A14A0868904202D14FF4801010E09F4A71
:105390000868904202D14FF4801009E09A4A6032C6
:1053A0000868904202D14FF4801001E04FF0806015
:1053B000954A343A10601CE1944A183208689042C9
:1053C0005BD9924A903A0868904201D1102050E08F
:1053D0008D4A303A0868904201D1102049E08B4A4A
:1053E000303A0868904201D1102042E0864A3032BB
:1053F0000868904201D110203BE0844A783A08685E
:10540000904201D1001534E07F4A183A0868904272
:1054100001D100152DE07D4A183A0868904201D16B
:10542000001526E0784A48320868904201D10015FC
:105430001FE0764A603A0868904202D14FF480102B
:1054400017E0714A0868904202D14FF4801010E0D2
:105450006E4A0868904202D14FF4801009E06A4A0F
:1054600060320868904202D14FF4801001E04FF0A2
:105470008060654A383A1060BBE0644A483A086880
:1054800090425BD9614A903A0868904201D110205D
:1054900050E05D4A303A0868904201D1102049E05E
:1054A0005A4A303A0868904201D1102042E0564AE8
:1054B00030320868904201D110203BE0534A783ADC
:1054C0000868904201D1001534E04F4A183A086844
:1054D000904201D100152DE04C4A183A08689042DC
:1054E00001D1001526E0484A48320868904201D1AF
:1054F00000151FE0454A603A0868904202D14FF417
:10550000801017E0404A0868904202D14FF48010A2
:1055100010E03E4A0868904202D14FF4801009E042
:10552000394A60320868904202D14FF4801001E09D
:105530004FF08060354AA03AD0605AE0334A903A42
:105540000868904201D1102050E02F4A303A086894
:10555000904201D1102049E02C4A303A086890422C
:1055600001D1102042E0284A30320868904201D12F
:1055700010203BE0254A783A0868904201D1001596
:1055800034E0214A183A0868904201D100152DE014
:105590001E4A183A0868904201D1001526E01A4ABE
:1055A00048320868904201D100151FE0174A603A5E
:1055B0000868904202D14FF4801017E0124A086840
:1055C000904202D14FF4801010E0104A08689042D7
:1055D00002D14FF4801009E00B4A60320868904213
:1055E00002D14FF4801001E04FF08060074AA03AEA
:1055F00090600020C86481F8350000BF81F8340055
:1056000000BF00BFFFF755B840640240A0600240F1
:1056100010B50446F949206888425DD9F7485438E6
:105620000068F74A2168914201D1082152E0F34A0B
:10563000483A2168914201D108214BE0F04A60329A
:105640002168914201D1082144E0EC4A18322168D6
:10565000914201D108213DE0E94A18322168914286
:1056600001D1491536E0E54A303A2168914201D12D
:1056700049152FE0E24A78322168914201D149155B
:1056800028E0DE4A30322168914201D1491521E0FB
:10569000DB4A30322168914202D14FF4002119E0F7
:1056A000D64A183A2168914202D14FF4002111E004
:1056B000D34A90322168914202D14FF4002109E08F
:1056C000CE4A48322168914202D14FF4002101E0D4
:1056D0004FF00071084022E1C949A8312068884292
:1056E0005DD9C64858380068C54A2168914201D141
:1056F000082152E0C14A483A2168914201D108216B
:105700004BE0BF4A60322168914201D1082144E058
:10571000BA4A18322168914201D108213DE0B84AC5
:1057200018322168914201D1491536E0B34A303A26
:105730002168914201D149152FE0B14A78322168A0
:10574000914201D1491528E0AC4A3032216891429A
:1057500001D1491521E0AA4A30322168914202D193
:105760004FF4002119E0A54A183A2168914202D16C
:105770004FF4002111E0A24A90322168914202D1F7
:105780004FF4002109E09D4A48322168914202D13C
:105790004FF4002101E04FF000710840BFE098494C
:1057A0004831206888425DD9954810384068944A4D
:1057B0002168914201D1082152E0904A483A21687B
:1057C000914201D108214BE08D4A6032216891421B
:1057D00001D1082144E0894A18322168914201D15F
:1057E00008213DE0864A18322168914201D14915CD
:1057F00036E0824A303A2168914201D149152FE0C2
:105800007F4A78322168914201D1491528E07B4ACC
:1058100030322168914201D1491521E0784A303275
:105820002168914202D14FF4002119E0734A183ADD
:105830002168914202D14FF4002111E0704A903268
:105840002168914202D14FF4002109E06B4A4832AD
:105850002168914202D14FF4002101E04FF0007124
:1058600008405CE0664810380068654A216891424B
:1058700001D1082152E0614A483A2168914201D1A0
:1058800008214BE05E4A60322168914201D1082133
:1058900044E05A4A18322168914201D108213DE082
:1058A000574A18322168914201D1491536E0534ACE
:1058B000303A2168914201D149152FE0504A78329F
:1058C0002168914201D1491528E04C4A30322168C3
:1058D000914201D1491521E0494A30322168914273
:1058E00002D14FF4002119E0444A183A216891424C
:1058F00002D14FF4002111E0414A903221689142D7
:1059000002D14FF4002109E03C4A4832216891421B
:1059100002D14FF4002101E04FF00071084000284F
:1059200070D02068006800F004000028F8D02068DB
:10593000006820F00400216808603049206888422F
:1059400061D92F492068884201D1082052E02B49B3
:1059500048392068884201D108204BE0284960314D
:105960002068884201D1082044E024491831206889
:10597000884201D108203DE0214918312068884241
:1059800001D1401536E01D4930392068884201D1E7
:1059900040152FE01A4978312068884201D140151E
:1059A00028E0164930312068884201D1401521E0B5
:1059B000134930312068884202D14FF4002019E0A9
:1059C0000E4918392068884202D14FF4002011E0B6
:1059D0000B4990312068884202D14FF4002009E041
:1059E000064948312068884202D14FF4002001E086
:1059F0004FF0007001494C39086023E158640240BF
:105A0000106002402FE1F849206888425CD9F649CD
:105A1000A8392068884201D1082051E0F349206864
:105A2000884201D108204BE0EF494839206888427C
:105A300001D1082044E0ED4960312068884201D15D
:105A400008203DE0E84990392068884201D140159E
:105A500036E0E64918312068884201D140152FE030
:105A6000E14930392068884201D1401528E0DF49FA
:105A700078312068884201D1401521E0DA4978392F
:105A80002068884202D14FF4002019E0D749303114
:105A90002068884202D14FF4002011E0D249183921
:105AA0002068884202D14FF4002009E0CF499031AC
:105AB0002068884202D14FF4002001E04FF00070CE
:105AC000CA4908390860BDE0C74960392068884282
:105AD0005CD9C549A8392068884201D1082051E025
