:020000040800F2
:1000000070660120650400086D0400086F04000894
:100010007104000873040008750400080000000063
:100020000000000000000000000000003503000890
:100030007904000800000000ED03000851040008E6
:100040007F0400087F0400087F0400087F04000884
:100050007F0400087F0400087F0400087F04000874
:100060007F0400087F0400087F0400087F04000864
:100070007F0400087F0400087F0400087F04000854
:100080007F0400087F040008BD0900087F04000801
:100090007F0400087F0400087F0400087F04000834
:1000A0007F0400087F0400087F0400087F04000824
:1000B0007F0400087F0400087F0400087F04000814
:1000C0007F0400087F0400087F0400087F04000804
:1000D0007F0400087F0400087F0400087F040008F4
:1000E0007F0400087F0400087F0400087F040008E4
:1000F0007F0400087F0400087F0400087F040008D4
:100100007F0400087F0400087F0400087F040008C3
:100110007F0400087F0400087F0400087F040008B3
:10012000511200087F0400087F0400087F040008C3
:100130007F0400087F0400087F0400087F04000893
:100140007F0400087F0400087F0400087F04000883
:100150007F0400087F0400087F0400087F04000873
:100160007F0400087F0400087F0400087F04000863
:100170007F0400087F0400087F04000800000000DE
:100180007F0400087F0400087F0400087F04000843
:100190007F0400087F0400087F0400087F04000833
:1001A000E9D200087F040008411200087F0400081B
:1001B0007F0400087F0400087F0400087F04000813
:1001C0007F0400087F04000800F002F800F05CF8EB
:1001D0000AA090E8000C82448344AAF10107DA45A2
:1001E00001D100F051F8AFF2090EBAE80F0013F098
:1001F000010F18BFFB1A43F001031847E8C00100C4
:1002000008C101000A444FF0000C10F8013B13F044
:10021000070408BF10F8014B1D1108BF10F8015B5F
:10022000641E05D010F8016B641E01F8016BF9D152
:1002300013F0080F1EBF10F8014BAD1C0C1B09D1A9
:100240006D1E58BF01F801CBFAD505E014F8016B1B
:1002500001F8016B6D1EF9D59142D6D370470000AD
:100260000023002400250026103A28BF78C1FBD8BF
:10027000520728BF30C148BF0B6070471FB515F04B
:1002800081FE1FBD10B510BD00F0E0FA1146FFF76A
:10029000F5FF0FB400F00CF80FBC14F02FFB00F0CA
:1002A0007CF903B4FFF7EEFF03BC00F0C9FA0000CD
:1002B00004B014F06BFB0448002114F00FFC14F0A0
:1002C00077FB00F06AF900006C00012080F30988D8
:1002D0007047EFF309807047684680F30988044847
:1002E0000078C00714BF0220032080F314887047F1
:1002F000D45F0108DFF818C0EFF305831B0618BFB1
:100300006047EFF31483DB0708BF604700DF7047E7
:10031000434C0108DFF818C0EFF305831B0618BF34
:100320006047EFF31483DB0708BF604700DF7047C7
:10033000DD4E0108EFF30980816911F8021CE1BB71
:1003400090E80F1010B5E047BDE81040EFF3098CBE
:100350008CE80700214B93E80600914208BF7047E4
:1003600041B91EF0100F16D11D49086820F0010098
:10037000086010E01EF0100F06BF2CED108A01205F
:10038000002081F825002CE9F00FC1F828C00CB43A
:1003900015F060F90CBC1A60D2F828C0BCE8F00F68
:1003A00092F8250000280EBF6FF0020E6FF0120EBB
:1003B000BCEC108A8CF30988704710B5094A1268A2
:1003C000914209D8084C54F8214090E80F10A047FA
:1003D000EFF3098C8CE80F0010BD0000C400012071
:1003E00034EF00E0980800089808000810B514F0F1
:1003F000F5FFBDE81040154B93E80600914208BF99
:100400007047EFF3098C1EF0100F06BF2CED108A19
:100410000120002081F825002CE9F00FC1F828C048
:100420000CB415F017F90CBC1A60D2F828C0BCE85F
:10043000F00F92F8250000280EBF6FF0020E6FF04B
:10044000120EBCEC108A8CF309887047C40001209E
:1004500010B515F0C7F9CCE710B514F0F1FB15F0A5
:10046000C1F9C6E70948804709480047FEE7FEE7AB
:10047000FEE7FEE7FEE7FEE7FEE7FEE7FEE7FEE754
:1004800004480549054A064B70470000D1D60008CC
:10049000C90100087056012070660120705E0120BD
:1004A000705E0120004870471056012053EA020C8C
:1004B00000F069802DE9F04B4FF00006002B1FBFC4
:1004C000B3FA83F503FA05F424FA05F65E4012BF89
:1004D0001643B2FA82F502FA05F4C5F120051EBFF3
:1004E00022FA05FC44EA0C04203556EA044C4FEA93
:1004F000144418BF641C4FF000084FF000099042EC
:1005000071EB030C39D3002919BFB1FA81F701FA55
:1005100007F6B0FA80F700FA07F6C7F120071EBF0A
:1005200020FA07FC46EA0C062037B6FBF4FCA7EBE2
:100530000507103F07F01F0BCBF120060CFA0BFB51
:100540002CFA06F644BFB3460026202FA4BF5E4611
:100550004FF0000B5BEA060C08BF4FF0010B19EBE4
:100560000B09ABFB027C48EB0608C01B06FB02CC68
:100570000BFB03CC71EB0C01C1E70B460246414675
:100580004846BDE8F08B13B54FF000004FF0000176
:10059000AFF30080BDE81C40704710B50446AFF3D0
:1005A00000802046BDE81040FFF77BBE032A40F2E2
:1005B000308010F0030C00F0158011F8013BBCF105
:1005C000020F624498BF11F801CB00F8013B38BF1D
:1005D00011F8013BA2F1040298BF00F801CB38BF2B
:1005E00000F8013B11F0030300F06780083AC0F007
:1005F000088051F8043B083A51F804CBA0E80810F1
:10060000F5E7121D5CBF51F8043B40F8043BAFF323
:100610000080D20724BF11F8013B11F801CB48BF7D
:1006200011F8012B24BF00F8013B00F801CB48BFB3
:1006300000F8012B7047431A28BF9A427FF6B6AFE5
:10064000032A1044114440F2268010F0030F1EBF0D
:1006500011F8013D521E00F8013D10F0030F7FF428
:10066000F6AF11F0030300F09F80083AC0F00B8052
:1006700051F8043D083A51F804CD40F8043D40F8E3
:1006800004CDFFF7F3BF121D5CBF51F8043D40F8E5
:10069000043DAFF30080D20724BF11F8013D11F8EB
:1006A00001CD48BF11F8012C24BF00F8013D00F82E
:1006B00001CD48BF00F8012C704710B5203AC0F0BA
:1006C0000B80B1E81850203AA0E81850B1E8185053
:1006D000A0E81850BFF4F5AF5FEA027C24BFB1E890
:1006E0001850A0E8185044BF18C918C0BDE8104001
:1006F0005FEA827C24BF51F8043B40F8043B08BF0A
:100700007047D20728BF31F8023B48BF11F8012BD0
:1007100028BF20F8023B48BF00F8012B704702F0C9
:10072000FF0343EA032242EA024200F069B84FF0B5
:10073000000200B5134694469646203922BFA0E831
:100740000C50A0E80C50B1F12001BFF4F7AF09073D
:1007500028BFA0E80C5048BF0CC05DF804EB89002E
:1007600028BF40F8042B08BF704748BF20F8022B71
:1007700011F0804F18BF00F8012B70477047704789
:100780007047431A28BF9A427FF697AF104410F083
:10079000030F11441EBF11F8013D521E00F8013D28
:1007A00010F0030F7FF4F6AF103AC0F00A8010B5D6
:1007B00031E91850103A20E91850BFF4F9AFBDE8FC
:1007C0001040530724BF31E9081020E9081044BF46
:1007D00051F8043D40F8043D12F0030F08BF704784
:1007E000D20728BF31F8023D48BF11F8012C28BFBD
:1007F00020F8023D48BF00F8012C70474FF000027E
:100800000429C0F0128010F0030C3FF492AFCCF139
:10081000040CBCF1020F18BF00F8012BA8BF20F890
:10082000022BA1EB0C01FFF784BF5FEAC17C24BF60
:1008300000F8012B00F8012B48BF00F8012B70478E
:1008400001491820ABBEFEE7260002007546FFF7FF
:1008500029FEAE4605006946534620F0070085464E
:1008600018B020B5FFF70CFEBDE820404FF00006A1
:100870004FF000074FF000084FF0000B21F0070188
:10088000AC46ACE8C009ACE8C009ACE8C009ACE8CB
:10089000C0098D46704770470000000070B50546DE
:1008A000AC6B94F83D00252803D1352084F83D0039
:1008B00002E0152084F83D00204604F041F870BDA8
:1008C00070B50546AC6B042084F83D00206C40F008
:1008D00002002064204604F050F870BD70B5044654
:1008E000A56B284604F048F870BD000010B58AB02A
:1008F000044600BF2E48006840F004002C49086000
:100900000846006800F00400009000BF00BF00BF70
:1009100027481430006840F480602549143108608D
:100920000846006800F48060009000BF00BF081512
:100930000590032006900020079005A91D4807F0A8
:1009400065FF00221146122009F036FB122009F043
:100950001BFB194820604FF4403060604FF000717D
:10096000A160002121610121A16100216162A162D8
:100970002163E162E16001212162E16100216161A5
:10098000204604F0CFF810B101200AB010BD0820B5
:1009900001900120029000200390049001A92046BC
:1009A00003F0CEFE08B10120EFE70020EDE70000E4
:1009B00030380240001402400022014010B50248C5
:1009C00003F0DCFF10BD00008402012010B50446D6
:1009D0005F48006820F440305E49C1F804030846CF
:1009E000D0F80403616808435949086020684068EA
:1009F00020F480702168486020684168206941EADD
:100A00000020216848602068406820F0407021681C
:100A1000486020684068A1680843216848602068F1
:100A2000806820F400602168886020688068E16840
:100A30000843216888604849E06A884218D02068E5
:100A4000806820F070602168886020688068E16AB2
:100A50000843216888602068806820F04050216841
:100A6000886020688068216B0843216888600BE0FB
:100A70002068806820F07060216888602068806845
:100A800020F04050216888602068806820F00200D3
:100A90002168886020688168A06941EA4000216877
:100AA0008860606A28B3A06A18B1A06A082800D8D4
:100AB00004E040F22151294813F0AAFC2068406864
:100AC00040F40060216848602068406820F460407D
:100AD0002168486020684168A06A401E4FF4604267
:100AE00092FAA2F2B2FA82F2904001432068416089
:100AF00005E02068406820F40060216848602068B4
:100B0000C06A20F470002168C8622068C16A208C25
:100B1000401E41EA00502168C8622068806820F4C5
:100B200000702168886020688168E06941EA40209F
:100B3000216888602068806820F48060216888606F
:100B400020688168606941EA80202168886010BD62
:100B500004230140002001400100000F58BF01089C
:100B6000002800DC4042704710B51E481E4908604E
:100B700002201E4908600720486004208860072082
:100B8000C8600220086148618861002016494860F9
:100B90000021154881600421C160102101614021BC
:100BA0004161890081610021C1614FF400610162EE
:100BB000490041620021816200F068F80B490A484F
:100BC0000AF0BAFE18B101200949087002E00020BD
:100BD0000749087040F2036000F00CF80448007800
:100BE00010BD0000400100A0B80B0120EC0B01205B
:100BF0004A00012038B50446002000900120214918
:100C0000086010204860012088600020C8604FF60E
:100C1000FF721D480AF0C5FE012007F0E9FD022021
:100C20001849086010204860012088600020C860D2
:100C30004FF6FF7214480AF0B4FE03201149086011
:100C400010204860082088600020C8604FF6FF72BE
:100C50000D480AF0A6FE4FF40870009004200949E0
:100C6000086010204860012088600098C8604FF636
:100C7000FF7205480AF095FE214603480AF07DFE02
:100C800038BD0000080C0120B80B012030B587B03A
:100C900004460D4600BF6648006840F00100644904
:100CA00008600846006800F00100019000BF00BF26
:100CB00000BF5F480838006840F480005C4908398C
:100CC00008600846006800F48000019000BF00BF83
:100CD00000BF0846006840F004000860084600684D
:100CE00000F00400019000BF00BF00BF084600688C
:100CF00040F0080008600846006800F00800019015
:100D000000BF00BF00BF0846006840F01000086048
:100D10000846006800F01000019000BF00BF00BF4F
:100D20000846006840F0200008600846006800F0AF
:100D30002000019000BF00BF00BF0846006840F0DF
:100D4000400008600846006800F04000019000BFC5
:100D500000BF00BF0846006840F0800008600846F9
:100D6000006800F08000019000BF00BF02200390E7
:100D700001200490022005900C200690082002908B
:100D800002A92C4807F042FD4CF20B70029002A918
:100D9000294807F03BFD4FF68370029002A92748CF
:100DA00007F034FD4FF63F00029002A9244807F0F7
:100DB0002DFD48F23310029002A9224807F026FDCB
:100DC0002820029002A9204807F020FD00201F499A
:100DD000486080211D4881608900C160490001612F
:100DE00089004161890081610021C1614FF40031B6
:100DF000016200214162032181620021C16201631D
:100E000013481249086000BF08462063846300BF8E
:100E100004F070F80D4807F03BFB00220521382054
:100E200009F0CAF8382009F0AFF807B030BD00006B
:100E30003838024000080240000C02400010024016
:100E40000014024000180240001C0240180C01204F
:100E5000106402402DE9F04190B005464FF00008C3
:100E600000200390029001907E48006801697E484E
:100E70000078884728702878002870D00024E4E0A3
:100E800004A800EB440207A800EB44017548006881
:100E900043697548007898477448007801280BD159
:100EA00007A830F814000DA921F8140004A830F8A0
:100EB00014000AA921F814006C48007800F0020020
:100EC00038B107A830F81400C0F580500DA921F8FA
:100ED00014006648007800F0040038B104A830F827
:100EE0001400C0F580500AA921F814005F4800786A
:100EF00000F0080058B107A830F814000AA921F83A
:100F0000140004A830F814000DA921F814000DA84D
:100F100030F81400564951F82410884207D90DA81A
:100F200030F81400524951F82410401A06E0504895
:100F300050F824000DA931F81410401A86B20AA8FE
:100F400030F814004B4951F82410884208D90AA8F7
:100F500030F81400474951F82410401A07E07CE0AB
:100F6000444850F824000AA931F81410401A87B2F6
:100F7000F01905280BDD0DA830F814003C4941F8A4
:100F800024000AA830F814003A4941F824003648F1
:100F9000007870280DD10DA830F81410A81C20F886
:100FA00014100AA830F8141005F10C0020F81410E1
:100FB00016E02F4850F824002F4909884843C0F311
:100FC0000F31A81C20F814102A4850F824002B498F
:100FD00009884843C0F30F3105F10C0020F81410C4
:100FE00001A802AB03AA214600901F48007813F025
:100FF000BFFA0398C1B205F1160001550298C1B2BB
:1010000005F120000155019830B1012809D00228CE
:101010000CD0032814D10EE0012105F11B0001556D
:1010200011E0022105F11B0001550CE0032105F13F
:101030001B00015507E0002105F11B00015502E0EE
:101040004FF0010800BF00BF641C2878A0423FF6A3
:1010500017AF284600F014F88046404610B0BDE8AF
:10106000F08100004C0001205500012054000120B7
:10107000B80C0120CC0C01205000012052000120AE
:1010800038B50446002000900025694617480078CE
:1010900013F060FA0098182816D005DC58B1102813
:1010A0000CD014281CD10CE01C2810D0402811D0E2
:1010B000492815D111E00020A06213E00120A062B0
:1010C00010E00220A0620DE00320A0620AE00420EC
:1010D000A06207E00520A06204E00620A06201E013
:1010E000012500BF00BF284638BD00005500012083
:1010F00070B504460D46002610480480104805804F
:1011000010480168702088470E4841687020884761
:1011100051280FD10B480C49086070200B4908700A
:1011200008200B49087008480068C1680748007823
:10113000884700E00326304670BD000050000120C3
:10114000520001201C0001204C000120550001200C
:101150005400012010B500BF00BF00BF00BF00BF9A
:10116000BFF34F8F00BF00BF00BF00BF00BF00BF75
:10117000BFF36F8F00BF00BF00BF00200D490860A4
:101180000D48006840F400300B49086000BF00BF04
:1011900000BFBFF34F8F00BF00BF00BF00BF00BF45
:1011A00000BFBFF36F8F00BF00BF00BF00BF0CF0D8
:1011B0000BFA10BD50EF00E014ED00E038B5044626
:1011C0000D4600BF1C48006840F480001A490860C2
:1011D0000846006800F48000009000BF00BF174878
:1011E0002060800560600021A160E1600114216140
:1011F000811361610113A1610021E161411221624A
:10120000002161620121A1620021E1622163204687
:1012100007F03EF908B1012038BD00BFAC63A563FB
:1012200000BF00221146382008F0C6FE382008F022
:10123000ABFE0020F0E700003038024010640240AE
:101240000220024909688860704700003853012075
:1012500010B5024804F000FE10BD0000C8020120D5
:1012600030B50468246824F4802405682C60046880
:1012700063608468402C04D10468A2600468E16063
:1012800003E00468A1600468E26030BD2DE9FC5F02
:1012900015460746DFF8908028440190D8F80020D2
:1012A0001C460E46526E2144894652689047D8F833
:1012B0000020781B4946526E824652689047711949
:1012C00038190090D8F800208946526E526890472D
:1012D000D8F80020711B8B46526E009852689047D8
:1012E000002C1ED0D8F80010361B4546496E0198D8
:1012F0004A68314690472A6831465046526E5268D5
:10130000904728683C1B4946406E426820469047FB
:101310002A6859462046526E526802B0BDE8F05F16
:101320001047BDE8FC9F0000240101202DE9F84F83
:1013300081468A4615461E4699FBF5F000F0FF0BE4
:101340009AFBF6F0C0B20090002422274FF0050867
:10135000022002F0C3FA124802F04DFA01240AE01A
:1013600008EB0A0304FB057204FB0570414601F01B
:1013700003FC601CC4B25C45F2DD01240AE004FBFE
:10138000068307EB090204FB0681384601F0F4FBF3
:10139000601CC4B200988442F1DDBDE8F88F000003
:1013A0004040400024E000200BF08EFF642013F04A
:1013B000E1FA00200BF078FF642013F0DBFA002044
:1013C0000BF082FF642013F0D5FA00200BF06CFFC5
:1013D000642013F0CFFA00200BF076FF642013F0A6
:1013E000C9FA00200BF060FF4FF4FA7013F0C2FA54
:1013F000D9E700002DE9F04105460C4600260027FC
:101400006548854200D104E04FF44071634812F012
:10141000FFFF206810B12068012800D104E040F2ED
:1014200001315E4812F0F4FF606840B16068012845
:1014300005D06068022802D06068032800D104E06B
:1014400040F20231554812F0E3FFA06828B1A068CD
:10145000042802D0A068082800D104E040F203313B
:101460004E4812F0D5FFE06828B1E068102802D09D
:10147000E068202800D104E04FF44171474812F0A1
:10148000C7FF206910B12069402800D104E040F274
:101490000531424812F0BCFF6069802807D06069BE
:1014A000B0F5807F03D06069B0F5C07F00D104E063
:1014B00040F20631394812F0ABFFA06918B1A069BB
:1014C000B0F5007F00D104E040F20731334812F05C
:1014D0009FFFE06938B1E069B0F5006F03D0E069C3
:1014E000B0F5406F00D104E04FF442712B4812F088
:1014F0008FFF206A18B1206AB0F5805F00D104E048
:1015000040F20931254812F083FF606A38B1606A01
:10151000B0F5005F03D0606AB0F5804F00D104E001
:1015200040F20A311D4812F073FF2068012816D0DE
:101530002E686FF30E06D4E901010843E168084301
:101540002169084361690843A1690843E1690843C7
:10155000216A0843616A084306432E6019E02E6839
:101560006FF30E06D4E907010843616A0843064396
:101570006F686FF30E07D4E901010843E16808437F
:101580002169084361690843A169084307432E6044
:101590006F600020BDE8F081400100A080C201081A
:1015A00070B504460D460C48844200D104E040F278
:1015B00014410A4812F02CFFB5F5005F00D204E098
:1015C00040F21541054812F023FF606940EA4500EA
:1015D0006061002070BD0000400100A080C20108D1
:1015E000F8B505460C461646002000900027354801
:1015F000854200D104E040F2E731334812F008FFA1
:10160000206888B1206801280ED0206802280BD0FD
:101610002068032808D02068042805D02068052801
:1016200002D02068062800D104E04FF47A712648E1
:1016300012F0EEFE6068102805D06068082802D01D
:101640006068182800D104E040F2E9311E4812F029
:10165000DFFEA06818B1A068102800D804E040F2AE
:10166000EA31194812F0D4FEE068B0F5005F00D20C
:1016700004E040F2EB31144812F0CAFED4E9000154
:101680000843A168491E40EA4110E16840EA412050
:1016900000900098286107F049FB07460BE0701C9A
:1016A00038B126B107F042FBC01BB04201D903207C
:1016B000F8BD0120FCE7A86900F020000028EED169
:1016C00000BFF5E7400100A080C201082DE9F0410C
:1016D00005460C4617460026B0465548854200D1BF
:1016E00004E040F25231534812F092FE206818B1E3
:1016F0002068102800D804E040F253314D4812F021
:1017000087FE606818B16068102800D804E04FF4C4
:101710005571484812F07CFEA06818B1A0681028E6
:1017200000D804E040F25531424812F071FEE06802
:1017300018B1E068102800D804E040F256313D4866
:1017400012F066FE206918B12069102800D804E064
:1017500040F25731374812F05BFE606918B160699A
:10176000102800D804E04FF45671324812F050FEB1
:10177000A06918B1A069102800D804E040F25931DE
:101780002C4812F045FE0FB1012F00D104E040F2C9
:101790005A31284812F03CFE012F1FD0AE6806F0E7
:1017A00070462068401E6168491E40EA0111A06829
:1017B000401E41EA0021E068401E41EA0031208AD3
:1017C000401E41EA0041A08A401E41EA0051207EAD
:1017D000401E41EA00600643AE6025E0EE6806F078
:1017E00070462068401E6168491E40EA0111A068E9
:1017F000401E41EA0021208A401E41EA0041207E2D
:10180000401E41EA00600643D5F8088008F07048A1
:10181000E068401E0103A08A401E41EA005040EAF1
:101820000808EE60C5F808800020BDE8F0810000DF
:10183000400100A080C201082DE9F0430446C568BC
:1018400087B090468946002001F0E6FF064625B1A4
:10185000287910B146F0020001E026F0020001F004
:10186000DBFF2069012558B1D4E902128DE826007A
:10187000039563882288046841464846A0471EE0D5
:10188000124F134B214638681B68427CE06898472A
:1018900030B9E088012801D0002001E03868806B71
:1018A000A288E388A1680095CDE90410CDE9023251
:1018B000019563882288414648460AF0A7FC07B094
:1018C0003046BDE8F04301F0A7BF0000240101202D
:1018D0001C0101202DE9F0478146884640F2C320D3
:1018E00050434FF47A7190FBF1F502FB02F002EBEA
:1018F000D27100EB610617460023414648466D1C35
:10190000FFF7C4FC012413E004FB04F007FB07000D
:10191000B04206DD3B46224641464846FFF7B6FC4C
:101920007F1E3B46224641464846FFF7AFFC641CFB
:10193000AC42E9DDBDE8F0871CB50024019401ACA0
:10194000009400F0E7F81CBD2DE9FF4F83B08146FD
:1019500006988A46A0EB0A08109E00200090A2EB91
:1019600009043568934654EA080018D02046FFF76A
:10197000F7F807464046FFF7F3F887420BDA2046B0
:10198000444680464846D14682465846DDF818B05F
:10199000069001200090002C07DD204606E007B0ED
:1019A0004846BDE8F04F00F03BB96042A0420AD083
:1019B0004846D9466442C8F1000883464FF0FF37D5
:1019C000DDF818A000E001275148B8F1000F11D050
:1019D00004EBD4714FEA610B01DACBF1000B4C48F8
:1019E0000068807E88B3002F02DA306820443060BF
:1019F00000257BE000990029016821D0897E11B182
:101A00000027804615E007B05A4649465046BDE8D3
:101A1000F04F0AF05DBD28466D1C11F003FA38B98D
:101A2000D8F8000009EB0701406E42685046904725
:101A30007F1CA742EFDD6D1E356007B0BDE8F08F5B
:101A40008A7E1AB10027804617E019E0486E5A4690
:101A50005146036807B04846BDE8F04F184728468E
:101A60006D1C11F0DFF938B9D8F8001009EB070048
:101A7000496E4A68514690477F1CA742EFDDDAE77E
:101A800000250FE008FB05B090FBF4F101EB0A0024
:101A9000009951B11E4A09EB05011268526E526855
:101AA00090476D1CA542EDDDC7E7194909EB050319
:101AB0000968496E4A6801461846F1E708FB05B017
:101AC00090FBF4F101EB0A0001903068384430607B
:101AD00011F0A8F948B9009890B10D4809EB05013B
:101AE0000068406E4268019890476D1CA542E5DD94
:101AF0003068002F01DA20443060C01B30609CE762
:101B0000034909EB05000968496E4A680199EBE74A
:101B1000240101202DE9FF470F4640491646804623
:101B200009680C981D460A7E012A1CD0A8EB060005
:101B3000791B50EA01031CD0A2F1010912F0BCFB91
:101B400000F58060824602F0C9FD00FB09F45046B2
:101B500002F0C8FD00FB09F1002C0CDAC4F500709E
:101B6000801240420AE00090324639464046FFF774
:101B7000EBFEBDE8FF8704F50074A012002904DA2B
:101B8000C1F5007189124C4202E001F500718C121E
:101B9000002804DD411C01EBD171491003E000EB8A
:101BA000D0714910401E00EBD0704210002C04DDB3
:101BB000601C00EBD070401003E004EBD4704010C8
:101BC000641E04EBD47308EB0104ADF800403C182C
:101BD000ADF80240A8EB02045B10B21AADF8044065
:101BE000ADF808203144FC1AEA1AADF80C1028446C
:101BF000ADF80A20ADF80E000023ADF806401A46F5
:101C00000421684600F07AF8394640460EF064FE3A
:101C1000294630460EF060FEABE7000024010120AB
:101C2000064A13681A7E012A05D0521E02EBD272B0
:101C3000521000F005B85A6E526810472401012076
:101C40002DE9F05F0646884640F2C32002FB00F112
:101C50004FF47A7091FBF0F702FB02F102EBD270C5
:101C600001EB600B1446B118234A301B7F1C12682D
:101C7000526E13680A4641469847012538E000BF76
:101C800005FB05F004FB040159451CDDBC4219DDD0
:101C9000194B06EB050AA6EB05091B68AAF1010220
:101CA00008EB04015B6E09F101001B689847124BB9
:101CB000AAF10102A8EB04011B6809F101005B6EA7
:101CC0001B689847641E0C4B3219301B1B689246E8
:101CD00008EB05015B6E81461B689847064B524630
:101CE000A8EB05011B6848465B6E1B6898476D1C96
:101CF000BD42C5DDBDE8F09F240101202DE9FF4F65
:101D000043F6FF740F46664283B09B46814600212E
:101D10000BE000BF09EB8100B0F90200A04200DA3D
:101D20000446B04200DD0646491CB942F2DB674872
:101D30000068406900280DD0B0F906101A46A1EBE2
:101D40000B01B14200DA0E46B0F90200801AA0423F
:101D500000DD0446B4E0DFF878A100200546CAF8AB
:101D6000000088E0781E854201DA6B1C00E0002349
:101D700009EB850C09EB8302BCF90200B2F90210F1
:101D8000A04244D1A14215D139F92330059A39F93D
:101D9000251003EB020C4D4A05981268084404EB29
:101DA0000B01526E6045136801DA62462AE0024672
:101DB000604627E02846A4464FF000087A1E0BE054
:101DC00008B1401E00E0781E09EB8003B3F9023031
:101DD000634504D108F101089045F1DB2346A34295
:101DE00048D01A1B39F92500A1EB040C059B92EA97
:101DF0000C0F09D4354A184404EB0B011268526EDB
:101E000013680246984735E00CF048FB32E0A142E7
:101E100030D001DBA04203DDA0422BDBA14229DC54
:101E2000E04688420ADC0346A04223DC0846A14281
:101E300020DBB8F900C0B2F9001008E00B46A1425F
:101E400018DCA04216DBB2F900C0B8F90010E21AA3
:101E5000A1EB0C0151430029A0EB030202DD01EBD1
:101E6000620102E0A1EB6201491CC01A91FBF0F093
:101E70006044C9E76D1CBD42FFF674AF0598009041
:101E800004EB0B00019000208046054613E0114949
:101E9000B8F1000F31F915A009D0009901EB0A0241
:101EA00008440A490968496E0B680199984788F007
:101EB000010850466D1C064909688D42E7DB641C29
:101EC000B4427FF748AF07B0BDE8F08F240101208E
:101ED000C801012040550120014AC2E900017047B4
:101EE000D0000120014AC2E900017047D80001205A
:101EF000014AC2E900017047E0000120014AC2E93D
:101F000000017047980101202DE9F04FDFF828B15A
:101F100091B04FF0FF35DBF80030B3F92210069195
:101F2000DE69B3F92490F469A189814206D8E28977
:101F3000824203D3471AD4F8008012E0D4E9018129
:101F400000296FD00A8882426CD84D88854269D3B7
:101F5000801A82B2486800EB8200B0F90070B0F9D4
:101F60000250781C5ED0307EA17C10FB01FA217CEF
:101F7000CDE90701B3F92A6030460AF0F5FDC0B299
:101F80000E90DBF8000007FB0A81A37C826B01271F
:101F9000CDE90412CDE90273C069089AC17E807E42
:101FA000CDE90001DDE9060349460AF02FF9681C76
:101FB00018D046F002000AF0D7FDDBF80000A37C41
:101FC00005FB0A81826BCDE90273CDE90412C06979
:101FD000089AC17E807ECDE90001DDE9060349460D
:101FE0000AF014F9DBF800005D46C069417E007E0E
:101FF000814214D9022E12D086F004000AF0B4FDFA
:102000002868C069027EC37E12FB0391437E857EF1
:10201000089A06984B4412FB05020AF083FA0E98C0
:102020000AF0A2FDDBF80000627C418C114441847F
:1020300011B0BDE8F08F00002401012004480068C1
:10204000C069C06909B1027C0A60407C7047000029
:1020500024010120022008807047C06982898A42D9
:1020600002D8C2898A4210D2806880B102888A422E
:102070000DD843888B420AD3406800EB8100A0EB67
:102080008200B0F90000002801DB01207047002029
:10209000704700002DE9F043304C034687B02068BC
:1020A0001946B0F92A60C069C06900F086F80028B6
:1020B00050D041680088181A01EBC0053046AF784F
:1020C0000AF052FD814620686A680123816BCDE9E0
:1020D0000237CDE90421C169CB7E8A7ECDE9002398
:1020E0000B7EB0F924102A78B0F922000AF08EF89D
:1020F0002068C069417E027E91421FD9C07E11FBDB
:1021000000F812FB00F7022E18D000F071FE064610
:1021100000F03CFE01F06FFB21682A78CB69B1F931
:102120002200DB7E12FB0302B1F9241001EB08034D
:1021300039440AF0F7F9304601F05DFB48460AF0F1
:1021400013FD20686A78C369B0F922109B7E12FBE8
:102150000311418407B0BDE8F08300002401012091
:1021600030B50F4C05460B4620682946C069C0694A
:1021700000F023F8002812D04168008824682A1A49
:102180000120E46900EBC200085CA47E10FB04F0AF
:10219000002B04D011F8321011FB04F1196030BD8E
:1021A0002401012001200880704700B5C06900F0BB
:1021B00004F8002800D0012000BD06E002888A4211
:1021C00002D842888A4202D280680028F6D170473D
:1021D00070B50025124C19E020691249C5EB0516AF
:1021E00000EBC60070220968001DFEF766FA206940
:1021F000002140F8361000EBC60000F10C018161AF
:10220000011D0A1DC0E90F126D1C4164A0688542C2
:10221000E2DB00F08DFEBDE8704001F0DDBC0000A7
:10222000CC0101202401012070B50F490D48086040
:10223000084602F025FA0C4C143CA068C0EB0010D4
:10224000C500284600F06AF82A460021206102F005
:102250001FFA4FF0FF30206001F0F2FCBDE8704043
:102260000FF028BDA12A0108E001012010B50400EB
:1022700009D000F05DFE20460CF074F9044601F030
:10228000ABFC204610BD002010BD38B5054600F05F
:102290004FFE2846FFF7EAFF040009D000F0B6F829
:1022A0002A460021009002F0F3F9684600F0D6F8C3
:1022B00001F092FC204638BD024A106021F0030074
:1022C000506070476C54012010B5040016D000F027
:1022D0002FFE0B48406B10F8341059B1022909D277
:1022E000042101EBC401415848680CF0F3F8204682
:1022F00010F040FCBDE8104001F06EBC10BD0000C5
:10230000AC530120002805D0034AD16B016001B114
:102310004860D06370470000AC5301202DE9F041C4
:1023200004460FF005FF2848E41C24F00305016C67
:102330002D1DA94200D90D46C46B13E054F8042C9E
:10234000AA420ED184B1216809B162684A6061680D
:1023500009B122680A60C26BA24231D12168C1630F
:102360002EE02468002CE9D18046816BC0680F18EC
:1023700057F8040C3E1A306838B1002010F036FCD3
:1023800057F8040C3E1A3068D0B97068A84217DBC1
:102390003044441B3046241D10F00EFCD8F80C10BD
:1023A000491BC8F80C10D8F814102944C8F81410A8
:1023B0007068401B02D031460CF08CF844F8045C85
:1023C0002046BDE8F0810000AC53012010B5002488
:1023D0000FF0AEFE0C490F2001EBC002526C1AB197
:1023E00001EBC000406C08E0401EF5D508E04168F4
:1023F000A14200D90C46806810B180680028F6D14F
:10240000A4F10C0010BD0000AC5301200549CA69BD
:10241000521CCA61496B01EBC0010A78521C0A7058
:1024200000F034B8AC53012010B500F081FDFFF787
:10243000CDFF64220849B0F5800F04D990FBF2F477
:10244000086A444303E0096A4143B1FBF2F401F036
:10245000C3FB204610BD0000AC5301200A490268AE
:102460004B6B52F8082C03EBC2021378022B03D3F8
:10247000CB690BB15B1ECB611178491E1170002135
:102480000160084670470000AC530120002806D0C8
:102490000349042202EBC000496B0858083070471A
:1024A000AC53012002480068407C00F003B80000F3
:1024B0002401012010B5044600F03AFD044904EB64
:1024C000840001EB8000447901F086FB204610BDBA
:1024D000E854012002490968497C00F003B8000073
:1024E000240101202DE9FC5F8946044600F020FD0F
:1024F000484600F089FC2C4E09EB8907824656F8C5
:102500002700019029484FF00108016841B9274987
:10251000C0F80080091D26480860084602F0B0F89F
:10252000214A09EB89015FEA0A0002EB81051BD011
:1025300001F03AF983464FF07F4001F051F900F085
:10254000C1F800221146206800F072FA2068428823
:102550000188504601F0A4F946F8274085F8058027
:10256000584601F021F917E046F8274085F8058024
:102570002869464618B101F04FF80020286174B16F
:102580000096E868A1684B46421AA8686168411A3B
:10259000206801F09BF82861484611F043F801F0EB
:1025A0001BFB0198BDE8FC9FE85401205801012065
:1025B000752A0108024A1268527C00F003B8000034
:1025C0002401012070B514460D46064600F0B0FC0B
:1025D000204600F019FC0300174804EB840109D0E1
:1025E00050F8210041688068711A2A1A184601F0D3
:1025F00047F91CE000EB8104A268B24201D001223D
:1026000000E00022E368AB4201D0012300E0002398
:102610001A430CD0236943B150F821008168406807
:102620006A1A311A184601F01CF8C4E90265BDE8BF
:10263000704001F0D1BA0000E8540120024800685F
:10264000407C00F003B800002401012010B50446CE
:1026500000F06EFC0A4804EB840100EB81030122C8
:102660005A7150F8210030B1204610F0DBFFBDE870
:10267000104001F0B1BA21460248FFF733FFF6E7F8
:10268000E8540120D095010810B5C2B2CBB2D21ADD
:1026900000D5524293B25B43C0F30722C1F3072433
:1026A000121B00D55242000C92B2A0EB114002FB6B
:1026B000023200B2002801DA404200B280B200FBD0
:1026C000002010BD10B50021084600F003FC43F6C1
:1026D000FF725042BDE8104013460146AFF3008040
:1026E0002DE9FC411C4615460E46074600F020FC2D
:1026F00004200AF039FA80461248C068C16C006DA7
:102700000F4406440D440444ADF80070ADF8045085
:10271000ADF80260ADF8064068460BF049FD07E0F1
:1027200023462A463146384609F0FCFE0BF002FDEE
:102730000028F5D140460AF017FA01F04DFABDE83D
:10274000FC810000180101202DE9F0411C461646CD
:102750000D460746022B02DB0020BDE8F0811C205D
:10276000FFF7DCFD0028F8D00DB105610AE0094A49
:1027700052F8241009B905E011460A68002AFBD175
:102780000969016184618682002101604160C0E9BC
:102790000217E2E73C01012070B51D46FFF7D4FFA8
:1027A000040009D000F00EF8E068006820B9034882
:1027B000006800EB85008465204670BD240101207F
:1027C000FFF7A0BD70B590B38269022A30DA1E4CC3
:1027D00054F8221019B944F8220032E019464B6827
:1027E000002BFBD106E0CB68C5681B682D68AB42A7
:1027F00003DD09680029F6D11AE0C1B1CB68C668CB
:102800001B683668B3420CD1838A012B05D008E0DF
:102810001946DB681B68AB4203DB0B68002BF7D162
:1028200029B14B6833B118604A68426004E0FFE7A1
:10283000012070BD44F822004860884200D1002188
:102840000160002070BD00003C01012010B503E0D4
:102850000468FFF7B7FF20460028F9D110BD11F03A
:10286000FDB800002DE9F0410026DFF834800D4F5F
:10287000354600BF58F8254009E0E0680068385C3C
:1028800020B1204611F0EAF8266026462468002C84
:10289000F3D16D1C022DEDDB3046BDE8F081000068
:1028A0003C010120F0600108022801DB0020704794
:1028B000054951F8200004E0C16809680029F6D0F4
:1028C00000680028F8D170473C0101202DE9FC4741
:1028D00006005FD000F02CFB00F0ACFA3C4C8146C7
:1028E0002068B0F9228000F0C7FA216807468A8C78
:1028F000D01B888441E000BF47F6FF71304601F0ED
:102900008BFD82460146304601F05CFD216805469C
:1029100091F82C0000F00300012841D002283BD0A0
:1029200000204A8C101A4884ADF800006A1E10443A
:10293000ADF80400888CADF80200A9F1010108444B
:10294000ADF806006A465146304601F00BFB21689F
:10295000BDF8020088845146304601F02BF8064449
:1029600030780A281ED00D281CD0BDF80000216840
:1029700028444884307818B1761C30780028BBD1C0
:102980002068818C39448184818D21F00301818507
:1029900001F022F9BDE8FC8705EBD5704010C0E7D7
:1029A0002846BEE7206890F82C1001F003010129A9
:1029B0000BD0022909D0018C418431780A29D9D160
:1029C000828C02EB09018184D4E7A0F82280F4E72D
:1029D0002401012070B514460D46064600F0A8FA01
:1029E00005480068458484843046FFF76FFFBDE8E2
:1029F000704001F0F1B80000240101202DE9F04100
:102A000007460A4815460E460068B0F92C0040F00B
:102A1000020000F091FF04462A4631463846FFF78F
:102A2000D9FF2046BDE8F04100F086BF2401012017
:102A30007CB514460D46064600F07AFA1148006847
:102A4000C16C006D0D4404443188681E0844ADF823
:102A50000400ADF800507188601E0844ADF806000F
:102A6000ADF8024068460BF0A3FB06E0224629467B
:102A70003046FEF7E1FE0BF05DFB0028F6D101F0D9
:102A8000ABF87CBD240101207CB514460D460646FA
:102A900000F04EFA10480068C16C006D0E44054409
:102AA000301BADF800003019ADF80400281BADF85C
:102AB00002002819ADF8060068460BF079FB06E025
:102AC000224629463046FEF705FF0BF033FB00286F
:102AD000F6D101F081F87CBD240101202DE9F041FF
:102AE0001C4615460E46074600F022FA0B480068C1
:102AF000C16C006D0D44044400200BF059FB07E04D
:102B000023462A46314638460DF09EFD0BF012FB57
:102B10000028F5D1BDE8F04101F05EB824010120A4
:102B20002DE9FC4114460D46064600F001FA114F0E
:102B30003968C86C096D054404440E44ADF8005072
:102B4000ADF80440ADF80260ADF8066068460BF0E1
:102B50002FFB08E0386822463146406E036828465D
:102B600098470BF0E7FA0028F4D101F035F8BDE8FA
:102B7000FC810000240101202DE9F0411C4615468E
:102B80000E46074600F0D4F90C480168C86C096D80
:102B9000074405440E440C4400200BF009FB07E0F9
:102BA00023462A4631463846FEF7C6FE0BF0C2FAE7
:102BB0000028F5D1BDE8F04101F00EB82401012054
:102BC0002DE9FC411C4616460D46074600F0B0F9BB
:102BD0001A480168087ECA6C096D17440D440C44FC
:102BE000401E391A1644ADF800103118ADF8041023
:102BF000291A2044ADF80600ADF8021068460BF023
:102C0000D7FA15E032462946384609F001FC32462B
:102C10002146384609F0FCFB621E691C384609F063
:102C200057FC621E691C304609F052FC0BF082FA18
:102C30000028E7D100F0D0FFBDE8FC81240101208D
:102C400070B516460C46054600F072F90B48006850
:102C5000C16C006D0D44044400200BF0A9FA06E09D
:102C6000324621462846FEF7EBFF0BF063FA0028B8
:102C7000F6D1BDE8704000F0AFBF00002401012094
:102C80002DE9FC411C4615460E46074600F050F95A
:102C900010480068C16C006D0F4406440D440444A4
:102CA000ADF80070ADF80450ADF80260ADF8064024
:102CB00068460BF07DFA07E023462A46314638463F
:102CC00009F030FC0BF036FA0028F5D100F084FF53
:102CD000BDE8FC812401012008B50B46002805D081
:102CE000009281888268C08800F001F808BD10B5A4
:102CF0000828029C30D008DC04FB01F401280AD02B
:102D0000022813D0042804D11CE0102828D0202841
:102D10002CD0002010BD04EBD30003F00701105CA1
:102D2000C1F10701C84000F0010010BD04EB9300A1
:102D30000621105C01EA4301C1F10601C84000F020
:102D4000030010BD04EB5300D907105C02D000F063
:102D50000F0010BD000910BD04FB0130105C10BD58
:102D6000481004FB003032F8100010BD881004FB3E
:102D7000003052F8200010BD034951F82000C1680E
:102D80008A6A0821104700003C01012010B500F0BC
:102D9000CFF809F0F7FB09F08DFC044600F01CFFAA
:102DA000204610BD10B5044600F0C2F805480021C9
:102DB0000068C069426820469047044600F00CFF56
:102DC000204610BD2401012070B50C46054600F0D8
:102DD000AFF8064821460068C06942682846904717
:102DE000044600F0F9FE204670BD000024010120D9
:102DF00010B500F09DF809F0CDFB09F05BFC04462E
:102E000000F0EAFE204610BD0021022802D202494D
:102E100051F82010084670478801012010B500F0D5
:102E200087F803480068047C00F0D6FE204610BDF9
:102E30002401012010B500F07BF804480068C06947
:102E4000447E00F0C9FE204610BD00002401012090
:102E500070B514460D46064600F06AF8224629462B
:102E6000304609F0DDFB10B1002028602060BDE88D
:102E7000704000F0B1BE000010B5002400F058F81A
:102E80000B48006890F82C1001F00C01042904D0C4
:102E9000082906D00C2907D103E0C069047E641E0E
:102EA00002E0C069007E440800F096FE204610BD96
:102EB00024010120024951F8200000690068704790
:102EC0003C010120024951F8200000694068704728
:102ED0003C01012070B50D46044600F029F820465B
:102EE0000EF006FF044628460EF00AFF044300F0E9
:102EF00073FE204670BD000010B500F063FF0A4964
:102F00002E20087000F08AFE08480FF0D9F809F06A
:102F100042FC04460021084600F0EEFC0AF078FF6F
:102F2000FFF756F9204610BD180101207854012002
:102F300070B5184CE06820B100F06BFE6168884203
:102F400004D000F089FE00F064FE6060E068401C80
:102F5000E06001281CD10EF0ADFE054620688542D8
:102F600016D0002813DBFFF77DFC01462068C0EB7C
:102F70000012206900EBC2025167C5EB0511064A39
:102F800000EBC100011D1160406FFFF75FFC256081
:102F900070BD0000CC010120240101201CB50400FB
:102FA00004D10E480068046E002C16D0FFF7C0FF55
:102FB0002046FFF72BFA009044696846FFF74EFA67
:102FC0004CB12046FFF722FA019081688968884752
:102FD00001A8FFF743FA00F0FFFD1CBD240101200A
:102FE00001490A4600F002B801F0FFFF2DE9F04365
:102FF00087B015460C465FEA000846D0FFF798FFF9
:10300000002000F009FC814621480068066E404619
:10301000FFF7FCF900900068806900F0C5FB0746E7
:1030200040F6FF70C44204D10098B0F90440B0F9F2
:1030300006500098611E0289ADF804401144ADF8B5
:1030400008104189681E0844ADF80650ADF80A0022
:103050000AF090FD6846FFF701FA01A80BF0A8F806
:1030600006E02A462146404600F018FA0BF062F8C6
:103070000028F6D1384600F097FB304600F0A4F85F
:10308000484600F0C9FB00F0A7FD07B0BDE8F0839B
:103090002401012038B50024009400F001F838BD67
:1030A0002DE9FE4F984691468A46834600270C9E9E
:1030B000FFF73EFF184819490068407C51F820404E
:1030C000E1680968042903D02468002CF8D100E0E5
:1030D0001CB9FFF7E9FB04001BD0E0680121C26ABC
:1030E00020469047050011D02469A0688047401C05
:1030F00002D10B4C46F001060096CDE9015443463F
:103100004A465146584600F087F8074600F064FDED
:103110003846BDE8FE8F0000240101203C0101205B
:10312000D096010838B504001CD0FFF701FF0E4807
:103130000068006EA04201D100F028FB2046FFF796
:1031400065F90090406908B100F02FFD0098006813
:10315000FFF736FB6846FFF781F92046FFF7B4F822
:1031600000F03AFD38BD00002401012038B505000B
:103170004FF0000411D0FFF7DBFE2846FFF746F9B9
:10318000009000680069806880470AF073F8044680
:103190006846FFF763F900F01FFD204638BD38B5DB
:1031A00004000ED0FFF7C4FE2046FFF72FF900F110
:1031B000180400906846FFF751F900F00DFD204615
:1031C00038BD002038BD0000F8B50546FFF7B0FE59
:1031D000104E3068046ECDB10CB100F0D7FA0AF091
:1031E000BDFD2846FFF712F9009031680D660068B2
:1031F000FFF7E8FA6846FFF731F909F03BFD09F0FF
:103200007DFC00BF00F0E8FC2046F8BD00F0BEFAEF
:10321000F8E70000240101202DE9FF4FDFF8E8B0B6
:1032200083B01C46DBF80010DDE9106092464FF0D9
:1032300000084B7C42461299FFF786FA050060D0E1
:103240002869806880470AF015F881460AFB09F171
:10325000C91DCF08FFF7E8F8F10705D1C11700EB4A
:103260009170801000EB4000002C09DC1FB1183871
:10327000B0FBF7F000E000206442A04200DC04460E
:10328000F00707D10090DDE903012346524600F024
:1032900011FC8046002C03DC2846FFF791FA30E051
:1032A00004FB07F01830F10702D0FEF7DFFF01E062
:1032B000FEF7EBFF06001CD0FFF7A8F801900560B1
:1032C000039981800499C180A0F808A04481C0F8C6
:1032D0001480C0E9037901A8FFF7C0F81298AE6026
:1032E0002861DBF80000407CA861304607B0BDE8EB
:1032F000F08F2846FFF764FA5FEA080001D0FEF776
:10330000E3FF0020F2E70000240101202DE9F74F40
:103310008EB0144689460E98FFF778F80990B0F9F8
:1033200008B0B0F90A600068006940680C9009A80C
:10333000FFF794F8564D574F2868407C57F8200007
:10334000C1688A6A082190470790182801D3202075
:1033500007902868407C57F820000069069003C851
:103360000B904D48814201D0012000E000200A90DE
:10337000002000F083FC00287DD1286809EB0B01B8
:10338000B0F90C20891A491E002902DDABEB0105BA
:1033900000E05D46B0F90810494505DDA1EB0901E3
:1033A00089446D1A089101E000210891002D6BDD20
:1033B000B0F90E20A119891A491E002902DDA6EBD9
:1033C000010800E0B046B0F90A00A04204DD061B87
:1033D0003444A8EB060800E00026B8F1000F53DDE6
:1033E000089801900DA95F46DDF830A00E98009175
:1033F000FFF7D5FE774300EB870101982B4601EBE1
:10340000800200994846CDE900A1214600F002FE65
:103410000090002838D00A98E8B1DDE90632294644
:10342000009800F0C9FCB0B90698009FDA46D0F8C1
:1034300010C0BCF1000F05D004235A463946384667
:10344000E04708E00B993868884701C7AAF10100F6
:103450005FEA000AF6D100990020079ACDE903013E
:10346000059001200090CDE9010221460346641C2D
:103470002A46484600E007E008F0C8FEA8F101002F
:10348000761C5FEA0008ABD111B0BDE8F08F0000F8
:10349000240101203C01012037C70008F8B5164679
:1034A0000F46050012D0FEF7B1FF00904469684650
:1034B000FEF7D4FF2846FFF759FE0346082800DD33
:1034C0002CB132463946284610F0E8FAF8BD3246AB
:1034D0003946284610F082FCF8BD0000094A1268FF
:1034E00002B10020074A1C3252F82030002B07DBC3
:1034F000A2F1180343F820104FF0FF3142F82010DA
:10350000704700006401012010B5002821D009B3E4
:103510000AB3B1F90040B2F900309C4200DA234608
:103520000380B1F90240B2F902309C4200DA23462E
:103530004380B1F90440B2F904309C4200DD2346D7
:103540008380B1F90610B2F90620914200DC1146E1
:10355000C18010BD11460A6802604968416010BD13
:1035600000280BD003880B44038083881944818092
:10357000418811444180C1881144C18070470000D6
:103580002DE9FC41154DDDE908742D68B5F9086099
:10359000864200DD3046B5F90C60964200DA3246CC
:1035A000824219DBB5F90A608E4200DD3146B5F979
:1035B0000E509D4200DA2B468B420DDB00E02C467C
:1035C000E5682D6825B1042D02D02568002DF6D1BF
:1035D000CDE9007409F07CF9BDE8FC8124010120EB
:1035E000B0F90220B1F906309A4213DCB1F9022099
:1035F000B0F906309A420DDCB0F90020B1F9043080
:103600009A4207DCB1F90010B0F90400814201DCF4
:10361000012070470020704738B5040020D0FFF724
:1036200087FC204610F098F9204610F00BFA20464F
:10363000FEF7ECFE00900068FEF764FE0098C0689C
:10364000FEF742FE0098C069FEF73EFE6846FEF7B0
:1036500005FF2046FEF738FEBDE8384000F0BCBA52
:1036600038BD70B515460E4604000AD0FFF760FC61
:103670002A46314620460FF049FDBDE8704000F073
:10368000ABBA70BD38B504001ED0FFF751FC204620
:10369000FEF7BCFE0090007C800710D420460FF09F
:1036A0008FF96846FEF7DAFE20460FF0E9FF204664
:1036B000FEF7ACFE0090018A41F0020101826846EB
:1036C000FEF7CCFE00F088FA38BD00002DE9F84383
:1036D00004460088089F91468846E8B36088D8B3BE
:1036E000E06818B1806800283BD002E0E08820281C
:1036F00036D107F0010200212348FFF725F8050025
:103700002ED02088860060884643FFF711FC06F122
:103710002000FEF7BAFD060025D03046AE60FEF769
:1037200075FE009007824461A0F80480A0F806901E
:10373000238808EB0301491E018161884944491E21
:10374000418105606846FEF789FEE06878B1214650
:1037500030460BF03FFC00E002E040B100F03CFAE4
:103760000020BDE8F8832846FFF72AF8F6E7B807F7
:1037700005D530460FF024F930460FF081FF00F0F8
:103780002BFA3046EDE700007496010810B5FFF7FC
:10379000CFFB09F069F909F06DFA0AF0EBF9BDE821
:1037A000104000F019BA000070B50B4D04462868AF
:1037B000467CFFF7BDFB022C09D22046FFF774F8C8
:1037C00028B128684474FFF7E1FF0448046000F062
:1037D00003FA304670BD000024010120F4010120ED
:1037E00010B50446FFF7A4FB204609F05DF9BDE8DB
:1037F000104000F0F1B910B50446FFF799FB2046E0
:1038000009F08AF9BDE8104000F0E6B90149886086
:10381000704700001801012010B50446FFF788FB2F
:10382000204609F0A1F9044600F0D6F9204610BD63
:1038300070B50446FFF77CFB04480068C56904B115
:10384000C46100F0C9F9284670BD000024010120C0
:103850000149C86170470000E80001200149486043
:1038600070470000180101200149086070470000FE
:10387000E80001200149486070470000E80001208D
:1038800070B514460D460646FFF752FB2246294600
:10389000304609F085F9044600F09EF9204670BDD7
:1038A00070B514460D460646FFF742FB22462946F0
:1038B000304609F08BF9044600F08EF9204670BDC1
:1038C00070B50C460546FFF733FB2146284609F044
:1038D000BDF9044600F080F9204670BD70B505467C
:1038E000FFF726FB03480068847E857600F074F9B4
:1038F000204670BD2401012070B50C460546FFF737
:1039000017FB0948224605800848048008480068DB
:10391000417C084850F82100C1680B6A2946984745
:10392000BDE8704000F058B9540101205601012053
:10393000240101203C01012070B50446FFF7F8FA8C
:1039400004480068B0F92C50848500F045F92846F9
:1039500070BD00002401012002480068002800D04A
:10396000004770477002012002498A6802B98860E6
:10397000FFF7F2BF6002012002490968491C014AB1
:1039800011607047800001202DE9F041084E044687
:1039900005683068016828468847074630684168EE
:1039A00028468847284420603846BDE8F08100005A
:1039B000280101202DE9F0410C4606460025064F5E
:1039C00005E0386841683046884706440544641E6F
:1039D000F7D22846BDE8F081280101202DE9F04109
:1039E0001E46069C1746884605463A46A8687F1C30
:1039F0003346D0F804C041462846E047641EF4D15F
:103A0000BDE8F08170B5B0F90040091BB0F9044081
:103A10008C422CDD00F11404B0F902500069521BF5
:103A200002FB0040CA1800EBE104521ED010B0EBBC
:103A3000E10501F007034FF0FF0102F0070221FA50
:103A400003F0C2F1070201FA02F1CEB221780FD0E1
:103A500001436D1E04F8011B002D05DDFF222946E0
:103A60002046FCF75CFE2C4420783043207070BD6B
:103A700030400143217070BD10B5B0F90030B0F98D
:103A80000240C91A00F114030069121B02FB003046
:103A900000EBE10001F0070302788021D9400A43DE
:103AA000027010BDB0F90610026951431430FCF7E2
:103AB0003EBE00002DE9F843804602F10F000011E0
:103AC000470003FB07F01C46154689461430FEF7F5
:103AD000DCFB060018D0FFF72BFA3046FEF796FC09
:103AE0000090A0F80080A0F802908580C48007496B
:103AF00081600121818107616846FEF7AFFC00F01B
:103B00006BF83046BDE8F8830020FBE7FCBE0108F7
:103B100070B5B0F90660B0F904400B6800F1140507
:103B200096421BDD0069A34202FB005000EBE3025A
:103B300014DA641EE010A0EBE30512F8010B03F0A9
:103B40000704A040C4B206E045B1083312F8014BA7
:103B500023F007036D1E002CF6D004E0002070BD9A
:103B60006006040E5B1C2006FAD5FF2C07D0184611
:103B700002E06406240E401C6606FAD400E0D81D5C
:103B8000C443640705D006E012F8014BFF2C09D1AD
:103B900008306D1EF8D5C01A401C0B6070BD62065F
:103BA000140E401C2206FAD4F5E738B50546FFF797
:103BB000BFF92846FEF72AFC00908189491E0CB205
:103BC00084816846FEF74AFC14B92846FEF77CFB60
:103BD00000F002F838BD00000348C168491EC1600A
:103BE00001D100F043B87047CC01012010B54FF46B
:103BF00000110348FEF760FB0248FFF707FE10BD07
:103C0000000020C06C68010810B5012010F0B2FE61
:103C100010BD10B510F086FF10BD000010B50022D9
:103C20000121054810F0A8FF04490860012103485C
:103C3000006810F0BBFF10BD246001088400012063
:103C400010B5034810F0F6FE0249086010BD0000F0
:103C50002C6001088800012010B54FF0FF310248A8
:103C6000006810F00BFF10BD8800012010B502485D
:103C7000006810F0F7FE10BD880001200EB508B1F5
:103C800002AA00E00022002301A9684600F04CFBD4
:103C90000EBD000010B5082A0EDC0346012A18D01C
:103CA000022A56D0042A76D010F8042B03F8012BF0
:103CB000491EF9D1012010BD102A08DC4FEA00028C
:103CC00030F8043B22F8023B491EF9D1F2E700200C
:103CD00010BD10F8042BD207120E491E34D010F874
:103CE000044B491E04F0010442EA84122CD010F85F
:103CF000044B491E04F0010442EA441224D010F897
:103D0000044B491E04F0010442EA04121CD010F8CE
:103D1000044B491E04F0010442EAC40214D010F816
:103D2000044B491E04F0010442EA84020CD010F84E
:103D3000044B491E04F0010442EA440204D010F886
:103D4000044B04F00104224303F8012B0029C0D1E5
:103D5000B0E710F8042B9207120E491E15D010F888
:103D6000044B491E04F0030442EA04120DD010F87B
:103D7000044B491E04F0030442EA840205D010F803
:103D8000044B04F003042243491E03F8012B0029CD
:103D9000DFD18FE7FFE710F8042B1207120E491E40
:103DA00005D010F8044B04F00F042243491E03F819
:103DB000012B0029EFD17DE738B50024009400F0F5
:103DC0001DF838BD0B4810B58169002910D10121BB
:103DD0008161FFF70BFFFEF727FA08F05DFF054949
:103DE00005481C310860BDE81040084600F048BC9A
:103DF00010BD000018010120492A01082DE9F041F9
:103E00000D460699044601B901461F68082A09DCD7
:103E10000E46012A1AD0022A5BD0042A7DD0082A35
:103E200013D18DE0102A07DCD3F810C00E46BCF188
:103E3000000F04D0022389E00020BDE8F08101CC0E
:103E4000B84726F8020B6D1EF9D189E001CCB847BE
:103E5000C0074FEA10686D1E36D001CCB84748EA5B
:103E6000801000F0FF086D1E2ED001CCB84748EA44
:103E7000401000F0FF086D1E26D001CCB84748EA7C
:103E8000001000F0FF086D1E1ED001CCB84748EAB4
:103E9000C00000F0FF086D1E16D001CCB84748EAFC
:103EA000800000F0FF086D1E0ED001CCB84748EA34
:103EB000400000F0FF086D1E06D001CCB84740EA74
:103EC000080000F0FF086D1E06F8018B002DBDD123
:103ED00046E001CCB84780074FEA10686D1E16D047
:103EE00001CCB84748EA001000F0FF086D1E0ED064
:103EF00001CCB84748EA800000F0FF086D1E06D0EC
:103F000001CCB84740EA080000F0FF086D1E06F833
:103F1000018B002DDDD123E0FFE701CCB84700077E
:103F20004FEA10686D1E06D001CCB84740EA080081
:103F300000F0FF086D1E06F8018B002DEDD10FE09B
:103F4000D3F810C0BCF1000F04D001232A4620464C
:103F5000E04705E001CCB84706F8010B6D1EF9D12A
:103F600001206AE77CB5064628480D46006868B11E
:103F700000200AF01DF906E06A46294630460AF09C
:103F8000EFFF0AF0D7F80028F6D17CBD106800904A
:103F90001F4C506801902268BDF8000032F84C1F99
:103FA0000844ADF80000BDF8020091880844ADF85F
:103FB0000200BDF8040011880844ADF80400BDF803
:103FC000060091880844ADF8060068460AF0F0F84B
:103FD0000EE000BF2068BDF800106A464184BDF8BD
:103FE00002108184294630460AF0BAFF0AF0A2F88E
:103FF0000028EFD1206830F8221F428D891A0180F5
:104000004188C28D891A41807CBD00005001012089
:10401000240101202DE9FF4F8DB00020DDF86CA0B8
:10402000164600901D4604460246CAF8000008AB3A
:1040300003A902A800F078F918B1002011B0BDE87A
:10404000F08F0898854200DD0546614F0B95614968
:104050003868407C51F82010049109690691FEF7F8
:104060008BFE05903868407CFEF72CFF5A4981464C
:10407000884204D05949894501D0012000E0002040
:104080000A9001CE1A9988478346000E079077D090
:10409000009870BB0D9800EB04084D480068B0F91B
:1040A0000800404503DDA0EB0807804600E000273C
:1040B0000298049900EB840000EB8700CDE9000131
:1040C0000B990D98421809920E9B40461946521EB4
:1040D000FFF756FA01200090059818280ADA02988E
:1040E000DDE9052300EB840000EB8700E91B00F00D
:1040F00079F812E00A9880B1029800EB840000EB96
:1041000087070998A0EB080849463868884701C71F
:10411000A8F101005FEA0008F6D13148C06980B318
:10412000DDE9020700EB840007EB8402CDE902021F
:104130002B4C361F3046E4692B460299A047FF21DD
:104140003068B1EB106F02D10298006804E0029A67
:104150001268B1EB126F01D1039A1060029806F158
:104160000406001D02900398001D03906D1EE7D108
:104170000397DAF8000040F00101CAF8001020E0CF
:1041800021E0FFE70798FF2811D0C0F1FF02029855
:1041900050F82410584600F019FA039941F8240009
:1041A000DAF8000040F00101CAF8001005E00298BA
:1041B000039950F8240041F82400641C6D1E7FF41C
:1041C00060AF03983AE7039941F824B0E8E70000AC
:1041D000240101203C01012037C7000835C7000831
:1041E000E80001202DE9F05F0C1E16DD5E68014637
:1041F00000EB8405082A12DC611E012A26D0022A5F
:1042000047D0042A6AD0082A07D1071917F8010DE8
:10421000B04745F8040D641EF8D1BDE8F09F102AA0
:10422000FBDC5F693FB12246BC46BDE8F04F02238C
:104230005DF804EB604701EB440700BF37F8020D5F
:10424000B04745F8040D641EF8D1E6E700EBE10045
:1042500001F0070710F801A98146802020FA07F82D
:10426000B5F104050AEA0800C7F10701C840B047E4
:1042700045F804093FB14FEA48604FEA10687F1ED5
:10428000641EEFD1C9E719F801A907274FF001080B
:10429000F6E700EBA10001F0030710F801A9814641
:1042A0007900C02020FA01F84FF0060BB5F10405A3
:1042B0000AEA0800ABEB4701C840B04745F80409DB
:1042C0003FB14FEA88604FEA10687F1E641EEFD14D
:1042D000A3E7032719F801A9B846F7E700EB610047
:1042E000012710F801A9A7438146B900F02020FA60
:1042F00001F84FF0040B2D1F0AEA0800ABEB870111
:10430000C840B04745F804093FB14FEA08704FEA8A
:1043100010687F1E641EEFD17FE719F801A90127FD
:104320004FF00F08F6E700002DE9F047224C064653
:104330001F46A06990468946002540B90120A0612A
:1043400004F120011D480860084600F099F96069F1
:1043500030B91B480068606110B908F07AF96061F3
:1043600007B138604EB1A06830B960698000FDF7D0
:10437000D5FFA06000B901253060B9F1000F0AD067
:10438000E06830B960698000FDF7C8FFE06000B9FF
:104390000125C9F80000B8F1000F0AD0206930B932
:1043A00060698000FDF7BAFF206100B90125C8F8F7
:1043B00000002846BDE8F087E8000120ED2901084B
:1043C0004801012073B5124A01A90098126890476C
:1043D00000240090C8B10F4900250968C9694969DE
:1043E00059B10A684AB1019990477CBD6846FFF708
:1043F000CBFA0546FEF7D6FC04440198401E019016
:10440000F4D5284600F024F8044420467CBD000082
:10441000800201202401012073B50D46009800247C
:1044200090B10A490968C969496959B14A684AB1EC
:10443000294690477CBD6846FFF7A6FA20B10A28B6
:1044400002D0641CAC42F6DB20467CBD2401012076
:1044500038B5002469460094FEF7B6FC0099814205
:1044600000DD0C1A204638BDB0F90030B1F900204B
:10447000934200DA0280B0F90230B1F9022093428F
:1044800000DA4280B0F90430B1F90420934200DD33
:104490008280B0F90620B1F906108A4200DDC180A1
:1044A000704770B5B1F90040B2F900309C4200DDB0
:1044B00023460380B1F90250B2F90240A54200DD63
:1044C0002C464480B1F90460B2F90450AE4200DADF
:1044D00035468580B1F90610B2F90620914200DB1D
:1044E0001146C1809D4201DBA14201DA002070BD6E
:1044F000012070BD014602480068407C00F002B80F
:10450000240101202DE9F8430126044689460228AA
:1045100057DADFF8B480080008F1040530D001282C
:1045200002D002294DD116E055F8240088B9204662
:10453000FEF7BAF9009010B3C0680D21426A6846D0
:10454000904702003DD049460098904755F8240016
:104550000026401C33E02046FEF7A6F9009070B11B
:10456000C0680D21426A68469047040029D0D8F8F7
:10457000000000B1804749460098A047002620E08F
:1045800055F82400012813D12046FEF78DF900903C
:1045900070B1C0680D21426A68469047070007D095
:1045A000D8F8000000B1804749460098B847002677
:1045B00055F8240008B1012100E00021401A45F817
:1045C00024003046BDE8F8834C02012070B5FF237B
:1045D000B3EB116F2CD0C3B213FB02F500F47F4490
:1045E00000F47F0354435343000E10FB02F6C2F164
:1045F000FF00CAB212FB005201F47F4505FB0044E4
:1046000001F47F0505FB0033090E11FB0065C2F3C1
:1046100007204FF47F024FF47F4102EA132201EAA0
:1046200014214FF07F43084303EA05431043184326
:1046300070BD2DE9F04F0646DDE90CB915460C4674
:1046400000208046584519D20B9F4FF0FF0A01CE3B
:1046500008CCAAEB106202FB09F2B2FBFAF1CAB273
:104660001946FFF7B3FF20F07F4001C57F1EEED152
:10467000099804EB800408F10100E2E7BDE8F08F3F
:1046800002494A69426048617047000018010120F0
:1046900010B502E000F8011B521E0AB18307F9D1E0
:1046A000930818D001EB014402F0030204EB042448
:1046B00006E010C01B1F10C040F8084B40F8044C27
:1046C000042BF6DA01E010C05B1E002BFBD102E0E8
:1046D00000F8011B521E002AFAD110BD00F58060BF
:1046E000AFF3008010B50023C0F30B00B0F5006FEE
:1046F00002DD0123A0F50060B0F5806F01DDC0F59B
:10470000006081110C4C00F03F00C0F1400234F811
:1047100011005043402A08D0102906DA04EB410169
:10472000C2F14002498801FB020020308009002BC1
:1047300000D0404210BD0000F86001087047000042
:1047400038B505460C46002000902068122802D992
:104750002068102800D104E040F21D4173480FF09A
:1047600057FE606818B16068102800D804E040F275
:104770001E416E480FF04CFEA068A0B1A068012851
:1047800011D0A06802280ED0A06803280BD0A06822
:10479000042808D0A068052805D0A068062802D003
:1047A000A068072800D104E040F21F415F480FF0E5
:1047B0002FFE00BF95F83C00012801D1022038BD32
:1047C000012085F83C0000BF2068092816D9286818
:1047D000C06821780A3901EB4102072191408843E2
:1047E0002968C86021780A3901EB4101A068884036
:1047F0002968C96808432968C86013E02868006907
:10480000217801EB41020721914088432968086122
:10481000217801EB4101A0688840296809690843B3
:10482000296808616068072817D22868406B2179D9
:10483000491E01EB81021F2191408843296848638A
:10484000208880B22179491E01EB810188402968C6
:10485000496B08432968486331E060680D2817D226
:104860002868006B2179C91F01EB81021F2191404B
:10487000884329680863208880B22179C91F01EB29
:10488000810188402968096B08432968086316E09C
:104890002868C06A21790D3901EB81021F219140FE
:1048A00088432968C862208880B221790D3901EBDC
:1048B000810188402968C96A08432968C8621C497F
:1048C0002868884208D12068122805D11948006854
:1048D00040F48000C1F804031549286888421ED1BD
:1048E0002068102802D02068112818D111480068CB
:1048F00040F400000F490860206810280FD10E48CE
:1049000000680E49B0FBF1F000EB80004000009021
:1049100002E00098401E009000980028F9D100BFE6
:10492000002085F83C0000BF00BF48E758BF0108E1
:1049300000200140042301407C00012040420F0080
:1049400010B504464FF40071084804F0BFF9084858
:1049500000F084FA4FF2F0010648006810F0A6F863
:104960004FF40071014804F0B1F910BD0004024099
:1049700084020120140001207047704770B504467E
:1049800000250026A06910B1A069012800D104E02B
:104990004FF4377162480FF03BFD206A18B1206A6E
:1049A000102800D804E040F2DD215D480FF030FD12
:1049B0006069012804D0606910B16069022800D1E3
:1049C00004E040F2DE2156480FF022FD2068006826
:1049D000C0F3400520684068C0F34016002D3DD06C
:1049E000E6B394F83D00252803D1352084F83D0036
:1049F00002E0152084F83D00A06940BB2068806873
:104A000000F0405018BB606960B92068406820F031
:104A10002000216848602068406820F0806021689C
:104A2000486014E0606B08B9206A6063606B401EE8
:104A30006063606B58B92068406820F020002168EE
:104A400048602068406820F0806021684860204607
:104A5000FFF776FF6FF002002168086020680068A9
:104A6000C0F3800520684068C0F3C01655B34EB34C
:104A700094F83D00152803D1352084F83D0002E06C
:104A8000252084F83D0020684068012121EA902516
:104A90002068806800F4401008B9012000E0002080
:104AA0000646A06900B135B12EB12068406820F0FB
:104AB0008000216848602046FFF740FE6FF0040048
:104AC000216808602068006800F0010520684068DF
:104AD000C0F3801655B14EB1062084F83D006FF04A
:104AE000010021680860204600F02EF92068006867
:104AF000C0F3401520684068C0F3806675B16EB1A0
:104B0000042084F83D00206C40F0010020646FF028
:104B10002000216808602046FFF72FFF70BD0000CD
:104B200058BF010810B504460CB9012010BD8149D9
:104B30002068884207D080492068884203D07F4996
:104B40002068884200D104E04FF486717C480FF061
:104B50005FFC606858B16068B0F5803F07D060685E
:104B6000B0F5003F03D06068B0F5403F00D104E0ED
:104B700040F20D1172480FF04BFCA06858B1A068CC
:104B8000B0F1807F07D0A068B0F1007F03D0A068AB
:104B9000B0F1407F00D104E04FF4877168480FF016
:104BA00037FC206910B12069012800D104E040F2EF
:104BB0000F1163480FF02CFCA06910B1A069012807
:104BC00000D104E04FF488715D480FF021FCE06AE9
:104BD000D8B3E06AB0F1807F37D0E06AB0F1007FEF
:104BE00033D0E06AB0F1407F2FD0E06AB0F1806F3F
:104BF0002BD0E06AB0F1A06F27D0E06AB0F1C06FAF
:104C000023D0E06AB0F1E06F1FD0E06AB0F1006F2E
:104C10001BD0E06AB0F1106F17D0E06AB0F1206FDE
:104C200013D0E06AB0F1306F0FD0E06AB0F1406F9E
:104C30000BD0E06AB0F1506F07D0E06AB0F1706F4E
:104C400003D04049E06A884200D104E040F21111EB
:104C50003B480FF0DDFBE06818B1E068B0F5006F8D
:104C600000D104E04FF4897135480FF0D1FB206A80
:104C700018B1206A102800D804E040F2131130481F
:104C80000FF0C6FBE06910B1E069012800D104E033
:104C90004FF48A712A480FF0BBFB6069012804D0E9
:104CA000606910B16069022800D104E040F215117A
:104CB00023480FF0ADFB606A10B1606A012800D193
:104CC00004E04FF48B711E480FF0A2FB1D49E06A0F
:104CD000884213D0206B58B1206BB0F1805F07D0B1
:104CE000206BB0F1005F03D0206BB0F1405F00D1CA
:104CF00004E04FF48D7112480FF08AFB94F83D00E8
:104D000028B9002084F83C00204600F01EF802205C
:104D100084F83D002046FBF759FE00202064012066
:104D200084F83D0000BF002084F83C0000BF00BFB5
:104D3000FCE600000020014000210140002201406B
:104D400058BF01080100000F70477047F8B50446CE
:104D50000D46164600200090A06910B1A0690128F8
:104D600000D104E040F2673136480FF051FB206B70
:104D700058B1206BB0F1805F07D0206BB0F1005FBD
:104D800003D0206BB0F1405F00D104E04FF45A71C2
:104D90002C480FF03DFB00BF94F83C00012801D1E6
:104DA0000220F8BD012084F83C0000BF2068406864
:104DB00040F08060216848602068806840F480701E
:104DC000216888602048A16BC8632048A16B0864F3
:104DD0001F48A16B8864226802F14C0133462A46C1
:104DE000A06B03F0B1FC122084F83D0000BF00204E
:104DF00084F83C0000BF2068806800F00100A0B982
:104E00002068806840F001002168886011480068CF
:104E10001149B0FBF1F000EB4000009002E0009877
:104E2000401E009000980028F9D12068806800F0AA
:104E3000405028B92068806840F080402168886030
:104E40000020AEE758BF01089D080008DD080008F3
:104E5000C10800087C00012040420F0010B5044644
:104E60002068806820F00100216888602068406820
:104E700020F08060216848602068806820F480709D
:104E800021688860A06B00F005F8012084F83D00DF
:104E9000002010BD70B5044600252068006820F091
:104EA00001002168086003F041FF054612E003F0AD
:104EB0003DFF401BB0F57A7F0CD9E06C40F020003C
:104EC000E06400BF002084F8340000BF032084F8B1
:104ED000350070BD2068006800F001000028E6D1B0
:104EE00000BF84F8340000BF012084F835000020A2
:104EF000EFE70000014609B90120704791F835003D
:104F0000022801D10120F8E70868006820F00100BC
:104F10000A68106000200A6810600A6850600A6819
:104F200090600A68D0600A68106121200A685061A8
:104F3000F94A086890425CD9F84A0868904201D161
:104F4000F74852E0F44A483A0868904201D1F448E0
:104F50004BE0F24A60320868904201D1F04844E0E8
:104F6000ED4A18320868904201D1ED483DE0EB4A25
:104F700018320868904201D1801536E0E64A303A8E
:104F80000868904201D180152FE0E44A7832086821
:104F9000904201D1801528E0DF4A30320868904203
:104FA00001D1801521E0DD4A30320868904202D1FB
:104FB0004FF4802019E0D84A183A0868904202D18C
:104FC0004FF4802011E0D54A90320868904202D117
:104FD0004FF4802009E0D04A48320868904202D15C
:104FE0004FF4802001E04FF08070CB4A4C3A1060C3
:104FF0001FE1CA4AA832086890425CD9C74A0868CB
:10500000904201D1C64852E0C34A483A08689042EB
:1050100001D1C3484BE0C14A60320868904201D1D7
:10502000BF4844E0BC4A18320868904201D1BC48ED
:105030003DE0BA4A18320868904201D1801536E046
:10504000B54A303A0868904201D180152FE0B34A42
:1050500078320868904201D1801528E0AE4A30329B
:105060000868904201D1801521E0AC4A30320868CE
:10507000904202D14FF4802019E0A74A183A0868FC
:10508000904202D14FF4802011E0A44A9032086887
:10509000904202D14FF4802009E09F4A48320868CC
:1050A000904202D14FF4802001E04FF080709A4A84
:1050B000503A1060BDE0994A4832086890425CD985
:1050C000964A0868904201D1954852E0924A483A7F
:1050D0000868904201D192484BE0904A60320868DB
:1050E000904201D18E4844E08B4A183208689042C1
:1050F00001D18B483DE0894A18320868904201D1BD
:10510000801536E0844A303A0868904201D1801513
:105110002FE0824A78320868904201D1801528E059
:105120007D4A30320868904201D1801521E07B4AE7
:1051300030320868904202D14FF4802019E0764A5C
:10514000183A0868904202D14FF4802011E0734A67
:1051500090320868904202D14FF4802009E06E4AF4
:1051600048320868904202D14FF4802001E04FF0AD
:1051700080706A4A103AD0605BE0684A08689042E2
:1051800001D1674852E0644A483A0868904201D128
:1051900063484BE0614A60320868904201D1604840
:1051A00044E05D4A18320868904201D15C483DE015
:1051B0005A4A18320868904201D1801536E0564AA2
:1051C000303A0868904201D180152FE0534A783276
:1051D0000868904201D1801528E04F4A30320868B3
:1051E000904201D1801521E04C4A3032086890424B
:1051F00002D14FF4802019E0474A183A08689042DB
:1052000002D14FF4802011E0444A90320868904265
:1052100002D14FF4802009E03F4A483208689042AA
:1052200002D14FF4802001E04FF080703B4A103AE9
:105230009060394A086890425CD9384A08689042C0
:1052400001D1202052E0344A483A0868904201D106
:1052500020204BE0314A60320868904201D1202082
:1052600044E02D4A18320868904201D120203DE0E8
:105270002A4A18320868904201D1C01436E0264A02
:10528000303A0868904201D1C0142FE0234A7832A6
:105290000868904201D1C01428E01F4A30320868E3
:1052A000904201D1C01421E01C4A3032086890427B
:1052B00002D14FF4001019E0174A183A08689042DA
:1052C00002D14FF4001011E0144A90320868904265
:1052D00002D14FF4001009E00F4A483208689042AA
:1052E00002D14FF4001001E04FF000600A4A4C3A3E
:1052F000106021E1094AA8320868904260D9074A43
:105300000868904201D1202056E0034A483A0868D4
:10531000904207D120204FE05864024010600240C4
:1053200004008000F84A0868904201D1202043E040
:10533000F64A0868904201D120203DE0F24A483AFE
:105340000868904201D1C01436E0F04A483A086833
:10535000904201D1C0142FE0EB4A18320868904205
:1053600001D1C01428E0E94A18320868904201D1FE
:10537000C01421E0E44A303A0868904202D14FF468
:10538000001019E0E14A303A0868904202D14FF427
:10539000001011E0DC4A30320868904202D14FF42C
:1053A000001009E0D94A30320868904202D14FF427
:1053B000001001E04FF00060D44A683A1060BBE092
:1053C000D14A183A086890425BD9CF4A603A0868D7
:1053D000904201D1202050E0CC4A603A08689042C7
:1053E00001D1202049E0C84A0868904201D120201C
:1053F00043E0C64A0868904201D120203DE0C24AFD
:10540000483A0868904201D1C01436E0BF4A483A91
:105410000868904201D1C0142FE0BB4A18320868D6
:10542000904201D1C01428E0B84A1832086890426E
:1054300001D1C01421E0B44A303A0868904202D148
:105440004FF4001019E0B14A303A0868904202D196
:105450004FF4001011E0AC4A30320868904202D19B
:105460004FF4001009E0A94A30320868904202D196
:105470004FF4001001E04FF00060A34A703AD06092
:105480005AE0A14A603A0868904201D1202050E0D9
:105490009E4A603A0868904201D1202049E09A4A29
:1054A0000868904201D1202043E0984A0868904261
:1054B00001D120203DE0944A483A0868904201D149
:1054C000C01436E0914A483A0868904201D1C014AD
:1054D0002FE08D4A18320868904201D1C01428E0AC
:1054E0008A4A18320868904201D1C01421E0864AE5
:1054F000303A0868904202D14FF4001019E0834A14
:10550000303A0868904202D14FF4001011E07E4A10
:1055100030320868904202D14FF4001009E07B4A13
:1055200030320868904202D14FF4001001E04FF091
:105530000060754A703A9060744A183A0868904260
:105540005BD9714A603A0868904201D1082050E066
:105550006E4A603A0868904201D1082049E06A4AE0
:105560000868904201D1082043E0684A08689042E8
:1055700001D108203DE0644A483A0868904201D1D0
:10558000401536E0614A483A0868904201D140151A
:105590002FE05D4A18320868904201D1401528E09A
:1055A0005A4A18320868904201D1401521E0564A03
:1055B000303A0868904202D14FF4002019E0534A73
:1055C000303A0868904202D14FF4002011E04E4A70
:1055D00030320868904202D14FF4002009E04B4A73
:1055E00030320868904202D14FF4002001E04FF0C1
:1055F0000070464A643A10601EE1434A4832086827
:1056000090425BD9404A603A0868904201D1082034
:1056100050E03E4A603A0868904201D1082049E0D3
:10562000394A0868904201D1082043E0374A0868A7
:10563000904201D108203DE0334A483A0868904240
:1056400001D1401536E0314A483A0868904201D10C
:1056500040152FE02C4A18320868904201D14015BD
:1056600028E02A4A18320868904201D1401521E00A
:10567000254A303A0868904202D14FF4002019E0E0
:10568000224A303A0868904202D14FF4002011E0DB
:105690001D4A30320868904202D14FF4002009E0E0
:1056A0001A4A30320868904202D14FF4002001E0DB
:1056B0004FF00070154A683A1060BDE0124A183A7F
:1056C000086890425DD9104A603A0868904201D15A
:1056D000082052E00D4A603A0868904201D1082043
:1056E0004BE0094A0868904201D1082045E0074A8A
:1056F0000868904201D108203FE0034A483A086810
:10570000904205D1401538E070600240706402405C
:10571000FA4A0868904201D140152EE0F84A08681C
:10572000904201D1401528E0F44A60320868904266
:1057300001D1401521E0F24A483A0868904202D16E
:105740004FF4002019E0ED4A18320868904202D167
:105750004FF4002011E0EA4A18320868904202D162
:105760004FF4002009E0E54A78320868904202D1FF
:105770004FF4002001E04FF00070E14A883AD06019
:105780005AE0DF4A783A0868904201D1082050E098
:10579000DA4A183A0868904201D1082049E0D84A0C
:1057A000183A0868904201D1082042E0D34A4832B2
:1057B0000868904201D108203BE0D14A603A08686D
:1057C000904201D1401534E0CC4A0868904201D1A2
:1057D00040152EE0CA4A0868904201D1401528E0E1
:1057E000C64A60320868904201D1401521E0C44A9F
:1057F000483A0868904202D14FF4002019E0BF4AAD
:1058000018320868904202D14FF4002011E0BC4ADF
:1058100018320868904202D14FF4002009E0B74ADC
:1058200078320868904202D14FF4002001E04FF036
:105830000070B34A883A9060B04A303208689042AB
:105840005BD9AF4A783A0868904201D1AD4850E040
:10585000AA4A183A0868904201D1AA4849E0A84AE1
:10586000183A0868904201D1A64842E0A34A48325B
:105870000868904201D1A3483BE0A14A603A086819
:10588000904201D1402034E09C4A0868904201D106
:1058900040202EE09A4A0868904201D1402028E03A
:1058A000964A60320868904201D1402021E0944A33
:1058B000483A0868904202D14FF4803019E08F4A8C
:1058C00018320868904202D14FF4803011E08C4ABF
:1058D00018320868904202D14FF4803009E0874ABC
:1058E00078320868904202D14FF4803001E04FF4E2
:1058F0008000824A1C3A106021E1814A30320868F7
:1059000090425BD97E4A783A0868904201D17D483E
:1059100050E07A4A183A0868904201D1794849E043
:10592000774A183A0868904201D1764842E0734AB3
:1059300048320868904201D172483BE0704A603AB0
:105940000868904201D1402034E06C4A08689042D7
:1059500001D140202EE06A4A0868904201D14020DF
:1059600028E0664A60320868904201D1402021E078
:10597000634A483A0868904202D14FF4803019E0F7
:105980005E4A18320868904202D14FF4803011E02C
:105990005B4A18320868904202D14FF4803009E027
:1059A000564A78320868904202D14FF4803001E0C4
:1059B0004FF48000514A203A1060C0E0504A303A1B
:1059C000086890425BD94E4A783A0868904201D103
:1059D0004C4850E0494A183A0868904201D1494879
:1059E00049E0474A183A0868904201D1454842E0E8
:1059F000424A48320868904201D142483BE0404A5E
:105A0000603A0868904201D1402034E03B4A08687F
:105A1000904201D140202EE0394A0868904201D1DD
:105A2000402028E0354A60320868904201D1402089
:105A300021E0334A483A0868904202D14FF480305E
:105A400019E02E4A18320868904202D14FF4803093
:105A500011E02B4A18320868904202D14FF480308E
:105A600009E0264A78320868904202D14FF480302B
:105A700001E04FF48000224A883AD0605FE0204A7B
:105A8000783A0868904201D11E4855E01B4A183AFE
:105A90000868904201D11B484EE0194A183A08683C
:105AA000904201D1174847E0144A483208689042B2
:105AB00001D1144840E0124A603A0868904201D18E
:105AC000402039E00D4A0868904201D1402033E07F
:105AD0000B4A0868904201D140202DE0074A60320D
